{
	"data": {
		"bytecode": {
			"linkReferences": {},
			"object": "6101e06040523480156200001257600080fd5b5060405162003f4238038062003f4283398101604081905262000035916200023d565b604080518082018252600381526245415360e81b602080830191909152825180840190935260058352640312e302e360dc1b838201526001608052600060a081905260c0819052919291839183916200009a918491906200105d6200019e821b17901c565b61018052620000b78160016200019e602090811b6200105d17901c565b6101a052815160208084019190912061014052815190820120610160524661010052620001486101405161016051604080517f8b73c3c69bb8fe3d512ecc4cf759cc79239f7b179b0ffacaa9a75d522b39400f60208201529081019290925260608201524660808201523060a082015260009060c00160405160208183030381529060405280519060200120905090565b60e05250503061012052600262000160838262000314565b5050506001600160a01b0381166200018b576040516311a1e69760e01b815260040160405180910390fd5b6001600160a01b03166101c05262000455565b6000602083511015620001be57620001b683620001ee565b9050620001e8565b82620001d5836200023a60201b6200108e1760201c565b90620001e2908262000314565b5060ff90505b92915050565b600080829050601f8151111562000225578260405163305a27a960e01b81526004016200021c9190620003e0565b60405180910390fd5b8051620002328262000430565b179392505050565b90565b6000602082840312156200025057600080fd5b81516001600160a01b03811681146200026857600080fd5b9392505050565b634e487b7160e01b600052604160045260246000fd5b600181811c908216806200029a57607f821691505b602082108103620002bb57634e487b7160e01b600052602260045260246000fd5b50919050565b601f8211156200030f57600081815260208120601f850160051c81016020861015620002ea5750805b601f850160051c820191505b818110156200030b57828155600101620002f6565b5050505b505050565b81516001600160401b038111156200033057620003306200026f565b620003488162000341845462000285565b84620002c1565b602080601f831160018114620003805760008415620003675750858301515b600019600386901b1c1916600185901b1785556200030b565b600085815260208120601f198616915b82811015620003b15788860151825594840194600190910190840162000390565b5085821015620003d05787850151600019600388901b60f8161c191681555b5050505050600190811b01905550565b600060208083528351808285015260005b818110156200040f57858101830151858201604001528201620003f1565b506000604082860101526040601f19601f8301168501019250505092915050565b80516020808301519190811015620002bb5760001960209190910360031b1b16919050565b60805160a05160c05160e05161010051610120516101405161016051610180516101a0516101c051613a58620004ea600039600081816104a3015281816111d0015261179601526000610b1101526000610ae7015260006120590152600061203101526000611f8c01526000611fb601526000611fe0015260006108830152600061085a015260006108310152613a586000f3fe60806040526004361061014b5760003560e01c8063b469318d116100b6578063e45d03f91161006f578063e45d03f91461042e578063e57a6b1b14610441578063e71ff36514610454578063ed24911d14610474578063f10b5cc814610489578063f17325e7146104cd57600080fd5b8063b469318d14610307578063b83010d314610353578063cf190f3414610386578063d45c4435146103a6578063e13458fc146103dc578063e30bb563146103ef57600080fd5b80634cb7e9e5116101085780634cb7e9e5146102575780634d0030701461026a57806354fd4d501461028a578063831e05a11461029f57806384b0196e146102b2578063a3112a64146102da57600080fd5b806312b11a171461015057806313893f611461019257806317d7de7c146101ca5780632d0335ab146101ec57806344adc90e146102225780634692626714610242575b600080fd5b34801561015c57600080fd5b507fdbfdf8dc2b135c26253e00d5b6cbe6f20457e003fd526d97cea183883570de615b6040519081526020015b60405180910390f35b34801561019e57600080fd5b506101b26101ad366004612be9565b6104e0565b6040516001600160401b039091168152602001610189565b3480156101d657600080fd5b506101df610525565b6040516101899190612c7a565b3480156101f857600080fd5b5061017f610207366004612cb9565b6001600160a01b031660009081526003602052604090205490565b610235610230366004612be9565b6105b7565b6040516101899190612cd6565b610255610250366004612d1a565b6106cf565b005b610255610265366004612be9565b610753565b34801561027657600080fd5b506101b2610285366004612d32565b61081d565b34801561029657600080fd5b506101df61082a565b6102356102ad366004612be9565b6108cd565b3480156102be57600080fd5b506102c7610ad9565b6040516101899796959493929190612d86565b3480156102e657600080fd5b506102fa6102f5366004612d32565b610b61565b6040516101899190612eb2565b34801561031357600080fd5b506101b2610322366004612ec5565b6001600160a01b0391909116600090815260066020908152604080832093835292905220546001600160401b031690565b34801561035f57600080fd5b507fa98d02348410c9c76735e0d0bb1396f4015ac2bb9615f9c2611d19d7a8a9965061017f565b34801561039257600080fd5b506101b26103a1366004612d32565b610ca7565b3480156103b257600080fd5b506101b26103c1366004612d32565b6000908152600560205260409020546001600160401b031690565b61017f6103ea366004612ef1565b610cb5565b3480156103fb57600080fd5b5061041e61040a366004612d32565b600090815260046020526040902054151590565b6040519015158152602001610189565b61025561043c366004612be9565b610d9a565b61025561044f366004612f2b565b610ed1565b34801561046057600080fd5b506101b261046f366004612be9565b610f76565b34801561048057600080fd5b5061017f610fae565b34801561049557600080fd5b506040516001600160a01b037f0000000000000000000000000000000000000000000000000000000000000000168152602001610189565b61017f6104db366004612f3d565b610fbd565b60004282825b81811015610519576105113387878481811061050457610504612f77565b9050602002013585611091565b6001016104e6565b50909150505b92915050565b60606002805461053490612f8d565b80601f016020809104026020016040519081016040528092919081815260200182805461056090612f8d565b80156105ad5780601f10610582576101008083540402835291602001916105ad565b820191906000526020600020905b81548152906001019060200180831161059057829003601f168201915b5050505050905090565b60606000826001600160401b038111156105d3576105d3612fc1565b60405190808252806020026020018201604052801561060657816020015b60608152602001906001900390816105f15790505b509050600034815b858110156106ba57600019860181143688888481811061063057610630612f77565b90506020028101906106429190612fd7565b9050600061066982356106586020850185612ff7565b6106619161320f565b338887611144565b80519091506106789086613282565b9450806020015187858151811061069157610691612f77565b6020026020010181905250806020015151860195505050506106b38160010190565b905061060e565b506106c583836116a7565b9695505050505050565b604080516001808252818301909252600091816020015b60408051808201909152600080825260208201528152602001906001900390816106e6579050509050610721368390038301602084016132f1565b8160008151811061073457610734612f77565b602090810291909101015261074e82358233346001611773565b505050565b3460005b8281101561081757600019830181143685858481811061077957610779612f77565b905060200281019061078b9190612fd7565b90506107f8813561079f602084018461330d565b808060200260200160405190810160405280939291908181526020016000905b828210156107eb576107dc604083028601368190038101906132f1565b815260200190600101906107bf565b5050505050338786611773565b6108029085613282565b935050506108108160010190565b9050610757565b50505050565b60004261051f8382611bf5565b60606108557f0000000000000000000000000000000000000000000000000000000000000000611c85565b61087e7f0000000000000000000000000000000000000000000000000000000000000000611c85565b6108a77f0000000000000000000000000000000000000000000000000000000000000000611c85565b6040516020016108b993929190613356565b604051602081830303815290604052905090565b60606000826001600160401b038111156108e9576108e9612fc1565b60405190808252806020026020018201604052801561091c57816020015b60608152602001906001900390816109075790505b509050600034815b858110156106ba57600019860181143688888481811061094657610946612f77565b905060200281019061095891906133b0565b905036600061096a6020840184612ff7565b909250905080158061098a575061098460408401846133c6565b82141590505b156109a85760405163251f56a160e21b815260040160405180910390fd5b60005b81811015610a5d57610a556040518060800160405280866000013581526020018585858181106109dd576109dd612f77565b90506020028101906109ef919061340e565b6109f890613424565b8152602001610a0a60408801886133c6565b85818110610a1a57610a1a612f77565b905060600201803603810190610a30919061349a565b8152602001610a456080880160608901612cb9565b6001600160a01b03169052611d17565b6001016109ab565b506000610a868435610a6f848661320f565b610a7f6080880160608901612cb9565b8a89611144565b8051909150610a959088613282565b96508060200151898781518110610aae57610aae612f77565b6020026020010181905250806020015151880197505050505050610ad28160010190565b9050610924565b600060608082808083610b0c7f000000000000000000000000000000000000000000000000000000000000000083611e59565b610b377f00000000000000000000000000000000000000000000000000000000000000006001611e59565b60408051600080825260208201909252600f60f81b9b939a50919850469750309650945092509050565b610b69612b48565b6000828152600460208181526040928390208351610140810185528154815260018201549281019290925260028101546001600160401b0380821695840195909552600160401b810485166060840152600160801b90049093166080820152600383015460a0820152908201546001600160a01b0390811660c0830152600583015490811660e0830152600160a01b900460ff16151561010082015260068201805491929161012084019190610c1e90612f8d565b80601f0160208091040260200160405190810160405280929190818152602001828054610c4a90612f8d565b8015610c975780601f10610c6c57610100808354040283529160200191610c97565b820191906000526020600020905b815481529060010190602001808311610c7a57829003601f168201915b5050505050815250509050919050565b60004261051f338483611091565b6000610cc8610cc3836134b6565b611d17565b604080516001808252818301909252600091816020015b6040805160c081018252600080825260208083018290529282018190526060808301829052608083015260a08201528252600019909201910181610cdf579050509050610d2f602084018461340e565b610d3890613424565b81600081518110610d4b57610d4b612f77565b6020908102919091010152610d74833582610d6c60c0870160a08801612cb9565b346001611144565b60200151600081518110610d8a57610d8a612f77565b6020026020010151915050919050565b3460005b8281101561081757600019830181146000858584818110610dc157610dc1612f77565b9050602002810190610dd391906133b0565b610ddc9061359a565b60208101518051919250901580610df95750816040015151815114155b15610e175760405163251f56a160e21b815260040160405180910390fd5b60005b8151811015610e9b57610e93604051806080016040528085600001518152602001848481518110610e4d57610e4d612f77565b6020026020010151815260200185604001518481518110610e7057610e70612f77565b6020026020010151815260200185606001516001600160a01b0316815250611efd565b600101610e1a565b50610eb182600001518284606001518887611773565b610ebb9086613282565b9450505050610eca8160010190565b9050610d9e565b610ee8610ee336839003830183613678565b611efd565b604080516001808252818301909252600091816020015b6040805180820190915260008082526020820152815260200190600190039081610eff579050509050610f3a368390038301602084016132f1565b81600081518110610f4d57610f4d612f77565b602090810291909101015261074e823582610f6e60e0860160c08701612cb9565b346001611773565b60004282825b8181101561051957610fa6868683818110610f9957610f99612f77565b9050602002013584611bf5565b600101610f7c565b6000610fb8611f7f565b905090565b604080516001808252818301909252600091829190816020015b6040805160c081018252600080825260208083018290529282018190526060808301829052608083015260a08201528252600019909201910181610fd7579050509050611027602084018461340e565b61103090613424565b8160008151811061104357611043612f77565b6020908102919091010152610d7483358233346001611144565b600060208351101561107957611072836120aa565b905061051f565b816110848482613722565b5060ff905061051f565b90565b6001600160a01b038316600090815260066020908152604080832085845291829052909120546001600160401b0316156110de5760405163ec9d6eeb60e01b815260040160405180910390fd5b600083815260208290526040808220805467ffffffffffffffff19166001600160401b0386169081179091559051909185916001600160a01b038816917f92a1f7a41a7c585a8b09e25b195e225b1d43248daca46b0faf9e0792777a222991a450505050565b6040805180820190915260008152606060208201528451604080518082019091526000815260606020820152816001600160401b0381111561118857611188612fc1565b6040519080825280602002602001820160405280156111b1578160200160208202803683370190505b5060208201526040516351753e3760e11b8152600481018990526000907f00000000000000000000000000000000000000000000000000000000000000006001600160a01b03169063a2ea7c6e90602401600060405180830381865afa15801561121f573d6000803e3d6000fd5b505050506040513d6000823e601f3d908101601f1916820160405261124791908101906137e1565b805190915061126957604051635f9bd90760e11b815260040160405180910390fd5b6000836001600160401b0381111561128357611283612fc1565b6040519080825280602002602001820160405280156112bc57816020015b6112a9612b48565b8152602001906001900390816112a15790505b5090506000846001600160401b038111156112d9576112d9612fc1565b604051908082528060200260200182016040528015611302578160200160208202803683370190505b50905060005b858110156116865760008b828151811061132457611324612f77565b6020026020010151905060006001600160401b031681602001516001600160401b03161415801561136b5750426001600160401b031681602001516001600160401b031611155b15611389576040516308e8b93760e01b815260040160405180910390fd5b846040015115801561139c575080604001515b156113ba5760405163157bd4c360e01b815260040160405180910390fd5b60006040518061014001604052806000801b81526020018f81526020016113de4290565b6001600160401b0316815260200183602001516001600160401b0316815260200160006001600160401b031681526020018360600151815260200183600001516001600160a01b031681526020018d6001600160a01b0316815260200183604001511515815260200183608001518152509050600080600090505b61146383826120f1565b6000818152600460205260409020549092501561148257600101611459565b8183526000828152600460208181526040928390208651815590860151600182015591850151600283018054606088015160808901516001600160401b03908116600160801b0267ffffffffffffffff60801b19928216600160401b026fffffffffffffffffffffffffffffffff199094169190951617919091171691909117905560a0850151600383015560c085015190820180546001600160a01b039283166001600160a01b031990911617905560e08501516005830180546101008801511515600160a01b026001600160a81b03199091169290931691909117919091179055610120840151849190600682019061157d9082613722565b5050506060840151156115bb5760608401516000908152600460205260409020546115bb5760405163c5723b5160e01b815260040160405180910390fd5b828786815181106115ce576115ce612f77565b60200260200101819052508360a001518686815181106115f0576115f0612f77565b602002602001018181525050818960200151868151811061161357611613612f77565b6020026020010181815250508f8e6001600160a01b031685600001516001600160a01b03167f8bf46bf4cfd674fa735a3d63ec1c9ad4153f033c290341f3a588b75685141b358560405161166991815260200190565b60405180910390a45050505061167f8160010190565b9050611308565b5061169683838360008c8c612150565b845250919998505050505050505050565b60606000826001600160401b038111156116c3576116c3612fc1565b6040519080825280602002602001820160405280156116ec578160200160208202803683370190505b5090506000805b855181101561051957600086828151811061171057611710612f77565b6020026020010151905060005b81518110156117695781818151811061173857611738612f77565b602002602001015185858151811061175257611752612f77565b60209081029190910101526001938401930161171d565b50506001016116f3565b6040516351753e3760e11b81526004810186905260009081906001600160a01b037f0000000000000000000000000000000000000000000000000000000000000000169063a2ea7c6e90602401600060405180830381865afa1580156117dd573d6000803e3d6000fd5b505050506040513d6000823e601f3d908101601f1916820160405261180591908101906137e1565b805190915061182757604051635f9bd90760e11b815260040160405180910390fd5b85516000816001600160401b0381111561184357611843612fc1565b60405190808252806020026020018201604052801561187c57816020015b611869612b48565b8152602001906001900390816118615790505b5090506000826001600160401b0381111561189957611899612fc1565b6040519080825280602002602001820160405280156118c2578160200160208202803683370190505b50905060005b83811015611bd75760008a82815181106118e4576118e4612f77565b60209081029190910181015180516000908152600490925260409091208054919250906119245760405163c5723b5160e01b815260040160405180910390fd5b8c81600101541461194857604051635f9bd90760e11b815260040160405180910390fd5b60058101546001600160a01b038c811691161461197857604051634ca8886760e01b815260040160405180910390fd5b6005810154600160a01b900460ff166119a45760405163157bd4c360e01b815260040160405180910390fd5b6002810154600160801b90046001600160401b0316156119d75760405163905e710760e01b815260040160405180910390fd5b4260028201805467ffffffffffffffff60801b198116600160801b6001600160401b03948516810291821793849055604080516101408101825287548152600188015460208201529386169286169290921791830191909152600160401b8304841660608301529091049091166080820152600382015460a082015260048201546001600160a01b0390811660c0830152600583015490811660e0830152600160a01b900460ff1615156101008201526006820180548391610120840191611a9e90612f8d565b80601f0160208091040260200160405190810160405280929190818152602001828054611aca90612f8d565b8015611b175780601f10611aec57610100808354040283529160200191611b17565b820191906000526020600020905b815481529060010190602001808311611afa57829003601f168201915b505050505081525050858481518110611b3257611b32612f77565b60200260200101819052508160200151848481518110611b5457611b54612f77565b60200260200101818152505080600101548b6001600160a01b03168260040160009054906101000a90046001600160a01b03166001600160a01b03167ff930a6e2523c9cc298691873087a740550b8fc85a0680830414c148ed927f6158560000151604051611bc591815260200190565b60405180910390a450506001016118c8565b50611be784838360018b8b612150565b9a9950505050505050505050565b6000828152600560205260409020546001600160401b031615611c2b576040516317133ca360e11b815260040160405180910390fd5b600082815260056020526040808220805467ffffffffffffffff19166001600160401b0385169081179091559051909184917f5aafceeb1c7ad58e4a84898bdee37c02c0fc46e7d24e6b60e8209449f183459f9190a35050565b60606000611c9283612447565b60010190506000816001600160401b03811115611cb157611cb1612fc1565b6040519080825280601f01601f191660200182016040528015611cdb576020820181803683370190505b5090508181016020015b600019016f181899199a1a9b1b9c1cb0b131b232b360811b600a86061a8153600a8504945084611ce557509392505050565b6020808201516040808401516060808601516001600160a01b03166000908152600386528381208054600181019091558751865187890151878901519589015160808a01518051908c01209851999a979994989597611e0397611de8977fdbfdf8dc2b135c26253e00d5b6cbe6f20457e003fd526d97cea183883570de619791939290918c910197885260208801969096526001600160a01b039490941660408701526001600160401b039290921660608601521515608085015260a084015260c083015260e08201526101000190565b6040516020818303038152906040528051906020012061251f565b905084606001516001600160a01b0316611e2b8285600001518660200151876040015161254c565b6001600160a01b031614611e5257604051638baa579f60e01b815260040160405180910390fd5b5050505050565b606060ff8314611e6c5761107283612574565b818054611e7890612f8d565b80601f0160208091040260200160405190810160405280929190818152602001828054611ea490612f8d565b8015611ef15780601f10611ec657610100808354040283529160200191611ef1565b820191906000526020600020905b815481529060010190602001808311611ed457829003601f168201915b5050505050905061051f565b6020818101516040808401516060808601516001600160a01b03166000908152600386528381208054600181019091558751865186517fa98d02348410c9c76735e0d0bb1396f4015ac2bb9615f9c2611d19d7a8a9965099810199909952958801529186019390935260808501819052929390929190611e039060a001611de8565b6000306001600160a01b037f000000000000000000000000000000000000000000000000000000000000000016148015611fd857507f000000000000000000000000000000000000000000000000000000000000000046145b1561200257507f000000000000000000000000000000000000000000000000000000000000000090565b610fb8604080517f8b73c3c69bb8fe3d512ecc4cf759cc79239f7b179b0ffacaa9a75d522b39400f60208201527f0000000000000000000000000000000000000000000000000000000000000000918101919091527f000000000000000000000000000000000000000000000000000000000000000060608201524660808201523060a082015260009060c00160405160208183030381529060405280519060200120905090565b600080829050601f815111156120de578260405163305a27a960e01b81526004016120d59190612c7a565b60405180910390fd5b80516120e9826138b8565b179392505050565b60208083015160c084015160e0850151604080870151606088015161010089015160a08a01516101208b0151945160009961213299989796918c91016138dc565b60405160208183030381529060405280519060200120905092915050565b845160009060018190036121a8576121a0888860008151811061217557612175612f77565b60200260200101518860008151811061219057612190612f77565b60200260200101518888886125b3565b9150506106c5565b60208801516001600160a01b0381166122145760005b82811015612208578781815181106121d8576121d8612f77565b602002602001015160001461220057604051631574f9f360e01b815260040160405180910390fd5b6001016121be565b506000925050506106c5565b6000805b838110156122ff57600089828151811061223457612234612f77565b60200260200101519050806000141580156122ae5750836001600160a01b031663ce46e0466040518163ffffffff1660e01b8152600401602060405180830381865afa158015612288573d6000803e3d6000fd5b505050506040513d601f19601f820116820180604052508101906122ac9190613979565b155b156122cc57604051631574f9f360e01b815260040160405180910390fd5b878111156122ed5760405163044044a560e21b815260040160405180910390fd5b96879003969190910190600101612218565b50861561239b576040516388e5b2d960e01b81526001600160a01b038316906388e5b2d9908390612336908d908d90600401613996565b60206040518083038185885af1158015612354573d6000803e3d6000fd5b50505050506040513d601f19601f820116820180604052508101906123799190613979565b6123965760405163bf2f3a8b60e01b815260040160405180910390fd5b61242b565b6040516348ed85bf60e11b81526001600160a01b038316906391db0b7e9083906123cb908d908d90600401613996565b60206040518083038185885af11580156123e9573d6000803e3d6000fd5b50505050506040513d601f19601f8201168201806040525081019061240e9190613979565b61242b5760405163e8bee83960e01b815260040160405180910390fd5b841561243a5761243a866127e6565b9998505050505050505050565b60008072184f03e93ff9f4daa797ed6e38ed64bf6a1f0160401b83106124865772184f03e93ff9f4daa797ed6e38ed64bf6a1f0160401b830492506040015b6d04ee2d6d415b85acef810000000083106124b2576d04ee2d6d415b85acef8100000000830492506020015b662386f26fc1000083106124d057662386f26fc10000830492506010015b6305f5e10083106124e8576305f5e100830492506008015b61271083106124fc57612710830492506004015b6064831061250e576064830492506002015b600a831061051f5760010192915050565b600061051f61252c611f7f565b8360405161190160f01b8152600281019290925260228201526042902090565b600080600061255d878787876127f9565b9150915061256a816128bd565b5095945050505050565b6060600061258183612a07565b604080516020808252818301909252919250600091906020820181803683375050509182525060208101929092525090565b60208601516000906001600160a01b0381166125f25785156125e857604051631574f9f360e01b815260040160405180910390fd5b60009150506106c5565b85158015906126605750806001600160a01b031663ce46e0466040518163ffffffff1660e01b8152600401602060405180830381865afa15801561263a573d6000803e3d6000fd5b505050506040513d601f19601f8201168201806040525081019061265e9190613979565b155b1561267e57604051631574f9f360e01b815260040160405180910390fd5b8386111561269f5760405163044044a560e21b815260040160405180910390fd5b8584039350841561273d5760405163e49617e160e01b81526001600160a01b0382169063e49617e19088906126d8908b90600401612eb2565b60206040518083038185885af11580156126f6573d6000803e3d6000fd5b50505050506040513d601f19601f8201168201806040525081019061271b9190613979565b6127385760405163ccf3bb2760e01b815260040160405180910390fd5b6127cb565b60405163e60c350560e01b81526001600160a01b0382169063e60c350590889061276b908b90600401612eb2565b60206040518083038185885af1158015612789573d6000803e3d6000fd5b50505050506040513d601f19601f820116820180604052508101906127ae9190613979565b6127cb5760405163bd8ba84d60e01b815260040160405180910390fd5b82156127da576127da846127e6565b50939695505050505050565b80156127f6576127f63382612a2f565b50565b6000807f7fffffffffffffffffffffffffffffff5d576e7357a4501ddfe92f46681b20a083111561283057506000905060036128b4565b6040805160008082526020820180845289905260ff881692820192909252606081018690526080810185905260019060a0016020604051602081039080840390855afa158015612884573d6000803e3d6000fd5b5050604051601f1901519150506001600160a01b0381166128ad576000600192509250506128b4565b9150600090505b94509492505050565b60008160048111156128d1576128d1613a0c565b036128d95750565b60018160048111156128ed576128ed613a0c565b0361293a5760405162461bcd60e51b815260206004820152601860248201527f45434453413a20696e76616c6964207369676e6174757265000000000000000060448201526064016120d5565b600281600481111561294e5761294e613a0c565b0361299b5760405162461bcd60e51b815260206004820152601f60248201527f45434453413a20696e76616c6964207369676e6174757265206c656e6774680060448201526064016120d5565b60038160048111156129af576129af613a0c565b036127f65760405162461bcd60e51b815260206004820152602260248201527f45434453413a20696e76616c6964207369676e6174757265202773272076616c604482015261756560f01b60648201526084016120d5565b600060ff8216601f81111561051f57604051632cd44ac360e21b815260040160405180910390fd5b80471015612a7f5760405162461bcd60e51b815260206004820152601d60248201527f416464726573733a20696e73756666696369656e742062616c616e636500000060448201526064016120d5565b6000826001600160a01b03168260405160006040518083038185875af1925050503d8060008114612acc576040519150601f19603f3d011682016040523d82523d6000602084013e612ad1565b606091505b505090508061074e5760405162461bcd60e51b815260206004820152603a60248201527f416464726573733a20756e61626c6520746f2073656e642076616c75652c207260448201527f6563697069656e74206d6179206861766520726576657274656400000000000060648201526084016120d5565b604080516101408101825260008082526020820181905291810182905260608082018390526080820183905260a0820183905260c0820183905260e0820183905261010082019290925261012081019190915290565b60008083601f840112612bb057600080fd5b5081356001600160401b03811115612bc757600080fd5b6020830191508360208260051b8501011115612be257600080fd5b9250929050565b60008060208385031215612bfc57600080fd5b82356001600160401b03811115612c1257600080fd5b612c1e85828601612b9e565b90969095509350505050565b60005b83811015612c45578181015183820152602001612c2d565b50506000910152565b60008151808452612c66816020860160208601612c2a565b601f01601f19169290920160200192915050565b602081526000612c8d6020830184612c4e565b9392505050565b6001600160a01b03811681146127f657600080fd5b8035612cb481612c94565b919050565b600060208284031215612ccb57600080fd5b8135612c8d81612c94565b6020808252825182820181905260009190848201906040850190845b81811015612d0e57835183529284019291840191600101612cf2565b50909695505050505050565b600060608284031215612d2c57600080fd5b50919050565b600060208284031215612d4457600080fd5b5035919050565b600081518084526020808501945080840160005b83811015612d7b57815187529582019590820190600101612d5f565b509495945050505050565b60ff60f81b8816815260e060208201526000612da560e0830189612c4e565b8281036040840152612db78189612c4e565b606084018890526001600160a01b038716608085015260a0840186905283810360c08501529050611be78185612d4b565b600061014082518452602083015160208501526040830151612e1560408601826001600160401b03169052565b506060830151612e3060608601826001600160401b03169052565b506080830151612e4b60808601826001600160401b03169052565b5060a083015160a085015260c0830151612e7060c08601826001600160a01b03169052565b5060e0830151612e8b60e08601826001600160a01b03169052565b5061010083810151151590850152610120808401518186018390526106c583870182612c4e565b602081526000612c8d6020830184612de8565b60008060408385031215612ed857600080fd5b8235612ee381612c94565b946020939093013593505050565b600060208284031215612f0357600080fd5b81356001600160401b03811115612f1957600080fd5b820160c08185031215612c8d57600080fd5b600060e08284031215612d2c57600080fd5b600060208284031215612f4f57600080fd5b81356001600160401b03811115612f6557600080fd5b820160408185031215612c8d57600080fd5b634e487b7160e01b600052603260045260246000fd5b600181811c90821680612fa157607f821691505b602082108103612d2c57634e487b7160e01b600052602260045260246000fd5b634e487b7160e01b600052604160045260246000fd5b60008235603e19833603018112612fed57600080fd5b9190910192915050565b6000808335601e1984360301811261300e57600080fd5b8301803591506001600160401b0382111561302857600080fd5b6020019150600581901b3603821315612be257600080fd5b60405160c081016001600160401b038111828210171561306257613062612fc1565b60405290565b604051608081016001600160401b038111828210171561306257613062612fc1565b604051601f8201601f191681016001600160401b03811182821017156130b2576130b2612fc1565b604052919050565b60006001600160401b038211156130d3576130d3612fc1565b5060051b60200190565b80151581146127f657600080fd5b8035612cb4816130dd565b60006001600160401b0382111561310f5761310f612fc1565b50601f01601f191660200190565b600082601f83011261312e57600080fd5b813561314161313c826130f6565b61308a565b81815284602083860101111561315657600080fd5b816020850160208301376000918101602001919091529392505050565b600060c0828403121561318557600080fd5b61318d613040565b9050813561319a81612c94565b815260208201356001600160401b0380821682146131b757600080fd5b8160208401526131c9604085016130eb565b60408401526060840135606084015260808401359150808211156131ec57600080fd5b506131f98482850161311d565b60808301525060a082013560a082015292915050565b600061321d61313c846130ba565b80848252602080830192508560051b85013681111561323b57600080fd5b855b818110156132765780356001600160401b0381111561325c5760008081fd5b61326836828a01613173565b86525093820193820161323d565b50919695505050505050565b8181038181111561051f57634e487b7160e01b600052601160045260246000fd5b6000604082840312156132b557600080fd5b604051604081018181106001600160401b03821117156132d7576132d7612fc1565b604052823581526020928301359281019290925250919050565b60006040828403121561330357600080fd5b612c8d83836132a3565b6000808335601e1984360301811261332457600080fd5b8301803591506001600160401b0382111561333e57600080fd5b6020019150600681901b3603821315612be257600080fd5b60008451613368818460208901612c2a565b8083019050601760f91b8082528551613388816001850160208a01612c2a565b600192019182015283516133a3816002840160208801612c2a565b0160020195945050505050565b60008235607e19833603018112612fed57600080fd5b6000808335601e198436030181126133dd57600080fd5b8301803591506001600160401b038211156133f757600080fd5b6020019150606081023603821315612be257600080fd5b6000823560be19833603018112612fed57600080fd5b600061051f3683613173565b60006060828403121561344257600080fd5b604051606081018181106001600160401b038211171561346457613464612fc1565b604052905080823560ff8116811461347b57600080fd5b8082525060208301356020820152604083013560408201525092915050565b6000606082840312156134ac57600080fd5b612c8d8383613430565b600060c082360312156134c857600080fd5b6134d0613068565b8235815260208301356001600160401b038111156134ed57600080fd5b6134f936828601613173565b60208301525061350c3660408501613430565b604082015260a083013561351f81612c94565b606082015292915050565b600082601f83011261353b57600080fd5b8135602061354b61313c836130ba565b8281526060928302850182019282820191908785111561356a57600080fd5b8387015b8581101561358d576135808982613430565b845292840192810161356e565b5090979650505050505050565b6000608082360312156135ac57600080fd5b6135b4613068565b823581526020808401356001600160401b03808211156135d357600080fd5b9085019036601f8301126135e657600080fd5b81356135f461313c826130ba565b81815260069190911b8301840190848101903683111561361357600080fd5b938501935b8285101561363c5761362a36866132a3565b82528582019150604085019450613618565b8086880152505050604086013592508083111561365857600080fd5b50506136663682860161352a565b60408301525061351f60608401612ca9565b600060e0828403121561368a57600080fd5b613692613068565b823581526136a384602085016132a3565b60208201526136b58460608501613430565b604082015260c08301356136c881612c94565b60608201529392505050565b601f82111561074e57600081815260208120601f850160051c810160208610156136fb5750805b601f850160051c820191505b8181101561371a57828155600101613707565b505050505050565b81516001600160401b0381111561373b5761373b612fc1565b61374f816137498454612f8d565b846136d4565b602080601f831160018114613784576000841561376c5750858301515b600019600386901b1c1916600185901b17855561371a565b600085815260208120601f198616915b828110156137b357888601518255948401946001909101908401613794565b50858210156137d15787850151600019600388901b60f8161c191681555b5050505050600190811b01905550565b600060208083850312156137f457600080fd5b82516001600160401b038082111561380b57600080fd5b908401906080828703121561381f57600080fd5b613827613068565b825181528383015161383881612c94565b81850152604083015161384a816130dd565b604082015260608301518281111561386157600080fd5b80840193505086601f84011261387657600080fd5b8251915061388661313c836130f6565b828152878584860101111561389a57600080fd5b6138a983868301878701612c2a565b60608201529695505050505050565b80516020808301519190811015612d2c5760001960209190910360031b1b16919050565b89815260006bffffffffffffffffffffffff19808b60601b166020840152808a60601b166034840152506001600160401b0360c01b808960c01b166048840152808860c01b1660508401525085151560f81b6058830152846059830152835161394c816079850160208801612c2a565b60e09390931b6001600160e01b03191660799290930191820192909252607d019998505050505050505050565b60006020828403121561398b57600080fd5b8151612c8d816130dd565b6000604082016040835280855180835260608501915060608160051b8601019250602080880160005b838110156139ed57605f198887030185526139db868351612de8565b955093820193908201906001016139bf565b505085840381870152505050613a038185612d4b565b95945050505050565b634e487b7160e01b600052602160045260246000fdfea2646970667358221220a055137ada31825646038107c9a6a01109dd48d3ea1fed752214dadb52b2e9de64736f6c63430008120033",
			"opcodes": "PUSH2 0x1E0 PUSH1 0x40 MSTORE CALLVALUE DUP1 ISZERO PUSH3 0x12 JUMPI PUSH1 0x0 DUP1 REVERT JUMPDEST POP PUSH1 0x40 MLOAD PUSH3 0x3F42 CODESIZE SUB DUP1 PUSH3 0x3F42 DUP4 CODECOPY DUP2 ADD PUSH1 0x40 DUP2 SWAP1 MSTORE PUSH3 0x35 SWAP2 PUSH3 0x23D JUMP JUMPDEST PUSH1 0x40 DUP1 MLOAD DUP1 DUP3 ADD DUP3 MSTORE PUSH1 0x3 DUP2 MSTORE PUSH3 0x454153 PUSH1 0xE8 SHL PUSH1 0x20 DUP1 DUP4 ADD SWAP2 SWAP1 SWAP2 MSTORE DUP3 MLOAD DUP1 DUP5 ADD SWAP1 SWAP4 MSTORE PUSH1 0x5 DUP4 MSTORE PUSH5 0x312E302E3 PUSH1 0xDC SHL DUP4 DUP3 ADD MSTORE PUSH1 0x1 PUSH1 0x80 MSTORE PUSH1 0x0 PUSH1 0xA0 DUP2 SWAP1 MSTORE PUSH1 0xC0 DUP2 SWAP1 MSTORE SWAP2 SWAP3 SWAP2 DUP4 SWAP2 DUP4 SWAP2 PUSH3 0x9A SWAP2 DUP5 SWAP2 SWAP1 PUSH3 0x105D PUSH3 0x19E DUP3 SHL OR SWAP1 SHR JUMP JUMPDEST PUSH2 0x180 MSTORE PUSH3 0xB7 DUP2 PUSH1 0x1 PUSH3 0x19E PUSH1 0x20 SWAP1 DUP2 SHL PUSH3 0x105D OR SWAP1 SHR JUMP JUMPDEST PUSH2 0x1A0 MSTORE DUP2 MLOAD PUSH1 0x20 DUP1 DUP5 ADD SWAP2 SWAP1 SWAP2 KECCAK256 PUSH2 0x140 MSTORE DUP2 MLOAD SWAP1 DUP3 ADD KECCAK256 PUSH2 0x160 MSTORE CHAINID PUSH2 0x100 MSTORE PUSH3 0x148 PUSH2 0x140 MLOAD PUSH2 0x160 MLOAD PUSH1 0x40 DUP1 MLOAD PUSH32 0x8B73C3C69BB8FE3D512ECC4CF759CC79239F7B179B0FFACAA9A75D522B39400F PUSH1 0x20 DUP3 ADD MSTORE SWAP1 DUP2 ADD SWAP3 SWAP1 SWAP3 MSTORE PUSH1 0x60 DUP3 ADD MSTORE CHAINID PUSH1 0x80 DUP3 ADD MSTORE ADDRESS PUSH1 0xA0 DUP3 ADD MSTORE PUSH1 0x0 SWAP1 PUSH1 0xC0 ADD PUSH1 0x40 MLOAD PUSH1 0x20 DUP2 DUP4 SUB SUB DUP2 MSTORE SWAP1 PUSH1 0x40 MSTORE DUP1 MLOAD SWAP1 PUSH1 0x20 ADD KECCAK256 SWAP1 POP SWAP1 JUMP JUMPDEST PUSH1 0xE0 MSTORE POP POP ADDRESS PUSH2 0x120 MSTORE PUSH1 0x2 PUSH3 0x160 DUP4 DUP3 PUSH3 0x314 JUMP JUMPDEST POP POP POP PUSH1 0x1 PUSH1 0x1 PUSH1 0xA0 SHL SUB DUP2 AND PUSH3 0x18B JUMPI PUSH1 0x40 MLOAD PUSH4 0x11A1E697 PUSH1 0xE0 SHL DUP2 MSTORE PUSH1 0x4 ADD PUSH1 0x40 MLOAD DUP1 SWAP2 SUB SWAP1 REVERT JUMPDEST PUSH1 0x1 PUSH1 0x1 PUSH1 0xA0 SHL SUB AND PUSH2 0x1C0 MSTORE PUSH3 0x455 JUMP JUMPDEST PUSH1 0x0 PUSH1 0x20 DUP4 MLOAD LT ISZERO PUSH3 0x1BE JUMPI PUSH3 0x1B6 DUP4 PUSH3 0x1EE JUMP JUMPDEST SWAP1 POP PUSH3 0x1E8 JUMP JUMPDEST DUP3 PUSH3 0x1D5 DUP4 PUSH3 0x23A PUSH1 0x20 SHL PUSH3 0x108E OR PUSH1 0x20 SHR JUMP JUMPDEST SWAP1 PUSH3 0x1E2 SWAP1 DUP3 PUSH3 0x314 JUMP JUMPDEST POP PUSH1 0xFF SWAP1 POP JUMPDEST SWAP3 SWAP2 POP POP JUMP JUMPDEST PUSH1 0x0 DUP1 DUP3 SWAP1 POP PUSH1 0x1F DUP2 MLOAD GT ISZERO PUSH3 0x225 JUMPI DUP3 PUSH1 0x40 MLOAD PUSH4 0x305A27A9 PUSH1 0xE0 SHL DUP2 MSTORE PUSH1 0x4 ADD PUSH3 0x21C SWAP2 SWAP1 PUSH3 0x3E0 JUMP JUMPDEST PUSH1 0x40 MLOAD DUP1 SWAP2 SUB SWAP1 REVERT JUMPDEST DUP1 MLOAD PUSH3 0x232 DUP3 PUSH3 0x430 JUMP JUMPDEST OR SWAP4 SWAP3 POP POP POP JUMP JUMPDEST SWAP1 JUMP JUMPDEST PUSH1 0x0 PUSH1 0x20 DUP3 DUP5 SUB SLT ISZERO PUSH3 0x250 JUMPI PUSH1 0x0 DUP1 REVERT JUMPDEST DUP2 MLOAD PUSH1 0x1 PUSH1 0x1 PUSH1 0xA0 SHL SUB DUP2 AND DUP2 EQ PUSH3 0x268 JUMPI PUSH1 0x0 DUP1 REVERT JUMPDEST SWAP4 SWAP3 POP POP POP JUMP JUMPDEST PUSH4 0x4E487B71 PUSH1 0xE0 SHL PUSH1 0x0 MSTORE PUSH1 0x41 PUSH1 0x4 MSTORE PUSH1 0x24 PUSH1 0x0 REVERT JUMPDEST PUSH1 0x1 DUP2 DUP2 SHR SWAP1 DUP3 AND DUP1 PUSH3 0x29A JUMPI PUSH1 0x7F DUP3 AND SWAP2 POP JUMPDEST PUSH1 0x20 DUP3 LT DUP2 SUB PUSH3 0x2BB JUMPI PUSH4 0x4E487B71 PUSH1 0xE0 SHL PUSH1 0x0 MSTORE PUSH1 0x22 PUSH1 0x4 MSTORE PUSH1 0x24 PUSH1 0x0 REVERT JUMPDEST POP SWAP2 SWAP1 POP JUMP JUMPDEST PUSH1 0x1F DUP3 GT ISZERO PUSH3 0x30F JUMPI PUSH1 0x0 DUP2 DUP2 MSTORE PUSH1 0x20 DUP2 KECCAK256 PUSH1 0x1F DUP6 ADD PUSH1 0x5 SHR DUP2 ADD PUSH1 0x20 DUP7 LT ISZERO PUSH3 0x2EA JUMPI POP DUP1 JUMPDEST PUSH1 0x1F DUP6 ADD PUSH1 0x5 SHR DUP3 ADD SWAP2 POP JUMPDEST DUP2 DUP2 LT ISZERO PUSH3 0x30B JUMPI DUP3 DUP2 SSTORE PUSH1 0x1 ADD PUSH3 0x2F6 JUMP JUMPDEST POP POP POP JUMPDEST POP POP POP JUMP JUMPDEST DUP2 MLOAD PUSH1 0x1 PUSH1 0x1 PUSH1 0x40 SHL SUB DUP2 GT ISZERO PUSH3 0x330 JUMPI PUSH3 0x330 PUSH3 0x26F JUMP JUMPDEST PUSH3 0x348 DUP2 PUSH3 0x341 DUP5 SLOAD PUSH3 0x285 JUMP JUMPDEST DUP5 PUSH3 0x2C1 JUMP JUMPDEST PUSH1 0x20 DUP1 PUSH1 0x1F DUP4 GT PUSH1 0x1 DUP2 EQ PUSH3 0x380 JUMPI PUSH1 0x0 DUP5 ISZERO PUSH3 0x367 JUMPI POP DUP6 DUP4 ADD MLOAD JUMPDEST PUSH1 0x0 NOT PUSH1 0x3 DUP7 SWAP1 SHL SHR NOT AND PUSH1 0x1 DUP6 SWAP1 SHL OR DUP6 SSTORE PUSH3 0x30B JUMP JUMPDEST PUSH1 0x0 DUP6 DUP2 MSTORE PUSH1 0x20 DUP2 KECCAK256 PUSH1 0x1F NOT DUP7 AND SWAP2 JUMPDEST DUP3 DUP2 LT ISZERO PUSH3 0x3B1 JUMPI DUP9 DUP7 ADD MLOAD DUP3 SSTORE SWAP5 DUP5 ADD SWAP5 PUSH1 0x1 SWAP1 SWAP2 ADD SWAP1 DUP5 ADD PUSH3 0x390 JUMP JUMPDEST POP DUP6 DUP3 LT ISZERO PUSH3 0x3D0 JUMPI DUP8 DUP6 ADD MLOAD PUSH1 0x0 NOT PUSH1 0x3 DUP9 SWAP1 SHL PUSH1 0xF8 AND SHR NOT AND DUP2 SSTORE JUMPDEST POP POP POP POP POP PUSH1 0x1 SWAP1 DUP2 SHL ADD SWAP1 SSTORE POP JUMP JUMPDEST PUSH1 0x0 PUSH1 0x20 DUP1 DUP4 MSTORE DUP4 MLOAD DUP1 DUP3 DUP6 ADD MSTORE PUSH1 0x0 JUMPDEST DUP2 DUP2 LT ISZERO PUSH3 0x40F JUMPI DUP6 DUP2 ADD DUP4 ADD MLOAD DUP6 DUP3 ADD PUSH1 0x40 ADD MSTORE DUP3 ADD PUSH3 0x3F1 JUMP JUMPDEST POP PUSH1 0x0 PUSH1 0x40 DUP3 DUP7 ADD ADD MSTORE PUSH1 0x40 PUSH1 0x1F NOT PUSH1 0x1F DUP4 ADD AND DUP6 ADD ADD SWAP3 POP POP POP SWAP3 SWAP2 POP POP JUMP JUMPDEST DUP1 MLOAD PUSH1 0x20 DUP1 DUP4 ADD MLOAD SWAP2 SWAP1 DUP2 LT ISZERO PUSH3 0x2BB JUMPI PUSH1 0x0 NOT PUSH1 0x20 SWAP2 SWAP1 SWAP2 SUB PUSH1 0x3 SHL SHL AND SWAP2 SWAP1 POP JUMP JUMPDEST PUSH1 0x80 MLOAD PUSH1 0xA0 MLOAD PUSH1 0xC0 MLOAD PUSH1 0xE0 MLOAD PUSH2 0x100 MLOAD PUSH2 0x120 MLOAD PUSH2 0x140 MLOAD PUSH2 0x160 MLOAD PUSH2 0x180 MLOAD PUSH2 0x1A0 MLOAD PUSH2 0x1C0 MLOAD PUSH2 0x3A58 PUSH3 0x4EA PUSH1 0x0 CODECOPY PUSH1 0x0 DUP2 DUP2 PUSH2 0x4A3 ADD MSTORE DUP2 DUP2 PUSH2 0x11D0 ADD MSTORE PUSH2 0x1796 ADD MSTORE PUSH1 0x0 PUSH2 0xB11 ADD MSTORE PUSH1 0x0 PUSH2 0xAE7 ADD MSTORE PUSH1 0x0 PUSH2 0x2059 ADD MSTORE PUSH1 0x0 PUSH2 0x2031 ADD MSTORE PUSH1 0x0 PUSH2 0x1F8C ADD MSTORE PUSH1 0x0 PUSH2 0x1FB6 ADD MSTORE PUSH1 0x0 PUSH2 0x1FE0 ADD MSTORE PUSH1 0x0 PUSH2 0x883 ADD MSTORE PUSH1 0x0 PUSH2 0x85A ADD MSTORE PUSH1 0x0 PUSH2 0x831 ADD MSTORE PUSH2 0x3A58 PUSH1 0x0 RETURN INVALID PUSH1 0x80 PUSH1 0x40 MSTORE PUSH1 0x4 CALLDATASIZE LT PUSH2 0x14B JUMPI PUSH1 0x0 CALLDATALOAD PUSH1 0xE0 SHR DUP1 PUSH4 0xB469318D GT PUSH2 0xB6 JUMPI DUP1 PUSH4 0xE45D03F9 GT PUSH2 0x6F JUMPI DUP1 PUSH4 0xE45D03F9 EQ PUSH2 0x42E JUMPI DUP1 PUSH4 0xE57A6B1B EQ PUSH2 0x441 JUMPI DUP1 PUSH4 0xE71FF365 EQ PUSH2 0x454 JUMPI DUP1 PUSH4 0xED24911D EQ PUSH2 0x474 JUMPI DUP1 PUSH4 0xF10B5CC8 EQ PUSH2 0x489 JUMPI DUP1 PUSH4 0xF17325E7 EQ PUSH2 0x4CD JUMPI PUSH1 0x0 DUP1 REVERT JUMPDEST DUP1 PUSH4 0xB469318D EQ PUSH2 0x307 JUMPI DUP1 PUSH4 0xB83010D3 EQ PUSH2 0x353 JUMPI DUP1 PUSH4 0xCF190F34 EQ PUSH2 0x386 JUMPI DUP1 PUSH4 0xD45C4435 EQ PUSH2 0x3A6 JUMPI DUP1 PUSH4 0xE13458FC EQ PUSH2 0x3DC JUMPI DUP1 PUSH4 0xE30BB563 EQ PUSH2 0x3EF JUMPI PUSH1 0x0 DUP1 REVERT JUMPDEST DUP1 PUSH4 0x4CB7E9E5 GT PUSH2 0x108 JUMPI DUP1 PUSH4 0x4CB7E9E5 EQ PUSH2 0x257 JUMPI DUP1 PUSH4 0x4D003070 EQ PUSH2 0x26A JUMPI DUP1 PUSH4 0x54FD4D50 EQ PUSH2 0x28A JUMPI DUP1 PUSH4 0x831E05A1 EQ PUSH2 0x29F JUMPI DUP1 PUSH4 0x84B0196E EQ PUSH2 0x2B2 JUMPI DUP1 PUSH4 0xA3112A64 EQ PUSH2 0x2DA JUMPI PUSH1 0x0 DUP1 REVERT JUMPDEST DUP1 PUSH4 0x12B11A17 EQ PUSH2 0x150 JUMPI DUP1 PUSH4 0x13893F61 EQ PUSH2 0x192 JUMPI DUP1 PUSH4 0x17D7DE7C EQ PUSH2 0x1CA JUMPI DUP1 PUSH4 0x2D0335AB EQ PUSH2 0x1EC JUMPI DUP1 PUSH4 0x44ADC90E EQ PUSH2 0x222 JUMPI DUP1 PUSH4 0x46926267 EQ PUSH2 0x242 JUMPI JUMPDEST PUSH1 0x0 DUP1 REVERT JUMPDEST CALLVALUE DUP1 ISZERO PUSH2 0x15C JUMPI PUSH1 0x0 DUP1 REVERT JUMPDEST POP PUSH32 0xDBFDF8DC2B135C26253E00D5B6CBE6F20457E003FD526D97CEA183883570DE61 JUMPDEST PUSH1 0x40 MLOAD SWAP1 DUP2 MSTORE PUSH1 0x20 ADD JUMPDEST PUSH1 0x40 MLOAD DUP1 SWAP2 SUB SWAP1 RETURN JUMPDEST CALLVALUE DUP1 ISZERO PUSH2 0x19E JUMPI PUSH1 0x0 DUP1 REVERT JUMPDEST POP PUSH2 0x1B2 PUSH2 0x1AD CALLDATASIZE PUSH1 0x4 PUSH2 0x2BE9 JUMP JUMPDEST PUSH2 0x4E0 JUMP JUMPDEST PUSH1 0x40 MLOAD PUSH1 0x1 PUSH1 0x1 PUSH1 0x40 SHL SUB SWAP1 SWAP2 AND DUP2 MSTORE PUSH1 0x20 ADD PUSH2 0x189 JUMP JUMPDEST CALLVALUE DUP1 ISZERO PUSH2 0x1D6 JUMPI PUSH1 0x0 DUP1 REVERT JUMPDEST POP PUSH2 0x1DF PUSH2 0x525 JUMP JUMPDEST PUSH1 0x40 MLOAD PUSH2 0x189 SWAP2 SWAP1 PUSH2 0x2C7A JUMP JUMPDEST CALLVALUE DUP1 ISZERO PUSH2 0x1F8 JUMPI PUSH1 0x0 DUP1 REVERT JUMPDEST POP PUSH2 0x17F PUSH2 0x207 CALLDATASIZE PUSH1 0x4 PUSH2 0x2CB9 JUMP JUMPDEST PUSH1 0x1 PUSH1 0x1 PUSH1 0xA0 SHL SUB AND PUSH1 0x0 SWAP1 DUP2 MSTORE PUSH1 0x3 PUSH1 0x20 MSTORE PUSH1 0x40 SWAP1 KECCAK256 SLOAD SWAP1 JUMP JUMPDEST PUSH2 0x235 PUSH2 0x230 CALLDATASIZE PUSH1 0x4 PUSH2 0x2BE9 JUMP JUMPDEST PUSH2 0x5B7 JUMP JUMPDEST PUSH1 0x40 MLOAD PUSH2 0x189 SWAP2 SWAP1 PUSH2 0x2CD6 JUMP JUMPDEST PUSH2 0x255 PUSH2 0x250 CALLDATASIZE PUSH1 0x4 PUSH2 0x2D1A JUMP JUMPDEST PUSH2 0x6CF JUMP JUMPDEST STOP JUMPDEST PUSH2 0x255 PUSH2 0x265 CALLDATASIZE PUSH1 0x4 PUSH2 0x2BE9 JUMP JUMPDEST PUSH2 0x753 JUMP JUMPDEST CALLVALUE DUP1 ISZERO PUSH2 0x276 JUMPI PUSH1 0x0 DUP1 REVERT JUMPDEST POP PUSH2 0x1B2 PUSH2 0x285 CALLDATASIZE PUSH1 0x4 PUSH2 0x2D32 JUMP JUMPDEST PUSH2 0x81D JUMP JUMPDEST CALLVALUE DUP1 ISZERO PUSH2 0x296 JUMPI PUSH1 0x0 DUP1 REVERT JUMPDEST POP PUSH2 0x1DF PUSH2 0x82A JUMP JUMPDEST PUSH2 0x235 PUSH2 0x2AD CALLDATASIZE PUSH1 0x4 PUSH2 0x2BE9 JUMP JUMPDEST PUSH2 0x8CD JUMP JUMPDEST CALLVALUE DUP1 ISZERO PUSH2 0x2BE JUMPI PUSH1 0x0 DUP1 REVERT JUMPDEST POP PUSH2 0x2C7 PUSH2 0xAD9 JUMP JUMPDEST PUSH1 0x40 MLOAD PUSH2 0x189 SWAP8 SWAP7 SWAP6 SWAP5 SWAP4 SWAP3 SWAP2 SWAP1 PUSH2 0x2D86 JUMP JUMPDEST CALLVALUE DUP1 ISZERO PUSH2 0x2E6 JUMPI PUSH1 0x0 DUP1 REVERT JUMPDEST POP PUSH2 0x2FA PUSH2 0x2F5 CALLDATASIZE PUSH1 0x4 PUSH2 0x2D32 JUMP JUMPDEST PUSH2 0xB61 JUMP JUMPDEST PUSH1 0x40 MLOAD PUSH2 0x189 SWAP2 SWAP1 PUSH2 0x2EB2 JUMP JUMPDEST CALLVALUE DUP1 ISZERO PUSH2 0x313 JUMPI PUSH1 0x0 DUP1 REVERT JUMPDEST POP PUSH2 0x1B2 PUSH2 0x322 CALLDATASIZE PUSH1 0x4 PUSH2 0x2EC5 JUMP JUMPDEST PUSH1 0x1 PUSH1 0x1 PUSH1 0xA0 SHL SUB SWAP2 SWAP1 SWAP2 AND PUSH1 0x0 SWAP1 DUP2 MSTORE PUSH1 0x6 PUSH1 0x20 SWAP1 DUP2 MSTORE PUSH1 0x40 DUP1 DUP4 KECCAK256 SWAP4 DUP4 MSTORE SWAP3 SWAP1 MSTORE KECCAK256 SLOAD PUSH1 0x1 PUSH1 0x1 PUSH1 0x40 SHL SUB AND SWAP1 JUMP JUMPDEST CALLVALUE DUP1 ISZERO PUSH2 0x35F JUMPI PUSH1 0x0 DUP1 REVERT JUMPDEST POP PUSH32 0xA98D02348410C9C76735E0D0BB1396F4015AC2BB9615F9C2611D19D7A8A99650 PUSH2 0x17F JUMP JUMPDEST CALLVALUE DUP1 ISZERO PUSH2 0x392 JUMPI PUSH1 0x0 DUP1 REVERT JUMPDEST POP PUSH2 0x1B2 PUSH2 0x3A1 CALLDATASIZE PUSH1 0x4 PUSH2 0x2D32 JUMP JUMPDEST PUSH2 0xCA7 JUMP JUMPDEST CALLVALUE DUP1 ISZERO PUSH2 0x3B2 JUMPI PUSH1 0x0 DUP1 REVERT JUMPDEST POP PUSH2 0x1B2 PUSH2 0x3C1 CALLDATASIZE PUSH1 0x4 PUSH2 0x2D32 JUMP JUMPDEST PUSH1 0x0 SWAP1 DUP2 MSTORE PUSH1 0x5 PUSH1 0x20 MSTORE PUSH1 0x40 SWAP1 KECCAK256 SLOAD PUSH1 0x1 PUSH1 0x1 PUSH1 0x40 SHL SUB AND SWAP1 JUMP JUMPDEST PUSH2 0x17F PUSH2 0x3EA CALLDATASIZE PUSH1 0x4 PUSH2 0x2EF1 JUMP JUMPDEST PUSH2 0xCB5 JUMP JUMPDEST CALLVALUE DUP1 ISZERO PUSH2 0x3FB JUMPI PUSH1 0x0 DUP1 REVERT JUMPDEST POP PUSH2 0x41E PUSH2 0x40A CALLDATASIZE PUSH1 0x4 PUSH2 0x2D32 JUMP JUMPDEST PUSH1 0x0 SWAP1 DUP2 MSTORE PUSH1 0x4 PUSH1 0x20 MSTORE PUSH1 0x40 SWAP1 KECCAK256 SLOAD ISZERO ISZERO SWAP1 JUMP JUMPDEST PUSH1 0x40 MLOAD SWAP1 ISZERO ISZERO DUP2 MSTORE PUSH1 0x20 ADD PUSH2 0x189 JUMP JUMPDEST PUSH2 0x255 PUSH2 0x43C CALLDATASIZE PUSH1 0x4 PUSH2 0x2BE9 JUMP JUMPDEST PUSH2 0xD9A JUMP JUMPDEST PUSH2 0x255 PUSH2 0x44F CALLDATASIZE PUSH1 0x4 PUSH2 0x2F2B JUMP JUMPDEST PUSH2 0xED1 JUMP JUMPDEST CALLVALUE DUP1 ISZERO PUSH2 0x460 JUMPI PUSH1 0x0 DUP1 REVERT JUMPDEST POP PUSH2 0x1B2 PUSH2 0x46F CALLDATASIZE PUSH1 0x4 PUSH2 0x2BE9 JUMP JUMPDEST PUSH2 0xF76 JUMP JUMPDEST CALLVALUE DUP1 ISZERO PUSH2 0x480 JUMPI PUSH1 0x0 DUP1 REVERT JUMPDEST POP PUSH2 0x17F PUSH2 0xFAE JUMP JUMPDEST CALLVALUE DUP1 ISZERO PUSH2 0x495 JUMPI PUSH1 0x0 DUP1 REVERT JUMPDEST POP PUSH1 0x40 MLOAD PUSH1 0x1 PUSH1 0x1 PUSH1 0xA0 SHL SUB PUSH32 0x0 AND DUP2 MSTORE PUSH1 0x20 ADD PUSH2 0x189 JUMP JUMPDEST PUSH2 0x17F PUSH2 0x4DB CALLDATASIZE PUSH1 0x4 PUSH2 0x2F3D JUMP JUMPDEST PUSH2 0xFBD JUMP JUMPDEST PUSH1 0x0 TIMESTAMP DUP3 DUP3 JUMPDEST DUP2 DUP2 LT ISZERO PUSH2 0x519 JUMPI PUSH2 0x511 CALLER DUP8 DUP8 DUP5 DUP2 DUP2 LT PUSH2 0x504 JUMPI PUSH2 0x504 PUSH2 0x2F77 JUMP JUMPDEST SWAP1 POP PUSH1 0x20 MUL ADD CALLDATALOAD DUP6 PUSH2 0x1091 JUMP JUMPDEST PUSH1 0x1 ADD PUSH2 0x4E6 JUMP JUMPDEST POP SWAP1 SWAP2 POP POP JUMPDEST SWAP3 SWAP2 POP POP JUMP JUMPDEST PUSH1 0x60 PUSH1 0x2 DUP1 SLOAD PUSH2 0x534 SWAP1 PUSH2 0x2F8D JUMP JUMPDEST DUP1 PUSH1 0x1F ADD PUSH1 0x20 DUP1 SWAP2 DIV MUL PUSH1 0x20 ADD PUSH1 0x40 MLOAD SWAP1 DUP2 ADD PUSH1 0x40 MSTORE DUP1 SWAP3 SWAP2 SWAP1 DUP2 DUP2 MSTORE PUSH1 0x20 ADD DUP3 DUP1 SLOAD PUSH2 0x560 SWAP1 PUSH2 0x2F8D JUMP JUMPDEST DUP1 ISZERO PUSH2 0x5AD JUMPI DUP1 PUSH1 0x1F LT PUSH2 0x582 JUMPI PUSH2 0x100 DUP1 DUP4 SLOAD DIV MUL DUP4 MSTORE SWAP2 PUSH1 0x20 ADD SWAP2 PUSH2 0x5AD JUMP JUMPDEST DUP3 ADD SWAP2 SWAP1 PUSH1 0x0 MSTORE PUSH1 0x20 PUSH1 0x0 KECCAK256 SWAP1 JUMPDEST DUP2 SLOAD DUP2 MSTORE SWAP1 PUSH1 0x1 ADD SWAP1 PUSH1 0x20 ADD DUP1 DUP4 GT PUSH2 0x590 JUMPI DUP3 SWAP1 SUB PUSH1 0x1F AND DUP3 ADD SWAP2 JUMPDEST POP POP POP POP POP SWAP1 POP SWAP1 JUMP JUMPDEST PUSH1 0x60 PUSH1 0x0 DUP3 PUSH1 0x1 PUSH1 0x1 PUSH1 0x40 SHL SUB DUP2 GT ISZERO PUSH2 0x5D3 JUMPI PUSH2 0x5D3 PUSH2 0x2FC1 JUMP JUMPDEST PUSH1 0x40 MLOAD SWAP1 DUP1 DUP3 MSTORE DUP1 PUSH1 0x20 MUL PUSH1 0x20 ADD DUP3 ADD PUSH1 0x40 MSTORE DUP1 ISZERO PUSH2 0x606 JUMPI DUP2 PUSH1 0x20 ADD JUMPDEST PUSH1 0x60 DUP2 MSTORE PUSH1 0x20 ADD SWAP1 PUSH1 0x1 SWAP1 SUB SWAP1 DUP2 PUSH2 0x5F1 JUMPI SWAP1 POP JUMPDEST POP SWAP1 POP PUSH1 0x0 CALLVALUE DUP2 JUMPDEST DUP6 DUP2 LT ISZERO PUSH2 0x6BA JUMPI PUSH1 0x0 NOT DUP7 ADD DUP2 EQ CALLDATASIZE DUP9 DUP9 DUP5 DUP2 DUP2 LT PUSH2 0x630 JUMPI PUSH2 0x630 PUSH2 0x2F77 JUMP JUMPDEST SWAP1 POP PUSH1 0x20 MUL DUP2 ADD SWAP1 PUSH2 0x642 SWAP2 SWAP1 PUSH2 0x2FD7 JUMP JUMPDEST SWAP1 POP PUSH1 0x0 PUSH2 0x669 DUP3 CALLDATALOAD PUSH2 0x658 PUSH1 0x20 DUP6 ADD DUP6 PUSH2 0x2FF7 JUMP JUMPDEST PUSH2 0x661 SWAP2 PUSH2 0x320F JUMP JUMPDEST CALLER DUP9 DUP8 PUSH2 0x1144 JUMP JUMPDEST DUP1 MLOAD SWAP1 SWAP2 POP PUSH2 0x678 SWAP1 DUP7 PUSH2 0x3282 JUMP JUMPDEST SWAP5 POP DUP1 PUSH1 0x20 ADD MLOAD DUP8 DUP6 DUP2 MLOAD DUP2 LT PUSH2 0x691 JUMPI PUSH2 0x691 PUSH2 0x2F77 JUMP JUMPDEST PUSH1 0x20 MUL PUSH1 0x20 ADD ADD DUP2 SWAP1 MSTORE POP DUP1 PUSH1 0x20 ADD MLOAD MLOAD DUP7 ADD SWAP6 POP POP POP POP PUSH2 0x6B3 DUP2 PUSH1 0x1 ADD SWAP1 JUMP JUMPDEST SWAP1 POP PUSH2 0x60E JUMP JUMPDEST POP PUSH2 0x6C5 DUP4 DUP4 PUSH2 0x16A7 JUMP JUMPDEST SWAP7 SWAP6 POP POP POP POP POP POP JUMP JUMPDEST PUSH1 0x40 DUP1 MLOAD PUSH1 0x1 DUP1 DUP3 MSTORE DUP2 DUP4 ADD SWAP1 SWAP3 MSTORE PUSH1 0x0 SWAP2 DUP2 PUSH1 0x20 ADD JUMPDEST PUSH1 0x40 DUP1 MLOAD DUP1 DUP3 ADD SWAP1 SWAP2 MSTORE PUSH1 0x0 DUP1 DUP3 MSTORE PUSH1 0x20 DUP3 ADD MSTORE DUP2 MSTORE PUSH1 0x20 ADD SWAP1 PUSH1 0x1 SWAP1 SUB SWAP1 DUP2 PUSH2 0x6E6 JUMPI SWAP1 POP POP SWAP1 POP PUSH2 0x721 CALLDATASIZE DUP4 SWAP1 SUB DUP4 ADD PUSH1 0x20 DUP5 ADD PUSH2 0x32F1 JUMP JUMPDEST DUP2 PUSH1 0x0 DUP2 MLOAD DUP2 LT PUSH2 0x734 JUMPI PUSH2 0x734 PUSH2 0x2F77 JUMP JUMPDEST PUSH1 0x20 SWAP1 DUP2 MUL SWAP2 SWAP1 SWAP2 ADD ADD MSTORE PUSH2 0x74E DUP3 CALLDATALOAD DUP3 CALLER CALLVALUE PUSH1 0x1 PUSH2 0x1773 JUMP JUMPDEST POP POP POP JUMP JUMPDEST CALLVALUE PUSH1 0x0 JUMPDEST DUP3 DUP2 LT ISZERO PUSH2 0x817 JUMPI PUSH1 0x0 NOT DUP4 ADD DUP2 EQ CALLDATASIZE DUP6 DUP6 DUP5 DUP2 DUP2 LT PUSH2 0x779 JUMPI PUSH2 0x779 PUSH2 0x2F77 JUMP JUMPDEST SWAP1 POP PUSH1 0x20 MUL DUP2 ADD SWAP1 PUSH2 0x78B SWAP2 SWAP1 PUSH2 0x2FD7 JUMP JUMPDEST SWAP1 POP PUSH2 0x7F8 DUP2 CALLDATALOAD PUSH2 0x79F PUSH1 0x20 DUP5 ADD DUP5 PUSH2 0x330D JUMP JUMPDEST DUP1 DUP1 PUSH1 0x20 MUL PUSH1 0x20 ADD PUSH1 0x40 MLOAD SWAP1 DUP2 ADD PUSH1 0x40 MSTORE DUP1 SWAP4 SWAP3 SWAP2 SWAP1 DUP2 DUP2 MSTORE PUSH1 0x20 ADD PUSH1 0x0 SWAP1 JUMPDEST DUP3 DUP3 LT ISZERO PUSH2 0x7EB JUMPI PUSH2 0x7DC PUSH1 0x40 DUP4 MUL DUP7 ADD CALLDATASIZE DUP2 SWAP1 SUB DUP2 ADD SWAP1 PUSH2 0x32F1 JUMP JUMPDEST DUP2 MSTORE PUSH1 0x20 ADD SWAP1 PUSH1 0x1 ADD SWAP1 PUSH2 0x7BF JUMP JUMPDEST POP POP POP POP POP CALLER DUP8 DUP7 PUSH2 0x1773 JUMP JUMPDEST PUSH2 0x802 SWAP1 DUP6 PUSH2 0x3282 JUMP JUMPDEST SWAP4 POP POP POP PUSH2 0x810 DUP2 PUSH1 0x1 ADD SWAP1 JUMP JUMPDEST SWAP1 POP PUSH2 0x757 JUMP JUMPDEST POP POP POP POP JUMP JUMPDEST PUSH1 0x0 TIMESTAMP PUSH2 0x51F DUP4 DUP3 PUSH2 0x1BF5 JUMP JUMPDEST PUSH1 0x60 PUSH2 0x855 PUSH32 0x0 PUSH2 0x1C85 JUMP JUMPDEST PUSH2 0x87E PUSH32 0x0 PUSH2 0x1C85 JUMP JUMPDEST PUSH2 0x8A7 PUSH32 0x0 PUSH2 0x1C85 JUMP JUMPDEST PUSH1 0x40 MLOAD PUSH1 0x20 ADD PUSH2 0x8B9 SWAP4 SWAP3 SWAP2 SWAP1 PUSH2 0x3356 JUMP JUMPDEST PUSH1 0x40 MLOAD PUSH1 0x20 DUP2 DUP4 SUB SUB DUP2 MSTORE SWAP1 PUSH1 0x40 MSTORE SWAP1 POP SWAP1 JUMP JUMPDEST PUSH1 0x60 PUSH1 0x0 DUP3 PUSH1 0x1 PUSH1 0x1 PUSH1 0x40 SHL SUB DUP2 GT ISZERO PUSH2 0x8E9 JUMPI PUSH2 0x8E9 PUSH2 0x2FC1 JUMP JUMPDEST PUSH1 0x40 MLOAD SWAP1 DUP1 DUP3 MSTORE DUP1 PUSH1 0x20 MUL PUSH1 0x20 ADD DUP3 ADD PUSH1 0x40 MSTORE DUP1 ISZERO PUSH2 0x91C JUMPI DUP2 PUSH1 0x20 ADD JUMPDEST PUSH1 0x60 DUP2 MSTORE PUSH1 0x20 ADD SWAP1 PUSH1 0x1 SWAP1 SUB SWAP1 DUP2 PUSH2 0x907 JUMPI SWAP1 POP JUMPDEST POP SWAP1 POP PUSH1 0x0 CALLVALUE DUP2 JUMPDEST DUP6 DUP2 LT ISZERO PUSH2 0x6BA JUMPI PUSH1 0x0 NOT DUP7 ADD DUP2 EQ CALLDATASIZE DUP9 DUP9 DUP5 DUP2 DUP2 LT PUSH2 0x946 JUMPI PUSH2 0x946 PUSH2 0x2F77 JUMP JUMPDEST SWAP1 POP PUSH1 0x20 MUL DUP2 ADD SWAP1 PUSH2 0x958 SWAP2 SWAP1 PUSH2 0x33B0 JUMP JUMPDEST SWAP1 POP CALLDATASIZE PUSH1 0x0 PUSH2 0x96A PUSH1 0x20 DUP5 ADD DUP5 PUSH2 0x2FF7 JUMP JUMPDEST SWAP1 SWAP3 POP SWAP1 POP DUP1 ISZERO DUP1 PUSH2 0x98A JUMPI POP PUSH2 0x984 PUSH1 0x40 DUP5 ADD DUP5 PUSH2 0x33C6 JUMP JUMPDEST DUP3 EQ ISZERO SWAP1 POP JUMPDEST ISZERO PUSH2 0x9A8 JUMPI PUSH1 0x40 MLOAD PUSH4 0x251F56A1 PUSH1 0xE2 SHL DUP2 MSTORE PUSH1 0x4 ADD PUSH1 0x40 MLOAD DUP1 SWAP2 SUB SWAP1 REVERT JUMPDEST PUSH1 0x0 JUMPDEST DUP2 DUP2 LT ISZERO PUSH2 0xA5D JUMPI PUSH2 0xA55 PUSH1 0x40 MLOAD DUP1 PUSH1 0x80 ADD PUSH1 0x40 MSTORE DUP1 DUP7 PUSH1 0x0 ADD CALLDATALOAD DUP2 MSTORE PUSH1 0x20 ADD DUP6 DUP6 DUP6 DUP2 DUP2 LT PUSH2 0x9DD JUMPI PUSH2 0x9DD PUSH2 0x2F77 JUMP JUMPDEST SWAP1 POP PUSH1 0x20 MUL DUP2 ADD SWAP1 PUSH2 0x9EF SWAP2 SWAP1 PUSH2 0x340E JUMP JUMPDEST PUSH2 0x9F8 SWAP1 PUSH2 0x3424 JUMP JUMPDEST DUP2 MSTORE PUSH1 0x20 ADD PUSH2 0xA0A PUSH1 0x40 DUP9 ADD DUP9 PUSH2 0x33C6 JUMP JUMPDEST DUP6 DUP2 DUP2 LT PUSH2 0xA1A JUMPI PUSH2 0xA1A PUSH2 0x2F77 JUMP JUMPDEST SWAP1 POP PUSH1 0x60 MUL ADD DUP1 CALLDATASIZE SUB DUP2 ADD SWAP1 PUSH2 0xA30 SWAP2 SWAP1 PUSH2 0x349A JUMP JUMPDEST DUP2 MSTORE PUSH1 0x20 ADD PUSH2 0xA45 PUSH1 0x80 DUP9 ADD PUSH1 0x60 DUP10 ADD PUSH2 0x2CB9 JUMP JUMPDEST PUSH1 0x1 PUSH1 0x1 PUSH1 0xA0 SHL SUB AND SWAP1 MSTORE PUSH2 0x1D17 JUMP JUMPDEST PUSH1 0x1 ADD PUSH2 0x9AB JUMP JUMPDEST POP PUSH1 0x0 PUSH2 0xA86 DUP5 CALLDATALOAD PUSH2 0xA6F DUP5 DUP7 PUSH2 0x320F JUMP JUMPDEST PUSH2 0xA7F PUSH1 0x80 DUP9 ADD PUSH1 0x60 DUP10 ADD PUSH2 0x2CB9 JUMP JUMPDEST DUP11 DUP10 PUSH2 0x1144 JUMP JUMPDEST DUP1 MLOAD SWAP1 SWAP2 POP PUSH2 0xA95 SWAP1 DUP9 PUSH2 0x3282 JUMP JUMPDEST SWAP7 POP DUP1 PUSH1 0x20 ADD MLOAD DUP10 DUP8 DUP2 MLOAD DUP2 LT PUSH2 0xAAE JUMPI PUSH2 0xAAE PUSH2 0x2F77 JUMP JUMPDEST PUSH1 0x20 MUL PUSH1 0x20 ADD ADD DUP2 SWAP1 MSTORE POP DUP1 PUSH1 0x20 ADD MLOAD MLOAD DUP9 ADD SWAP8 POP POP POP POP POP POP PUSH2 0xAD2 DUP2 PUSH1 0x1 ADD SWAP1 JUMP JUMPDEST SWAP1 POP PUSH2 0x924 JUMP JUMPDEST PUSH1 0x0 PUSH1 0x60 DUP1 DUP3 DUP1 DUP1 DUP4 PUSH2 0xB0C PUSH32 0x0 DUP4 PUSH2 0x1E59 JUMP JUMPDEST PUSH2 0xB37 PUSH32 0x0 PUSH1 0x1 PUSH2 0x1E59 JUMP JUMPDEST PUSH1 0x40 DUP1 MLOAD PUSH1 0x0 DUP1 DUP3 MSTORE PUSH1 0x20 DUP3 ADD SWAP1 SWAP3 MSTORE PUSH1 0xF PUSH1 0xF8 SHL SWAP12 SWAP4 SWAP11 POP SWAP2 SWAP9 POP CHAINID SWAP8 POP ADDRESS SWAP7 POP SWAP5 POP SWAP3 POP SWAP1 POP JUMP JUMPDEST PUSH2 0xB69 PUSH2 0x2B48 JUMP JUMPDEST PUSH1 0x0 DUP3 DUP2 MSTORE PUSH1 0x4 PUSH1 0x20 DUP2 DUP2 MSTORE PUSH1 0x40 SWAP3 DUP4 SWAP1 KECCAK256 DUP4 MLOAD PUSH2 0x140 DUP2 ADD DUP6 MSTORE DUP2 SLOAD DUP2 MSTORE PUSH1 0x1 DUP3 ADD SLOAD SWAP3 DUP2 ADD SWAP3 SWAP1 SWAP3 MSTORE PUSH1 0x2 DUP2 ADD SLOAD PUSH1 0x1 PUSH1 0x1 PUSH1 0x40 SHL SUB DUP1 DUP3 AND SWAP6 DUP5 ADD SWAP6 SWAP1 SWAP6 MSTORE PUSH1 0x1 PUSH1 0x40 SHL DUP2 DIV DUP6 AND PUSH1 0x60 DUP5 ADD MSTORE PUSH1 0x1 PUSH1 0x80 SHL SWAP1 DIV SWAP1 SWAP4 AND PUSH1 0x80 DUP3 ADD MSTORE PUSH1 0x3 DUP4 ADD SLOAD PUSH1 0xA0 DUP3 ADD MSTORE SWAP1 DUP3 ADD SLOAD PUSH1 0x1 PUSH1 0x1 PUSH1 0xA0 SHL SUB SWAP1 DUP2 AND PUSH1 0xC0 DUP4 ADD MSTORE PUSH1 0x5 DUP4 ADD SLOAD SWAP1 DUP2 AND PUSH1 0xE0 DUP4 ADD MSTORE PUSH1 0x1 PUSH1 0xA0 SHL SWAP1 DIV PUSH1 0xFF AND ISZERO ISZERO PUSH2 0x100 DUP3 ADD MSTORE PUSH1 0x6 DUP3 ADD DUP1 SLOAD SWAP2 SWAP3 SWAP2 PUSH2 0x120 DUP5 ADD SWAP2 SWAP1 PUSH2 0xC1E SWAP1 PUSH2 0x2F8D JUMP JUMPDEST DUP1 PUSH1 0x1F ADD PUSH1 0x20 DUP1 SWAP2 DIV MUL PUSH1 0x20 ADD PUSH1 0x40 MLOAD SWAP1 DUP2 ADD PUSH1 0x40 MSTORE DUP1 SWAP3 SWAP2 SWAP1 DUP2 DUP2 MSTORE PUSH1 0x20 ADD DUP3 DUP1 SLOAD PUSH2 0xC4A SWAP1 PUSH2 0x2F8D JUMP JUMPDEST DUP1 ISZERO PUSH2 0xC97 JUMPI DUP1 PUSH1 0x1F LT PUSH2 0xC6C JUMPI PUSH2 0x100 DUP1 DUP4 SLOAD DIV MUL DUP4 MSTORE SWAP2 PUSH1 0x20 ADD SWAP2 PUSH2 0xC97 JUMP JUMPDEST DUP3 ADD SWAP2 SWAP1 PUSH1 0x0 MSTORE PUSH1 0x20 PUSH1 0x0 KECCAK256 SWAP1 JUMPDEST DUP2 SLOAD DUP2 MSTORE SWAP1 PUSH1 0x1 ADD SWAP1 PUSH1 0x20 ADD DUP1 DUP4 GT PUSH2 0xC7A JUMPI DUP3 SWAP1 SUB PUSH1 0x1F AND DUP3 ADD SWAP2 JUMPDEST POP POP POP POP POP DUP2 MSTORE POP POP SWAP1 POP SWAP2 SWAP1 POP JUMP JUMPDEST PUSH1 0x0 TIMESTAMP PUSH2 0x51F CALLER DUP5 DUP4 PUSH2 0x1091 JUMP JUMPDEST PUSH1 0x0 PUSH2 0xCC8 PUSH2 0xCC3 DUP4 PUSH2 0x34B6 JUMP JUMPDEST PUSH2 0x1D17 JUMP JUMPDEST PUSH1 0x40 DUP1 MLOAD PUSH1 0x1 DUP1 DUP3 MSTORE DUP2 DUP4 ADD SWAP1 SWAP3 MSTORE PUSH1 0x0 SWAP2 DUP2 PUSH1 0x20 ADD JUMPDEST PUSH1 0x40 DUP1 MLOAD PUSH1 0xC0 DUP2 ADD DUP3 MSTORE PUSH1 0x0 DUP1 DUP3 MSTORE PUSH1 0x20 DUP1 DUP4 ADD DUP3 SWAP1 MSTORE SWAP3 DUP3 ADD DUP2 SWAP1 MSTORE PUSH1 0x60 DUP1 DUP4 ADD DUP3 SWAP1 MSTORE PUSH1 0x80 DUP4 ADD MSTORE PUSH1 0xA0 DUP3 ADD MSTORE DUP3 MSTORE PUSH1 0x0 NOT SWAP1 SWAP3 ADD SWAP2 ADD DUP2 PUSH2 0xCDF JUMPI SWAP1 POP POP SWAP1 POP PUSH2 0xD2F PUSH1 0x20 DUP5 ADD DUP5 PUSH2 0x340E JUMP JUMPDEST PUSH2 0xD38 SWAP1 PUSH2 0x3424 JUMP JUMPDEST DUP2 PUSH1 0x0 DUP2 MLOAD DUP2 LT PUSH2 0xD4B JUMPI PUSH2 0xD4B PUSH2 0x2F77 JUMP JUMPDEST PUSH1 0x20 SWAP1 DUP2 MUL SWAP2 SWAP1 SWAP2 ADD ADD MSTORE PUSH2 0xD74 DUP4 CALLDATALOAD DUP3 PUSH2 0xD6C PUSH1 0xC0 DUP8 ADD PUSH1 0xA0 DUP9 ADD PUSH2 0x2CB9 JUMP JUMPDEST CALLVALUE PUSH1 0x1 PUSH2 0x1144 JUMP JUMPDEST PUSH1 0x20 ADD MLOAD PUSH1 0x0 DUP2 MLOAD DUP2 LT PUSH2 0xD8A JUMPI PUSH2 0xD8A PUSH2 0x2F77 JUMP JUMPDEST PUSH1 0x20 MUL PUSH1 0x20 ADD ADD MLOAD SWAP2 POP POP SWAP2 SWAP1 POP JUMP JUMPDEST CALLVALUE PUSH1 0x0 JUMPDEST DUP3 DUP2 LT ISZERO PUSH2 0x817 JUMPI PUSH1 0x0 NOT DUP4 ADD DUP2 EQ PUSH1 0x0 DUP6 DUP6 DUP5 DUP2 DUP2 LT PUSH2 0xDC1 JUMPI PUSH2 0xDC1 PUSH2 0x2F77 JUMP JUMPDEST SWAP1 POP PUSH1 0x20 MUL DUP2 ADD SWAP1 PUSH2 0xDD3 SWAP2 SWAP1 PUSH2 0x33B0 JUMP JUMPDEST PUSH2 0xDDC SWAP1 PUSH2 0x359A JUMP JUMPDEST PUSH1 0x20 DUP2 ADD MLOAD DUP1 MLOAD SWAP2 SWAP3 POP SWAP1 ISZERO DUP1 PUSH2 0xDF9 JUMPI POP DUP2 PUSH1 0x40 ADD MLOAD MLOAD DUP2 MLOAD EQ ISZERO JUMPDEST ISZERO PUSH2 0xE17 JUMPI PUSH1 0x40 MLOAD PUSH4 0x251F56A1 PUSH1 0xE2 SHL DUP2 MSTORE PUSH1 0x4 ADD PUSH1 0x40 MLOAD DUP1 SWAP2 SUB SWAP1 REVERT JUMPDEST PUSH1 0x0 JUMPDEST DUP2 MLOAD DUP2 LT ISZERO PUSH2 0xE9B JUMPI PUSH2 0xE93 PUSH1 0x40 MLOAD DUP1 PUSH1 0x80 ADD PUSH1 0x40 MSTORE DUP1 DUP6 PUSH1 0x0 ADD MLOAD DUP2 MSTORE PUSH1 0x20 ADD DUP5 DUP5 DUP2 MLOAD DUP2 LT PUSH2 0xE4D JUMPI PUSH2 0xE4D PUSH2 0x2F77 JUMP JUMPDEST PUSH1 0x20 MUL PUSH1 0x20 ADD ADD MLOAD DUP2 MSTORE PUSH1 0x20 ADD DUP6 PUSH1 0x40 ADD MLOAD DUP5 DUP2 MLOAD DUP2 LT PUSH2 0xE70 JUMPI PUSH2 0xE70 PUSH2 0x2F77 JUMP JUMPDEST PUSH1 0x20 MUL PUSH1 0x20 ADD ADD MLOAD DUP2 MSTORE PUSH1 0x20 ADD DUP6 PUSH1 0x60 ADD MLOAD PUSH1 0x1 PUSH1 0x1 PUSH1 0xA0 SHL SUB AND DUP2 MSTORE POP PUSH2 0x1EFD JUMP JUMPDEST PUSH1 0x1 ADD PUSH2 0xE1A JUMP JUMPDEST POP PUSH2 0xEB1 DUP3 PUSH1 0x0 ADD MLOAD DUP3 DUP5 PUSH1 0x60 ADD MLOAD DUP9 DUP8 PUSH2 0x1773 JUMP JUMPDEST PUSH2 0xEBB SWAP1 DUP7 PUSH2 0x3282 JUMP JUMPDEST SWAP5 POP POP POP POP PUSH2 0xECA DUP2 PUSH1 0x1 ADD SWAP1 JUMP JUMPDEST SWAP1 POP PUSH2 0xD9E JUMP JUMPDEST PUSH2 0xEE8 PUSH2 0xEE3 CALLDATASIZE DUP4 SWAP1 SUB DUP4 ADD DUP4 PUSH2 0x3678 JUMP JUMPDEST PUSH2 0x1EFD JUMP JUMPDEST PUSH1 0x40 DUP1 MLOAD PUSH1 0x1 DUP1 DUP3 MSTORE DUP2 DUP4 ADD SWAP1 SWAP3 MSTORE PUSH1 0x0 SWAP2 DUP2 PUSH1 0x20 ADD JUMPDEST PUSH1 0x40 DUP1 MLOAD DUP1 DUP3 ADD SWAP1 SWAP2 MSTORE PUSH1 0x0 DUP1 DUP3 MSTORE PUSH1 0x20 DUP3 ADD MSTORE DUP2 MSTORE PUSH1 0x20 ADD SWAP1 PUSH1 0x1 SWAP1 SUB SWAP1 DUP2 PUSH2 0xEFF JUMPI SWAP1 POP POP SWAP1 POP PUSH2 0xF3A CALLDATASIZE DUP4 SWAP1 SUB DUP4 ADD PUSH1 0x20 DUP5 ADD PUSH2 0x32F1 JUMP JUMPDEST DUP2 PUSH1 0x0 DUP2 MLOAD DUP2 LT PUSH2 0xF4D JUMPI PUSH2 0xF4D PUSH2 0x2F77 JUMP JUMPDEST PUSH1 0x20 SWAP1 DUP2 MUL SWAP2 SWAP1 SWAP2 ADD ADD MSTORE PUSH2 0x74E DUP3 CALLDATALOAD DUP3 PUSH2 0xF6E PUSH1 0xE0 DUP7 ADD PUSH1 0xC0 DUP8 ADD PUSH2 0x2CB9 JUMP JUMPDEST CALLVALUE PUSH1 0x1 PUSH2 0x1773 JUMP JUMPDEST PUSH1 0x0 TIMESTAMP DUP3 DUP3 JUMPDEST DUP2 DUP2 LT ISZERO PUSH2 0x519 JUMPI PUSH2 0xFA6 DUP7 DUP7 DUP4 DUP2 DUP2 LT PUSH2 0xF99 JUMPI PUSH2 0xF99 PUSH2 0x2F77 JUMP JUMPDEST SWAP1 POP PUSH1 0x20 MUL ADD CALLDATALOAD DUP5 PUSH2 0x1BF5 JUMP JUMPDEST PUSH1 0x1 ADD PUSH2 0xF7C JUMP JUMPDEST PUSH1 0x0 PUSH2 0xFB8 PUSH2 0x1F7F JUMP JUMPDEST SWAP1 POP SWAP1 JUMP JUMPDEST PUSH1 0x40 DUP1 MLOAD PUSH1 0x1 DUP1 DUP3 MSTORE DUP2 DUP4 ADD SWAP1 SWAP3 MSTORE PUSH1 0x0 SWAP2 DUP3 SWAP2 SWAP1 DUP2 PUSH1 0x20 ADD JUMPDEST PUSH1 0x40 DUP1 MLOAD PUSH1 0xC0 DUP2 ADD DUP3 MSTORE PUSH1 0x0 DUP1 DUP3 MSTORE PUSH1 0x20 DUP1 DUP4 ADD DUP3 SWAP1 MSTORE SWAP3 DUP3 ADD DUP2 SWAP1 MSTORE PUSH1 0x60 DUP1 DUP4 ADD DUP3 SWAP1 MSTORE PUSH1 0x80 DUP4 ADD MSTORE PUSH1 0xA0 DUP3 ADD MSTORE DUP3 MSTORE PUSH1 0x0 NOT SWAP1 SWAP3 ADD SWAP2 ADD DUP2 PUSH2 0xFD7 JUMPI SWAP1 POP POP SWAP1 POP PUSH2 0x1027 PUSH1 0x20 DUP5 ADD DUP5 PUSH2 0x340E JUMP JUMPDEST PUSH2 0x1030 SWAP1 PUSH2 0x3424 JUMP JUMPDEST DUP2 PUSH1 0x0 DUP2 MLOAD DUP2 LT PUSH2 0x1043 JUMPI PUSH2 0x1043 PUSH2 0x2F77 JUMP JUMPDEST PUSH1 0x20 SWAP1 DUP2 MUL SWAP2 SWAP1 SWAP2 ADD ADD MSTORE PUSH2 0xD74 DUP4 CALLDATALOAD DUP3 CALLER CALLVALUE PUSH1 0x1 PUSH2 0x1144 JUMP JUMPDEST PUSH1 0x0 PUSH1 0x20 DUP4 MLOAD LT ISZERO PUSH2 0x1079 JUMPI PUSH2 0x1072 DUP4 PUSH2 0x20AA JUMP JUMPDEST SWAP1 POP PUSH2 0x51F JUMP JUMPDEST DUP2 PUSH2 0x1084 DUP5 DUP3 PUSH2 0x3722 JUMP JUMPDEST POP PUSH1 0xFF SWAP1 POP PUSH2 0x51F JUMP JUMPDEST SWAP1 JUMP JUMPDEST PUSH1 0x1 PUSH1 0x1 PUSH1 0xA0 SHL SUB DUP4 AND PUSH1 0x0 SWAP1 DUP2 MSTORE PUSH1 0x6 PUSH1 0x20 SWAP1 DUP2 MSTORE PUSH1 0x40 DUP1 DUP4 KECCAK256 DUP6 DUP5 MSTORE SWAP2 DUP3 SWAP1 MSTORE SWAP1 SWAP2 KECCAK256 SLOAD PUSH1 0x1 PUSH1 0x1 PUSH1 0x40 SHL SUB AND ISZERO PUSH2 0x10DE JUMPI PUSH1 0x40 MLOAD PUSH4 0xEC9D6EEB PUSH1 0xE0 SHL DUP2 MSTORE PUSH1 0x4 ADD PUSH1 0x40 MLOAD DUP1 SWAP2 SUB SWAP1 REVERT JUMPDEST PUSH1 0x0 DUP4 DUP2 MSTORE PUSH1 0x20 DUP3 SWAP1 MSTORE PUSH1 0x40 DUP1 DUP3 KECCAK256 DUP1 SLOAD PUSH8 0xFFFFFFFFFFFFFFFF NOT AND PUSH1 0x1 PUSH1 0x1 PUSH1 0x40 SHL SUB DUP7 AND SWAP1 DUP2 OR SWAP1 SWAP2 SSTORE SWAP1 MLOAD SWAP1 SWAP2 DUP6 SWAP2 PUSH1 0x1 PUSH1 0x1 PUSH1 0xA0 SHL SUB DUP9 AND SWAP2 PUSH32 0x92A1F7A41A7C585A8B09E25B195E225B1D43248DACA46B0FAF9E0792777A2229 SWAP2 LOG4 POP POP POP POP JUMP JUMPDEST PUSH1 0x40 DUP1 MLOAD DUP1 DUP3 ADD SWAP1 SWAP2 MSTORE PUSH1 0x0 DUP2 MSTORE PUSH1 0x60 PUSH1 0x20 DUP3 ADD MSTORE DUP5 MLOAD PUSH1 0x40 DUP1 MLOAD DUP1 DUP3 ADD SWAP1 SWAP2 MSTORE PUSH1 0x0 DUP2 MSTORE PUSH1 0x60 PUSH1 0x20 DUP3 ADD MSTORE DUP2 PUSH1 0x1 PUSH1 0x1 PUSH1 0x40 SHL SUB DUP2 GT ISZERO PUSH2 0x1188 JUMPI PUSH2 0x1188 PUSH2 0x2FC1 JUMP JUMPDEST PUSH1 0x40 MLOAD SWAP1 DUP1 DUP3 MSTORE DUP1 PUSH1 0x20 MUL PUSH1 0x20 ADD DUP3 ADD PUSH1 0x40 MSTORE DUP1 ISZERO PUSH2 0x11B1 JUMPI DUP2 PUSH1 0x20 ADD PUSH1 0x20 DUP3 MUL DUP1 CALLDATASIZE DUP4 CALLDATACOPY ADD SWAP1 POP JUMPDEST POP PUSH1 0x20 DUP3 ADD MSTORE PUSH1 0x40 MLOAD PUSH4 0x51753E37 PUSH1 0xE1 SHL DUP2 MSTORE PUSH1 0x4 DUP2 ADD DUP10 SWAP1 MSTORE PUSH1 0x0 SWAP1 PUSH32 0x0 PUSH1 0x1 PUSH1 0x1 PUSH1 0xA0 SHL SUB AND SWAP1 PUSH4 0xA2EA7C6E SWAP1 PUSH1 0x24 ADD PUSH1 0x0 PUSH1 0x40 MLOAD DUP1 DUP4 SUB DUP2 DUP7 GAS STATICCALL ISZERO DUP1 ISZERO PUSH2 0x121F JUMPI RETURNDATASIZE PUSH1 0x0 DUP1 RETURNDATACOPY RETURNDATASIZE PUSH1 0x0 REVERT JUMPDEST POP POP POP POP PUSH1 0x40 MLOAD RETURNDATASIZE PUSH1 0x0 DUP3 RETURNDATACOPY PUSH1 0x1F RETURNDATASIZE SWAP1 DUP2 ADD PUSH1 0x1F NOT AND DUP3 ADD PUSH1 0x40 MSTORE PUSH2 0x1247 SWAP2 SWAP1 DUP2 ADD SWAP1 PUSH2 0x37E1 JUMP JUMPDEST DUP1 MLOAD SWAP1 SWAP2 POP PUSH2 0x1269 JUMPI PUSH1 0x40 MLOAD PUSH4 0x5F9BD907 PUSH1 0xE1 SHL DUP2 MSTORE PUSH1 0x4 ADD PUSH1 0x40 MLOAD DUP1 SWAP2 SUB SWAP1 REVERT JUMPDEST PUSH1 0x0 DUP4 PUSH1 0x1 PUSH1 0x1 PUSH1 0x40 SHL SUB DUP2 GT ISZERO PUSH2 0x1283 JUMPI PUSH2 0x1283 PUSH2 0x2FC1 JUMP JUMPDEST PUSH1 0x40 MLOAD SWAP1 DUP1 DUP3 MSTORE DUP1 PUSH1 0x20 MUL PUSH1 0x20 ADD DUP3 ADD PUSH1 0x40 MSTORE DUP1 ISZERO PUSH2 0x12BC JUMPI DUP2 PUSH1 0x20 ADD JUMPDEST PUSH2 0x12A9 PUSH2 0x2B48 JUMP JUMPDEST DUP2 MSTORE PUSH1 0x20 ADD SWAP1 PUSH1 0x1 SWAP1 SUB SWAP1 DUP2 PUSH2 0x12A1 JUMPI SWAP1 POP JUMPDEST POP SWAP1 POP PUSH1 0x0 DUP5 PUSH1 0x1 PUSH1 0x1 PUSH1 0x40 SHL SUB DUP2 GT ISZERO PUSH2 0x12D9 JUMPI PUSH2 0x12D9 PUSH2 0x2FC1 JUMP JUMPDEST PUSH1 0x40 MLOAD SWAP1 DUP1 DUP3 MSTORE DUP1 PUSH1 0x20 MUL PUSH1 0x20 ADD DUP3 ADD PUSH1 0x40 MSTORE DUP1 ISZERO PUSH2 0x1302 JUMPI DUP2 PUSH1 0x20 ADD PUSH1 0x20 DUP3 MUL DUP1 CALLDATASIZE DUP4 CALLDATACOPY ADD SWAP1 POP JUMPDEST POP SWAP1 POP PUSH1 0x0 JUMPDEST DUP6 DUP2 LT ISZERO PUSH2 0x1686 JUMPI PUSH1 0x0 DUP12 DUP3 DUP2 MLOAD DUP2 LT PUSH2 0x1324 JUMPI PUSH2 0x1324 PUSH2 0x2F77 JUMP JUMPDEST PUSH1 0x20 MUL PUSH1 0x20 ADD ADD MLOAD SWAP1 POP PUSH1 0x0 PUSH1 0x1 PUSH1 0x1 PUSH1 0x40 SHL SUB AND DUP2 PUSH1 0x20 ADD MLOAD PUSH1 0x1 PUSH1 0x1 PUSH1 0x40 SHL SUB AND EQ ISZERO DUP1 ISZERO PUSH2 0x136B JUMPI POP TIMESTAMP PUSH1 0x1 PUSH1 0x1 PUSH1 0x40 SHL SUB AND DUP2 PUSH1 0x20 ADD MLOAD PUSH1 0x1 PUSH1 0x1 PUSH1 0x40 SHL SUB AND GT ISZERO JUMPDEST ISZERO PUSH2 0x1389 JUMPI PUSH1 0x40 MLOAD PUSH4 0x8E8B937 PUSH1 0xE0 SHL DUP2 MSTORE PUSH1 0x4 ADD PUSH1 0x40 MLOAD DUP1 SWAP2 SUB SWAP1 REVERT JUMPDEST DUP5 PUSH1 0x40 ADD MLOAD ISZERO DUP1 ISZERO PUSH2 0x139C JUMPI POP DUP1 PUSH1 0x40 ADD MLOAD JUMPDEST ISZERO PUSH2 0x13BA JUMPI PUSH1 0x40 MLOAD PUSH4 0x157BD4C3 PUSH1 0xE0 SHL DUP2 MSTORE PUSH1 0x4 ADD PUSH1 0x40 MLOAD DUP1 SWAP2 SUB SWAP1 REVERT JUMPDEST PUSH1 0x0 PUSH1 0x40 MLOAD DUP1 PUSH2 0x140 ADD PUSH1 0x40 MSTORE DUP1 PUSH1 0x0 DUP1 SHL DUP2 MSTORE PUSH1 0x20 ADD DUP16 DUP2 MSTORE PUSH1 0x20 ADD PUSH2 0x13DE TIMESTAMP SWAP1 JUMP JUMPDEST PUSH1 0x1 PUSH1 0x1 PUSH1 0x40 SHL SUB AND DUP2 MSTORE PUSH1 0x20 ADD DUP4 PUSH1 0x20 ADD MLOAD PUSH1 0x1 PUSH1 0x1 PUSH1 0x40 SHL SUB AND DUP2 MSTORE PUSH1 0x20 ADD PUSH1 0x0 PUSH1 0x1 PUSH1 0x1 PUSH1 0x40 SHL SUB AND DUP2 MSTORE PUSH1 0x20 ADD DUP4 PUSH1 0x60 ADD MLOAD DUP2 MSTORE PUSH1 0x20 ADD DUP4 PUSH1 0x0 ADD MLOAD PUSH1 0x1 PUSH1 0x1 PUSH1 0xA0 SHL SUB AND DUP2 MSTORE PUSH1 0x20 ADD DUP14 PUSH1 0x1 PUSH1 0x1 PUSH1 0xA0 SHL SUB AND DUP2 MSTORE PUSH1 0x20 ADD DUP4 PUSH1 0x40 ADD MLOAD ISZERO ISZERO DUP2 MSTORE PUSH1 0x20 ADD DUP4 PUSH1 0x80 ADD MLOAD DUP2 MSTORE POP SWAP1 POP PUSH1 0x0 DUP1 PUSH1 0x0 SWAP1 POP JUMPDEST PUSH2 0x1463 DUP4 DUP3 PUSH2 0x20F1 JUMP JUMPDEST PUSH1 0x0 DUP2 DUP2 MSTORE PUSH1 0x4 PUSH1 0x20 MSTORE PUSH1 0x40 SWAP1 KECCAK256 SLOAD SWAP1 SWAP3 POP ISZERO PUSH2 0x1482 JUMPI PUSH1 0x1 ADD PUSH2 0x1459 JUMP JUMPDEST DUP2 DUP4 MSTORE PUSH1 0x0 DUP3 DUP2 MSTORE PUSH1 0x4 PUSH1 0x20 DUP2 DUP2 MSTORE PUSH1 0x40 SWAP3 DUP4 SWAP1 KECCAK256 DUP7 MLOAD DUP2 SSTORE SWAP1 DUP7 ADD MLOAD PUSH1 0x1 DUP3 ADD SSTORE SWAP2 DUP6 ADD MLOAD PUSH1 0x2 DUP4 ADD DUP1 SLOAD PUSH1 0x60 DUP9 ADD MLOAD PUSH1 0x80 DUP10 ADD MLOAD PUSH1 0x1 PUSH1 0x1 PUSH1 0x40 SHL SUB SWAP1 DUP2 AND PUSH1 0x1 PUSH1 0x80 SHL MUL PUSH8 0xFFFFFFFFFFFFFFFF PUSH1 0x80 SHL NOT SWAP3 DUP3 AND PUSH1 0x1 PUSH1 0x40 SHL MUL PUSH16 0xFFFFFFFFFFFFFFFFFFFFFFFFFFFFFFFF NOT SWAP1 SWAP5 AND SWAP2 SWAP1 SWAP6 AND OR SWAP2 SWAP1 SWAP2 OR AND SWAP2 SWAP1 SWAP2 OR SWAP1 SSTORE PUSH1 0xA0 DUP6 ADD MLOAD PUSH1 0x3 DUP4 ADD SSTORE PUSH1 0xC0 DUP6 ADD MLOAD SWAP1 DUP3 ADD DUP1 SLOAD PUSH1 0x1 PUSH1 0x1 PUSH1 0xA0 SHL SUB SWAP3 DUP4 AND PUSH1 0x1 PUSH1 0x1 PUSH1 0xA0 SHL SUB NOT SWAP1 SWAP2 AND OR SWAP1 SSTORE PUSH1 0xE0 DUP6 ADD MLOAD PUSH1 0x5 DUP4 ADD DUP1 SLOAD PUSH2 0x100 DUP9 ADD MLOAD ISZERO ISZERO PUSH1 0x1 PUSH1 0xA0 SHL MUL PUSH1 0x1 PUSH1 0x1 PUSH1 0xA8 SHL SUB NOT SWAP1 SWAP2 AND SWAP3 SWAP1 SWAP4 AND SWAP2 SWAP1 SWAP2 OR SWAP2 SWAP1 SWAP2 OR SWAP1 SSTORE PUSH2 0x120 DUP5 ADD MLOAD DUP5 SWAP2 SWAP1 PUSH1 0x6 DUP3 ADD SWAP1 PUSH2 0x157D SWAP1 DUP3 PUSH2 0x3722 JUMP JUMPDEST POP POP POP PUSH1 0x60 DUP5 ADD MLOAD ISZERO PUSH2 0x15BB JUMPI PUSH1 0x60 DUP5 ADD MLOAD PUSH1 0x0 SWAP1 DUP2 MSTORE PUSH1 0x4 PUSH1 0x20 MSTORE PUSH1 0x40 SWAP1 KECCAK256 SLOAD PUSH2 0x15BB JUMPI PUSH1 0x40 MLOAD PUSH4 0xC5723B51 PUSH1 0xE0 SHL DUP2 MSTORE PUSH1 0x4 ADD PUSH1 0x40 MLOAD DUP1 SWAP2 SUB SWAP1 REVERT JUMPDEST DUP3 DUP8 DUP7 DUP2 MLOAD DUP2 LT PUSH2 0x15CE JUMPI PUSH2 0x15CE PUSH2 0x2F77 JUMP JUMPDEST PUSH1 0x20 MUL PUSH1 0x20 ADD ADD DUP2 SWAP1 MSTORE POP DUP4 PUSH1 0xA0 ADD MLOAD DUP7 DUP7 DUP2 MLOAD DUP2 LT PUSH2 0x15F0 JUMPI PUSH2 0x15F0 PUSH2 0x2F77 JUMP JUMPDEST PUSH1 0x20 MUL PUSH1 0x20 ADD ADD DUP2 DUP2 MSTORE POP POP DUP2 DUP10 PUSH1 0x20 ADD MLOAD DUP7 DUP2 MLOAD DUP2 LT PUSH2 0x1613 JUMPI PUSH2 0x1613 PUSH2 0x2F77 JUMP JUMPDEST PUSH1 0x20 MUL PUSH1 0x20 ADD ADD DUP2 DUP2 MSTORE POP POP DUP16 DUP15 PUSH1 0x1 PUSH1 0x1 PUSH1 0xA0 SHL SUB AND DUP6 PUSH1 0x0 ADD MLOAD PUSH1 0x1 PUSH1 0x1 PUSH1 0xA0 SHL SUB AND PUSH32 0x8BF46BF4CFD674FA735A3D63EC1C9AD4153F033C290341F3A588B75685141B35 DUP6 PUSH1 0x40 MLOAD PUSH2 0x1669 SWAP2 DUP2 MSTORE PUSH1 0x20 ADD SWAP1 JUMP JUMPDEST PUSH1 0x40 MLOAD DUP1 SWAP2 SUB SWAP1 LOG4 POP POP POP POP PUSH2 0x167F DUP2 PUSH1 0x1 ADD SWAP1 JUMP JUMPDEST SWAP1 POP PUSH2 0x1308 JUMP JUMPDEST POP PUSH2 0x1696 DUP4 DUP4 DUP4 PUSH1 0x0 DUP13 DUP13 PUSH2 0x2150 JUMP JUMPDEST DUP5 MSTORE POP SWAP2 SWAP10 SWAP9 POP POP POP POP POP POP POP POP POP JUMP JUMPDEST PUSH1 0x60 PUSH1 0x0 DUP3 PUSH1 0x1 PUSH1 0x1 PUSH1 0x40 SHL SUB DUP2 GT ISZERO PUSH2 0x16C3 JUMPI PUSH2 0x16C3 PUSH2 0x2FC1 JUMP JUMPDEST PUSH1 0x40 MLOAD SWAP1 DUP1 DUP3 MSTORE DUP1 PUSH1 0x20 MUL PUSH1 0x20 ADD DUP3 ADD PUSH1 0x40 MSTORE DUP1 ISZERO PUSH2 0x16EC JUMPI DUP2 PUSH1 0x20 ADD PUSH1 0x20 DUP3 MUL DUP1 CALLDATASIZE DUP4 CALLDATACOPY ADD SWAP1 POP JUMPDEST POP SWAP1 POP PUSH1 0x0 DUP1 JUMPDEST DUP6 MLOAD DUP2 LT ISZERO PUSH2 0x519 JUMPI PUSH1 0x0 DUP7 DUP3 DUP2 MLOAD DUP2 LT PUSH2 0x1710 JUMPI PUSH2 0x1710 PUSH2 0x2F77 JUMP JUMPDEST PUSH1 0x20 MUL PUSH1 0x20 ADD ADD MLOAD SWAP1 POP PUSH1 0x0 JUMPDEST DUP2 MLOAD DUP2 LT ISZERO PUSH2 0x1769 JUMPI DUP2 DUP2 DUP2 MLOAD DUP2 LT PUSH2 0x1738 JUMPI PUSH2 0x1738 PUSH2 0x2F77 JUMP JUMPDEST PUSH1 0x20 MUL PUSH1 0x20 ADD ADD MLOAD DUP6 DUP6 DUP2 MLOAD DUP2 LT PUSH2 0x1752 JUMPI PUSH2 0x1752 PUSH2 0x2F77 JUMP JUMPDEST PUSH1 0x20 SWAP1 DUP2 MUL SWAP2 SWAP1 SWAP2 ADD ADD MSTORE PUSH1 0x1 SWAP4 DUP5 ADD SWAP4 ADD PUSH2 0x171D JUMP JUMPDEST POP POP PUSH1 0x1 ADD PUSH2 0x16F3 JUMP JUMPDEST PUSH1 0x40 MLOAD PUSH4 0x51753E37 PUSH1 0xE1 SHL DUP2 MSTORE PUSH1 0x4 DUP2 ADD DUP7 SWAP1 MSTORE PUSH1 0x0 SWAP1 DUP2 SWAP1 PUSH1 0x1 PUSH1 0x1 PUSH1 0xA0 SHL SUB PUSH32 0x0 AND SWAP1 PUSH4 0xA2EA7C6E SWAP1 PUSH1 0x24 ADD PUSH1 0x0 PUSH1 0x40 MLOAD DUP1 DUP4 SUB DUP2 DUP7 GAS STATICCALL ISZERO DUP1 ISZERO PUSH2 0x17DD JUMPI RETURNDATASIZE PUSH1 0x0 DUP1 RETURNDATACOPY RETURNDATASIZE PUSH1 0x0 REVERT JUMPDEST POP POP POP POP PUSH1 0x40 MLOAD RETURNDATASIZE PUSH1 0x0 DUP3 RETURNDATACOPY PUSH1 0x1F RETURNDATASIZE SWAP1 DUP2 ADD PUSH1 0x1F NOT AND DUP3 ADD PUSH1 0x40 MSTORE PUSH2 0x1805 SWAP2 SWAP1 DUP2 ADD SWAP1 PUSH2 0x37E1 JUMP JUMPDEST DUP1 MLOAD SWAP1 SWAP2 POP PUSH2 0x1827 JUMPI PUSH1 0x40 MLOAD PUSH4 0x5F9BD907 PUSH1 0xE1 SHL DUP2 MSTORE PUSH1 0x4 ADD PUSH1 0x40 MLOAD DUP1 SWAP2 SUB SWAP1 REVERT JUMPDEST DUP6 MLOAD PUSH1 0x0 DUP2 PUSH1 0x1 PUSH1 0x1 PUSH1 0x40 SHL SUB DUP2 GT ISZERO PUSH2 0x1843 JUMPI PUSH2 0x1843 PUSH2 0x2FC1 JUMP JUMPDEST PUSH1 0x40 MLOAD SWAP1 DUP1 DUP3 MSTORE DUP1 PUSH1 0x20 MUL PUSH1 0x20 ADD DUP3 ADD PUSH1 0x40 MSTORE DUP1 ISZERO PUSH2 0x187C JUMPI DUP2 PUSH1 0x20 ADD JUMPDEST PUSH2 0x1869 PUSH2 0x2B48 JUMP JUMPDEST DUP2 MSTORE PUSH1 0x20 ADD SWAP1 PUSH1 0x1 SWAP1 SUB SWAP1 DUP2 PUSH2 0x1861 JUMPI SWAP1 POP JUMPDEST POP SWAP1 POP PUSH1 0x0 DUP3 PUSH1 0x1 PUSH1 0x1 PUSH1 0x40 SHL SUB DUP2 GT ISZERO PUSH2 0x1899 JUMPI PUSH2 0x1899 PUSH2 0x2FC1 JUMP JUMPDEST PUSH1 0x40 MLOAD SWAP1 DUP1 DUP3 MSTORE DUP1 PUSH1 0x20 MUL PUSH1 0x20 ADD DUP3 ADD PUSH1 0x40 MSTORE DUP1 ISZERO PUSH2 0x18C2 JUMPI DUP2 PUSH1 0x20 ADD PUSH1 0x20 DUP3 MUL DUP1 CALLDATASIZE DUP4 CALLDATACOPY ADD SWAP1 POP JUMPDEST POP SWAP1 POP PUSH1 0x0 JUMPDEST DUP4 DUP2 LT ISZERO PUSH2 0x1BD7 JUMPI PUSH1 0x0 DUP11 DUP3 DUP2 MLOAD DUP2 LT PUSH2 0x18E4 JUMPI PUSH2 0x18E4 PUSH2 0x2F77 JUMP JUMPDEST PUSH1 0x20 SWAP1 DUP2 MUL SWAP2 SWAP1 SWAP2 ADD DUP2 ADD MLOAD DUP1 MLOAD PUSH1 0x0 SWAP1 DUP2 MSTORE PUSH1 0x4 SWAP1 SWAP3 MSTORE PUSH1 0x40 SWAP1 SWAP2 KECCAK256 DUP1 SLOAD SWAP2 SWAP3 POP SWAP1 PUSH2 0x1924 JUMPI PUSH1 0x40 MLOAD PUSH4 0xC5723B51 PUSH1 0xE0 SHL DUP2 MSTORE PUSH1 0x4 ADD PUSH1 0x40 MLOAD DUP1 SWAP2 SUB SWAP1 REVERT JUMPDEST DUP13 DUP2 PUSH1 0x1 ADD SLOAD EQ PUSH2 0x1948 JUMPI PUSH1 0x40 MLOAD PUSH4 0x5F9BD907 PUSH1 0xE1 SHL DUP2 MSTORE PUSH1 0x4 ADD PUSH1 0x40 MLOAD DUP1 SWAP2 SUB SWAP1 REVERT JUMPDEST PUSH1 0x5 DUP2 ADD SLOAD PUSH1 0x1 PUSH1 0x1 PUSH1 0xA0 SHL SUB DUP13 DUP2 AND SWAP2 AND EQ PUSH2 0x1978 JUMPI PUSH1 0x40 MLOAD PUSH4 0x4CA88867 PUSH1 0xE0 SHL DUP2 MSTORE PUSH1 0x4 ADD PUSH1 0x40 MLOAD DUP1 SWAP2 SUB SWAP1 REVERT JUMPDEST PUSH1 0x5 DUP2 ADD SLOAD PUSH1 0x1 PUSH1 0xA0 SHL SWAP1 DIV PUSH1 0xFF AND PUSH2 0x19A4 JUMPI PUSH1 0x40 MLOAD PUSH4 0x157BD4C3 PUSH1 0xE0 SHL DUP2 MSTORE PUSH1 0x4 ADD PUSH1 0x40 MLOAD DUP1 SWAP2 SUB SWAP1 REVERT JUMPDEST PUSH1 0x2 DUP2 ADD SLOAD PUSH1 0x1 PUSH1 0x80 SHL SWAP1 DIV PUSH1 0x1 PUSH1 0x1 PUSH1 0x40 SHL SUB AND ISZERO PUSH2 0x19D7 JUMPI PUSH1 0x40 MLOAD PUSH4 0x905E7107 PUSH1 0xE0 SHL DUP2 MSTORE PUSH1 0x4 ADD PUSH1 0x40 MLOAD DUP1 SWAP2 SUB SWAP1 REVERT JUMPDEST TIMESTAMP PUSH1 0x2 DUP3 ADD DUP1 SLOAD PUSH8 0xFFFFFFFFFFFFFFFF PUSH1 0x80 SHL NOT DUP2 AND PUSH1 0x1 PUSH1 0x80 SHL PUSH1 0x1 PUSH1 0x1 PUSH1 0x40 SHL SUB SWAP5 DUP6 AND DUP2 MUL SWAP2 DUP3 OR SWAP4 DUP5 SWAP1 SSTORE PUSH1 0x40 DUP1 MLOAD PUSH2 0x140 DUP2 ADD DUP3 MSTORE DUP8 SLOAD DUP2 MSTORE PUSH1 0x1 DUP9 ADD SLOAD PUSH1 0x20 DUP3 ADD MSTORE SWAP4 DUP7 AND SWAP3 DUP7 AND SWAP3 SWAP1 SWAP3 OR SWAP2 DUP4 ADD SWAP2 SWAP1 SWAP2 MSTORE PUSH1 0x1 PUSH1 0x40 SHL DUP4 DIV DUP5 AND PUSH1 0x60 DUP4 ADD MSTORE SWAP1 SWAP2 DIV SWAP1 SWAP2 AND PUSH1 0x80 DUP3 ADD MSTORE PUSH1 0x3 DUP3 ADD SLOAD PUSH1 0xA0 DUP3 ADD MSTORE PUSH1 0x4 DUP3 ADD SLOAD PUSH1 0x1 PUSH1 0x1 PUSH1 0xA0 SHL SUB SWAP1 DUP2 AND PUSH1 0xC0 DUP4 ADD MSTORE PUSH1 0x5 DUP4 ADD SLOAD SWAP1 DUP2 AND PUSH1 0xE0 DUP4 ADD MSTORE PUSH1 0x1 PUSH1 0xA0 SHL SWAP1 DIV PUSH1 0xFF AND ISZERO ISZERO PUSH2 0x100 DUP3 ADD MSTORE PUSH1 0x6 DUP3 ADD DUP1 SLOAD DUP4 SWAP2 PUSH2 0x120 DUP5 ADD SWAP2 PUSH2 0x1A9E SWAP1 PUSH2 0x2F8D JUMP JUMPDEST DUP1 PUSH1 0x1F ADD PUSH1 0x20 DUP1 SWAP2 DIV MUL PUSH1 0x20 ADD PUSH1 0x40 MLOAD SWAP1 DUP2 ADD PUSH1 0x40 MSTORE DUP1 SWAP3 SWAP2 SWAP1 DUP2 DUP2 MSTORE PUSH1 0x20 ADD DUP3 DUP1 SLOAD PUSH2 0x1ACA SWAP1 PUSH2 0x2F8D JUMP JUMPDEST DUP1 ISZERO PUSH2 0x1B17 JUMPI DUP1 PUSH1 0x1F LT PUSH2 0x1AEC JUMPI PUSH2 0x100 DUP1 DUP4 SLOAD DIV MUL DUP4 MSTORE SWAP2 PUSH1 0x20 ADD SWAP2 PUSH2 0x1B17 JUMP JUMPDEST DUP3 ADD SWAP2 SWAP1 PUSH1 0x0 MSTORE PUSH1 0x20 PUSH1 0x0 KECCAK256 SWAP1 JUMPDEST DUP2 SLOAD DUP2 MSTORE SWAP1 PUSH1 0x1 ADD SWAP1 PUSH1 0x20 ADD DUP1 DUP4 GT PUSH2 0x1AFA JUMPI DUP3 SWAP1 SUB PUSH1 0x1F AND DUP3 ADD SWAP2 JUMPDEST POP POP POP POP POP DUP2 MSTORE POP POP DUP6 DUP5 DUP2 MLOAD DUP2 LT PUSH2 0x1B32 JUMPI PUSH2 0x1B32 PUSH2 0x2F77 JUMP JUMPDEST PUSH1 0x20 MUL PUSH1 0x20 ADD ADD DUP2 SWAP1 MSTORE POP DUP2 PUSH1 0x20 ADD MLOAD DUP5 DUP5 DUP2 MLOAD DUP2 LT PUSH2 0x1B54 JUMPI PUSH2 0x1B54 PUSH2 0x2F77 JUMP JUMPDEST PUSH1 0x20 MUL PUSH1 0x20 ADD ADD DUP2 DUP2 MSTORE POP POP DUP1 PUSH1 0x1 ADD SLOAD DUP12 PUSH1 0x1 PUSH1 0x1 PUSH1 0xA0 SHL SUB AND DUP3 PUSH1 0x4 ADD PUSH1 0x0 SWAP1 SLOAD SWAP1 PUSH2 0x100 EXP SWAP1 DIV PUSH1 0x1 PUSH1 0x1 PUSH1 0xA0 SHL SUB AND PUSH1 0x1 PUSH1 0x1 PUSH1 0xA0 SHL SUB AND PUSH32 0xF930A6E2523C9CC298691873087A740550B8FC85A0680830414C148ED927F615 DUP6 PUSH1 0x0 ADD MLOAD PUSH1 0x40 MLOAD PUSH2 0x1BC5 SWAP2 DUP2 MSTORE PUSH1 0x20 ADD SWAP1 JUMP JUMPDEST PUSH1 0x40 MLOAD DUP1 SWAP2 SUB SWAP1 LOG4 POP POP PUSH1 0x1 ADD PUSH2 0x18C8 JUMP JUMPDEST POP PUSH2 0x1BE7 DUP5 DUP4 DUP4 PUSH1 0x1 DUP12 DUP12 PUSH2 0x2150 JUMP JUMPDEST SWAP11 SWAP10 POP POP POP POP POP POP POP POP POP POP JUMP JUMPDEST PUSH1 0x0 DUP3 DUP2 MSTORE PUSH1 0x5 PUSH1 0x20 MSTORE PUSH1 0x40 SWAP1 KECCAK256 SLOAD PUSH1 0x1 PUSH1 0x1 PUSH1 0x40 SHL SUB AND ISZERO PUSH2 0x1C2B JUMPI PUSH1 0x40 MLOAD PUSH4 0x17133CA3 PUSH1 0xE1 SHL DUP2 MSTORE PUSH1 0x4 ADD PUSH1 0x40 MLOAD DUP1 SWAP2 SUB SWAP1 REVERT JUMPDEST PUSH1 0x0 DUP3 DUP2 MSTORE PUSH1 0x5 PUSH1 0x20 MSTORE PUSH1 0x40 DUP1 DUP3 KECCAK256 DUP1 SLOAD PUSH8 0xFFFFFFFFFFFFFFFF NOT AND PUSH1 0x1 PUSH1 0x1 PUSH1 0x40 SHL SUB DUP6 AND SWAP1 DUP2 OR SWAP1 SWAP2 SSTORE SWAP1 MLOAD SWAP1 SWAP2 DUP5 SWAP2 PUSH32 0x5AAFCEEB1C7AD58E4A84898BDEE37C02C0FC46E7D24E6B60E8209449F183459F SWAP2 SWAP1 LOG3 POP POP JUMP JUMPDEST PUSH1 0x60 PUSH1 0x0 PUSH2 0x1C92 DUP4 PUSH2 0x2447 JUMP JUMPDEST PUSH1 0x1 ADD SWAP1 POP PUSH1 0x0 DUP2 PUSH1 0x1 PUSH1 0x1 PUSH1 0x40 SHL SUB DUP2 GT ISZERO PUSH2 0x1CB1 JUMPI PUSH2 0x1CB1 PUSH2 0x2FC1 JUMP JUMPDEST PUSH1 0x40 MLOAD SWAP1 DUP1 DUP3 MSTORE DUP1 PUSH1 0x1F ADD PUSH1 0x1F NOT AND PUSH1 0x20 ADD DUP3 ADD PUSH1 0x40 MSTORE DUP1 ISZERO PUSH2 0x1CDB JUMPI PUSH1 0x20 DUP3 ADD DUP2 DUP1 CALLDATASIZE DUP4 CALLDATACOPY ADD SWAP1 POP JUMPDEST POP SWAP1 POP DUP2 DUP2 ADD PUSH1 0x20 ADD JUMPDEST PUSH1 0x0 NOT ADD PUSH16 0x181899199A1A9B1B9C1CB0B131B232B3 PUSH1 0x81 SHL PUSH1 0xA DUP7 MOD BYTE DUP2 MSTORE8 PUSH1 0xA DUP6 DIV SWAP5 POP DUP5 PUSH2 0x1CE5 JUMPI POP SWAP4 SWAP3 POP POP POP JUMP JUMPDEST PUSH1 0x20 DUP1 DUP3 ADD MLOAD PUSH1 0x40 DUP1 DUP5 ADD MLOAD PUSH1 0x60 DUP1 DUP7 ADD MLOAD PUSH1 0x1 PUSH1 0x1 PUSH1 0xA0 SHL SUB AND PUSH1 0x0 SWAP1 DUP2 MSTORE PUSH1 0x3 DUP7 MSTORE DUP4 DUP2 KECCAK256 DUP1 SLOAD PUSH1 0x1 DUP2 ADD SWAP1 SWAP2 SSTORE DUP8 MLOAD DUP7 MLOAD DUP8 DUP10 ADD MLOAD DUP8 DUP10 ADD MLOAD SWAP6 DUP10 ADD MLOAD PUSH1 0x80 DUP11 ADD MLOAD DUP1 MLOAD SWAP1 DUP13 ADD KECCAK256 SWAP9 MLOAD SWAP10 SWAP11 SWAP8 SWAP10 SWAP5 SWAP9 SWAP6 SWAP8 PUSH2 0x1E03 SWAP8 PUSH2 0x1DE8 SWAP8 PUSH32 0xDBFDF8DC2B135C26253E00D5B6CBE6F20457E003FD526D97CEA183883570DE61 SWAP8 SWAP2 SWAP4 SWAP3 SWAP1 SWAP2 DUP13 SWAP2 ADD SWAP8 DUP9 MSTORE PUSH1 0x20 DUP9 ADD SWAP7 SWAP1 SWAP7 MSTORE PUSH1 0x1 PUSH1 0x1 PUSH1 0xA0 SHL SUB SWAP5 SWAP1 SWAP5 AND PUSH1 0x40 DUP8 ADD MSTORE PUSH1 0x1 PUSH1 0x1 PUSH1 0x40 SHL SUB SWAP3 SWAP1 SWAP3 AND PUSH1 0x60 DUP7 ADD MSTORE ISZERO ISZERO PUSH1 0x80 DUP6 ADD MSTORE PUSH1 0xA0 DUP5 ADD MSTORE PUSH1 0xC0 DUP4 ADD MSTORE PUSH1 0xE0 DUP3 ADD MSTORE PUSH2 0x100 ADD SWAP1 JUMP JUMPDEST PUSH1 0x40 MLOAD PUSH1 0x20 DUP2 DUP4 SUB SUB DUP2 MSTORE SWAP1 PUSH1 0x40 MSTORE DUP1 MLOAD SWAP1 PUSH1 0x20 ADD KECCAK256 PUSH2 0x251F JUMP JUMPDEST SWAP1 POP DUP5 PUSH1 0x60 ADD MLOAD PUSH1 0x1 PUSH1 0x1 PUSH1 0xA0 SHL SUB AND PUSH2 0x1E2B DUP3 DUP6 PUSH1 0x0 ADD MLOAD DUP7 PUSH1 0x20 ADD MLOAD DUP8 PUSH1 0x40 ADD MLOAD PUSH2 0x254C JUMP JUMPDEST PUSH1 0x1 PUSH1 0x1 PUSH1 0xA0 SHL SUB AND EQ PUSH2 0x1E52 JUMPI PUSH1 0x40 MLOAD PUSH4 0x8BAA579F PUSH1 0xE0 SHL DUP2 MSTORE PUSH1 0x4 ADD PUSH1 0x40 MLOAD DUP1 SWAP2 SUB SWAP1 REVERT JUMPDEST POP POP POP POP POP JUMP JUMPDEST PUSH1 0x60 PUSH1 0xFF DUP4 EQ PUSH2 0x1E6C JUMPI PUSH2 0x1072 DUP4 PUSH2 0x2574 JUMP JUMPDEST DUP2 DUP1 SLOAD PUSH2 0x1E78 SWAP1 PUSH2 0x2F8D JUMP JUMPDEST DUP1 PUSH1 0x1F ADD PUSH1 0x20 DUP1 SWAP2 DIV MUL PUSH1 0x20 ADD PUSH1 0x40 MLOAD SWAP1 DUP2 ADD PUSH1 0x40 MSTORE DUP1 SWAP3 SWAP2 SWAP1 DUP2 DUP2 MSTORE PUSH1 0x20 ADD DUP3 DUP1 SLOAD PUSH2 0x1EA4 SWAP1 PUSH2 0x2F8D JUMP JUMPDEST DUP1 ISZERO PUSH2 0x1EF1 JUMPI DUP1 PUSH1 0x1F LT PUSH2 0x1EC6 JUMPI PUSH2 0x100 DUP1 DUP4 SLOAD DIV MUL DUP4 MSTORE SWAP2 PUSH1 0x20 ADD SWAP2 PUSH2 0x1EF1 JUMP JUMPDEST DUP3 ADD SWAP2 SWAP1 PUSH1 0x0 MSTORE PUSH1 0x20 PUSH1 0x0 KECCAK256 SWAP1 JUMPDEST DUP2 SLOAD DUP2 MSTORE SWAP1 PUSH1 0x1 ADD SWAP1 PUSH1 0x20 ADD DUP1 DUP4 GT PUSH2 0x1ED4 JUMPI DUP3 SWAP1 SUB PUSH1 0x1F AND DUP3 ADD SWAP2 JUMPDEST POP POP POP POP POP SWAP1 POP PUSH2 0x51F JUMP JUMPDEST PUSH1 0x20 DUP2 DUP2 ADD MLOAD PUSH1 0x40 DUP1 DUP5 ADD MLOAD PUSH1 0x60 DUP1 DUP7 ADD MLOAD PUSH1 0x1 PUSH1 0x1 PUSH1 0xA0 SHL SUB AND PUSH1 0x0 SWAP1 DUP2 MSTORE PUSH1 0x3 DUP7 MSTORE DUP4 DUP2 KECCAK256 DUP1 SLOAD PUSH1 0x1 DUP2 ADD SWAP1 SWAP2 SSTORE DUP8 MLOAD DUP7 MLOAD DUP7 MLOAD PUSH32 0xA98D02348410C9C76735E0D0BB1396F4015AC2BB9615F9C2611D19D7A8A99650 SWAP10 DUP2 ADD SWAP10 SWAP1 SWAP10 MSTORE SWAP6 DUP9 ADD MSTORE SWAP2 DUP7 ADD SWAP4 SWAP1 SWAP4 MSTORE PUSH1 0x80 DUP6 ADD DUP2 SWAP1 MSTORE SWAP3 SWAP4 SWAP1 SWAP3 SWAP2 SWAP1 PUSH2 0x1E03 SWAP1 PUSH1 0xA0 ADD PUSH2 0x1DE8 JUMP JUMPDEST PUSH1 0x0 ADDRESS PUSH1 0x1 PUSH1 0x1 PUSH1 0xA0 SHL SUB PUSH32 0x0 AND EQ DUP1 ISZERO PUSH2 0x1FD8 JUMPI POP PUSH32 0x0 CHAINID EQ JUMPDEST ISZERO PUSH2 0x2002 JUMPI POP PUSH32 0x0 SWAP1 JUMP JUMPDEST PUSH2 0xFB8 PUSH1 0x40 DUP1 MLOAD PUSH32 0x8B73C3C69BB8FE3D512ECC4CF759CC79239F7B179B0FFACAA9A75D522B39400F PUSH1 0x20 DUP3 ADD MSTORE PUSH32 0x0 SWAP2 DUP2 ADD SWAP2 SWAP1 SWAP2 MSTORE PUSH32 0x0 PUSH1 0x60 DUP3 ADD MSTORE CHAINID PUSH1 0x80 DUP3 ADD MSTORE ADDRESS PUSH1 0xA0 DUP3 ADD MSTORE PUSH1 0x0 SWAP1 PUSH1 0xC0 ADD PUSH1 0x40 MLOAD PUSH1 0x20 DUP2 DUP4 SUB SUB DUP2 MSTORE SWAP1 PUSH1 0x40 MSTORE DUP1 MLOAD SWAP1 PUSH1 0x20 ADD KECCAK256 SWAP1 POP SWAP1 JUMP JUMPDEST PUSH1 0x0 DUP1 DUP3 SWAP1 POP PUSH1 0x1F DUP2 MLOAD GT ISZERO PUSH2 0x20DE JUMPI DUP3 PUSH1 0x40 MLOAD PUSH4 0x305A27A9 PUSH1 0xE0 SHL DUP2 MSTORE PUSH1 0x4 ADD PUSH2 0x20D5 SWAP2 SWAP1 PUSH2 0x2C7A JUMP JUMPDEST PUSH1 0x40 MLOAD DUP1 SWAP2 SUB SWAP1 REVERT JUMPDEST DUP1 MLOAD PUSH2 0x20E9 DUP3 PUSH2 0x38B8 JUMP JUMPDEST OR SWAP4 SWAP3 POP POP POP JUMP JUMPDEST PUSH1 0x20 DUP1 DUP4 ADD MLOAD PUSH1 0xC0 DUP5 ADD MLOAD PUSH1 0xE0 DUP6 ADD MLOAD PUSH1 0x40 DUP1 DUP8 ADD MLOAD PUSH1 0x60 DUP9 ADD MLOAD PUSH2 0x100 DUP10 ADD MLOAD PUSH1 0xA0 DUP11 ADD MLOAD PUSH2 0x120 DUP12 ADD MLOAD SWAP5 MLOAD PUSH1 0x0 SWAP10 PUSH2 0x2132 SWAP10 SWAP9 SWAP8 SWAP7 SWAP2 DUP13 SWAP2 ADD PUSH2 0x38DC JUMP JUMPDEST PUSH1 0x40 MLOAD PUSH1 0x20 DUP2 DUP4 SUB SUB DUP2 MSTORE SWAP1 PUSH1 0x40 MSTORE DUP1 MLOAD SWAP1 PUSH1 0x20 ADD KECCAK256 SWAP1 POP SWAP3 SWAP2 POP POP JUMP JUMPDEST DUP5 MLOAD PUSH1 0x0 SWAP1 PUSH1 0x1 DUP2 SWAP1 SUB PUSH2 0x21A8 JUMPI PUSH2 0x21A0 DUP9 DUP9 PUSH1 0x0 DUP2 MLOAD DUP2 LT PUSH2 0x2175 JUMPI PUSH2 0x2175 PUSH2 0x2F77 JUMP JUMPDEST PUSH1 0x20 MUL PUSH1 0x20 ADD ADD MLOAD DUP9 PUSH1 0x0 DUP2 MLOAD DUP2 LT PUSH2 0x2190 JUMPI PUSH2 0x2190 PUSH2 0x2F77 JUMP JUMPDEST PUSH1 0x20 MUL PUSH1 0x20 ADD ADD MLOAD DUP9 DUP9 DUP9 PUSH2 0x25B3 JUMP JUMPDEST SWAP2 POP POP PUSH2 0x6C5 JUMP JUMPDEST PUSH1 0x20 DUP9 ADD MLOAD PUSH1 0x1 PUSH1 0x1 PUSH1 0xA0 SHL SUB DUP2 AND PUSH2 0x2214 JUMPI PUSH1 0x0 JUMPDEST DUP3 DUP2 LT ISZERO PUSH2 0x2208 JUMPI DUP8 DUP2 DUP2 MLOAD DUP2 LT PUSH2 0x21D8 JUMPI PUSH2 0x21D8 PUSH2 0x2F77 JUMP JUMPDEST PUSH1 0x20 MUL PUSH1 0x20 ADD ADD MLOAD PUSH1 0x0 EQ PUSH2 0x2200 JUMPI PUSH1 0x40 MLOAD PUSH4 0x1574F9F3 PUSH1 0xE0 SHL DUP2 MSTORE PUSH1 0x4 ADD PUSH1 0x40 MLOAD DUP1 SWAP2 SUB SWAP1 REVERT JUMPDEST PUSH1 0x1 ADD PUSH2 0x21BE JUMP JUMPDEST POP PUSH1 0x0 SWAP3 POP POP POP PUSH2 0x6C5 JUMP JUMPDEST PUSH1 0x0 DUP1 JUMPDEST DUP4 DUP2 LT ISZERO PUSH2 0x22FF JUMPI PUSH1 0x0 DUP10 DUP3 DUP2 MLOAD DUP2 LT PUSH2 0x2234 JUMPI PUSH2 0x2234 PUSH2 0x2F77 JUMP JUMPDEST PUSH1 0x20 MUL PUSH1 0x20 ADD ADD MLOAD SWAP1 POP DUP1 PUSH1 0x0 EQ ISZERO DUP1 ISZERO PUSH2 0x22AE JUMPI POP DUP4 PUSH1 0x1 PUSH1 0x1 PUSH1 0xA0 SHL SUB AND PUSH4 0xCE46E046 PUSH1 0x40 MLOAD DUP2 PUSH4 0xFFFFFFFF AND PUSH1 0xE0 SHL DUP2 MSTORE PUSH1 0x4 ADD PUSH1 0x20 PUSH1 0x40 MLOAD DUP1 DUP4 SUB DUP2 DUP7 GAS STATICCALL ISZERO DUP1 ISZERO PUSH2 0x2288 JUMPI RETURNDATASIZE PUSH1 0x0 DUP1 RETURNDATACOPY RETURNDATASIZE PUSH1 0x0 REVERT JUMPDEST POP POP POP POP PUSH1 0x40 MLOAD RETURNDATASIZE PUSH1 0x1F NOT PUSH1 0x1F DUP3 ADD AND DUP3 ADD DUP1 PUSH1 0x40 MSTORE POP DUP2 ADD SWAP1 PUSH2 0x22AC SWAP2 SWAP1 PUSH2 0x3979 JUMP JUMPDEST ISZERO JUMPDEST ISZERO PUSH2 0x22CC JUMPI PUSH1 0x40 MLOAD PUSH4 0x1574F9F3 PUSH1 0xE0 SHL DUP2 MSTORE PUSH1 0x4 ADD PUSH1 0x40 MLOAD DUP1 SWAP2 SUB SWAP1 REVERT JUMPDEST DUP8 DUP2 GT ISZERO PUSH2 0x22ED JUMPI PUSH1 0x40 MLOAD PUSH4 0x44044A5 PUSH1 0xE2 SHL DUP2 MSTORE PUSH1 0x4 ADD PUSH1 0x40 MLOAD DUP1 SWAP2 SUB SWAP1 REVERT JUMPDEST SWAP7 DUP8 SWAP1 SUB SWAP7 SWAP2 SWAP1 SWAP2 ADD SWAP1 PUSH1 0x1 ADD PUSH2 0x2218 JUMP JUMPDEST POP DUP7 ISZERO PUSH2 0x239B JUMPI PUSH1 0x40 MLOAD PUSH4 0x88E5B2D9 PUSH1 0xE0 SHL DUP2 MSTORE PUSH1 0x1 PUSH1 0x1 PUSH1 0xA0 SHL SUB DUP4 AND SWAP1 PUSH4 0x88E5B2D9 SWAP1 DUP4 SWAP1 PUSH2 0x2336 SWAP1 DUP14 SWAP1 DUP14 SWAP1 PUSH1 0x4 ADD PUSH2 0x3996 JUMP JUMPDEST PUSH1 0x20 PUSH1 0x40 MLOAD DUP1 DUP4 SUB DUP2 DUP6 DUP9 GAS CALL ISZERO DUP1 ISZERO PUSH2 0x2354 JUMPI RETURNDATASIZE PUSH1 0x0 DUP1 RETURNDATACOPY RETURNDATASIZE PUSH1 0x0 REVERT JUMPDEST POP POP POP POP POP PUSH1 0x40 MLOAD RETURNDATASIZE PUSH1 0x1F NOT PUSH1 0x1F DUP3 ADD AND DUP3 ADD DUP1 PUSH1 0x40 MSTORE POP DUP2 ADD SWAP1 PUSH2 0x2379 SWAP2 SWAP1 PUSH2 0x3979 JUMP JUMPDEST PUSH2 0x2396 JUMPI PUSH1 0x40 MLOAD PUSH4 0xBF2F3A8B PUSH1 0xE0 SHL DUP2 MSTORE PUSH1 0x4 ADD PUSH1 0x40 MLOAD DUP1 SWAP2 SUB SWAP1 REVERT JUMPDEST PUSH2 0x242B JUMP JUMPDEST PUSH1 0x40 MLOAD PUSH4 0x48ED85BF PUSH1 0xE1 SHL DUP2 MSTORE PUSH1 0x1 PUSH1 0x1 PUSH1 0xA0 SHL SUB DUP4 AND SWAP1 PUSH4 0x91DB0B7E SWAP1 DUP4 SWAP1 PUSH2 0x23CB SWAP1 DUP14 SWAP1 DUP14 SWAP1 PUSH1 0x4 ADD PUSH2 0x3996 JUMP JUMPDEST PUSH1 0x20 PUSH1 0x40 MLOAD DUP1 DUP4 SUB DUP2 DUP6 DUP9 GAS CALL ISZERO DUP1 ISZERO PUSH2 0x23E9 JUMPI RETURNDATASIZE PUSH1 0x0 DUP1 RETURNDATACOPY RETURNDATASIZE PUSH1 0x0 REVERT JUMPDEST POP POP POP POP POP PUSH1 0x40 MLOAD RETURNDATASIZE PUSH1 0x1F NOT PUSH1 0x1F DUP3 ADD AND DUP3 ADD DUP1 PUSH1 0x40 MSTORE POP DUP2 ADD SWAP1 PUSH2 0x240E SWAP2 SWAP1 PUSH2 0x3979 JUMP JUMPDEST PUSH2 0x242B JUMPI PUSH1 0x40 MLOAD PUSH4 0xE8BEE839 PUSH1 0xE0 SHL DUP2 MSTORE PUSH1 0x4 ADD PUSH1 0x40 MLOAD DUP1 SWAP2 SUB SWAP1 REVERT JUMPDEST DUP5 ISZERO PUSH2 0x243A JUMPI PUSH2 0x243A DUP7 PUSH2 0x27E6 JUMP JUMPDEST SWAP10 SWAP9 POP POP POP POP POP POP POP POP POP JUMP JUMPDEST PUSH1 0x0 DUP1 PUSH19 0x184F03E93FF9F4DAA797ED6E38ED64BF6A1F01 PUSH1 0x40 SHL DUP4 LT PUSH2 0x2486 JUMPI PUSH19 0x184F03E93FF9F4DAA797ED6E38ED64BF6A1F01 PUSH1 0x40 SHL DUP4 DIV SWAP3 POP PUSH1 0x40 ADD JUMPDEST PUSH14 0x4EE2D6D415B85ACEF8100000000 DUP4 LT PUSH2 0x24B2 JUMPI PUSH14 0x4EE2D6D415B85ACEF8100000000 DUP4 DIV SWAP3 POP PUSH1 0x20 ADD JUMPDEST PUSH7 0x2386F26FC10000 DUP4 LT PUSH2 0x24D0 JUMPI PUSH7 0x2386F26FC10000 DUP4 DIV SWAP3 POP PUSH1 0x10 ADD JUMPDEST PUSH4 0x5F5E100 DUP4 LT PUSH2 0x24E8 JUMPI PUSH4 0x5F5E100 DUP4 DIV SWAP3 POP PUSH1 0x8 ADD JUMPDEST PUSH2 0x2710 DUP4 LT PUSH2 0x24FC JUMPI PUSH2 0x2710 DUP4 DIV SWAP3 POP PUSH1 0x4 ADD JUMPDEST PUSH1 0x64 DUP4 LT PUSH2 0x250E JUMPI PUSH1 0x64 DUP4 DIV SWAP3 POP PUSH1 0x2 ADD JUMPDEST PUSH1 0xA DUP4 LT PUSH2 0x51F JUMPI PUSH1 0x1 ADD SWAP3 SWAP2 POP POP JUMP JUMPDEST PUSH1 0x0 PUSH2 0x51F PUSH2 0x252C PUSH2 0x1F7F JUMP JUMPDEST DUP4 PUSH1 0x40 MLOAD PUSH2 0x1901 PUSH1 0xF0 SHL DUP2 MSTORE PUSH1 0x2 DUP2 ADD SWAP3 SWAP1 SWAP3 MSTORE PUSH1 0x22 DUP3 ADD MSTORE PUSH1 0x42 SWAP1 KECCAK256 SWAP1 JUMP JUMPDEST PUSH1 0x0 DUP1 PUSH1 0x0 PUSH2 0x255D DUP8 DUP8 DUP8 DUP8 PUSH2 0x27F9 JUMP JUMPDEST SWAP2 POP SWAP2 POP PUSH2 0x256A DUP2 PUSH2 0x28BD JUMP JUMPDEST POP SWAP6 SWAP5 POP POP POP POP POP JUMP JUMPDEST PUSH1 0x60 PUSH1 0x0 PUSH2 0x2581 DUP4 PUSH2 0x2A07 JUMP JUMPDEST PUSH1 0x40 DUP1 MLOAD PUSH1 0x20 DUP1 DUP3 MSTORE DUP2 DUP4 ADD SWAP1 SWAP3 MSTORE SWAP2 SWAP3 POP PUSH1 0x0 SWAP2 SWAP1 PUSH1 0x20 DUP3 ADD DUP2 DUP1 CALLDATASIZE DUP4 CALLDATACOPY POP POP POP SWAP2 DUP3 MSTORE POP PUSH1 0x20 DUP2 ADD SWAP3 SWAP1 SWAP3 MSTORE POP SWAP1 JUMP JUMPDEST PUSH1 0x20 DUP7 ADD MLOAD PUSH1 0x0 SWAP1 PUSH1 0x1 PUSH1 0x1 PUSH1 0xA0 SHL SUB DUP2 AND PUSH2 0x25F2 JUMPI DUP6 ISZERO PUSH2 0x25E8 JUMPI PUSH1 0x40 MLOAD PUSH4 0x1574F9F3 PUSH1 0xE0 SHL DUP2 MSTORE PUSH1 0x4 ADD PUSH1 0x40 MLOAD DUP1 SWAP2 SUB SWAP1 REVERT JUMPDEST PUSH1 0x0 SWAP2 POP POP PUSH2 0x6C5 JUMP JUMPDEST DUP6 ISZERO DUP1 ISZERO SWAP1 PUSH2 0x2660 JUMPI POP DUP1 PUSH1 0x1 PUSH1 0x1 PUSH1 0xA0 SHL SUB AND PUSH4 0xCE46E046 PUSH1 0x40 MLOAD DUP2 PUSH4 0xFFFFFFFF AND PUSH1 0xE0 SHL DUP2 MSTORE PUSH1 0x4 ADD PUSH1 0x20 PUSH1 0x40 MLOAD DUP1 DUP4 SUB DUP2 DUP7 GAS STATICCALL ISZERO DUP1 ISZERO PUSH2 0x263A JUMPI RETURNDATASIZE PUSH1 0x0 DUP1 RETURNDATACOPY RETURNDATASIZE PUSH1 0x0 REVERT JUMPDEST POP POP POP POP PUSH1 0x40 MLOAD RETURNDATASIZE PUSH1 0x1F NOT PUSH1 0x1F DUP3 ADD AND DUP3 ADD DUP1 PUSH1 0x40 MSTORE POP DUP2 ADD SWAP1 PUSH2 0x265E SWAP2 SWAP1 PUSH2 0x3979 JUMP JUMPDEST ISZERO JUMPDEST ISZERO PUSH2 0x267E JUMPI PUSH1 0x40 MLOAD PUSH4 0x1574F9F3 PUSH1 0xE0 SHL DUP2 MSTORE PUSH1 0x4 ADD PUSH1 0x40 MLOAD DUP1 SWAP2 SUB SWAP1 REVERT JUMPDEST DUP4 DUP7 GT ISZERO PUSH2 0x269F JUMPI PUSH1 0x40 MLOAD PUSH4 0x44044A5 PUSH1 0xE2 SHL DUP2 MSTORE PUSH1 0x4 ADD PUSH1 0x40 MLOAD DUP1 SWAP2 SUB SWAP1 REVERT JUMPDEST DUP6 DUP5 SUB SWAP4 POP DUP5 ISZERO PUSH2 0x273D JUMPI PUSH1 0x40 MLOAD PUSH4 0xE49617E1 PUSH1 0xE0 SHL DUP2 MSTORE PUSH1 0x1 PUSH1 0x1 PUSH1 0xA0 SHL SUB DUP3 AND SWAP1 PUSH4 0xE49617E1 SWAP1 DUP9 SWAP1 PUSH2 0x26D8 SWAP1 DUP12 SWAP1 PUSH1 0x4 ADD PUSH2 0x2EB2 JUMP JUMPDEST PUSH1 0x20 PUSH1 0x40 MLOAD DUP1 DUP4 SUB DUP2 DUP6 DUP9 GAS CALL ISZERO DUP1 ISZERO PUSH2 0x26F6 JUMPI RETURNDATASIZE PUSH1 0x0 DUP1 RETURNDATACOPY RETURNDATASIZE PUSH1 0x0 REVERT JUMPDEST POP POP POP POP POP PUSH1 0x40 MLOAD RETURNDATASIZE PUSH1 0x1F NOT PUSH1 0x1F DUP3 ADD AND DUP3 ADD DUP1 PUSH1 0x40 MSTORE POP DUP2 ADD SWAP1 PUSH2 0x271B SWAP2 SWAP1 PUSH2 0x3979 JUMP JUMPDEST PUSH2 0x2738 JUMPI PUSH1 0x40 MLOAD PUSH4 0xCCF3BB27 PUSH1 0xE0 SHL DUP2 MSTORE PUSH1 0x4 ADD PUSH1 0x40 MLOAD DUP1 SWAP2 SUB SWAP1 REVERT JUMPDEST PUSH2 0x27CB JUMP JUMPDEST PUSH1 0x40 MLOAD PUSH4 0xE60C3505 PUSH1 0xE0 SHL DUP2 MSTORE PUSH1 0x1 PUSH1 0x1 PUSH1 0xA0 SHL SUB DUP3 AND SWAP1 PUSH4 0xE60C3505 SWAP1 DUP9 SWAP1 PUSH2 0x276B SWAP1 DUP12 SWAP1 PUSH1 0x4 ADD PUSH2 0x2EB2 JUMP JUMPDEST PUSH1 0x20 PUSH1 0x40 MLOAD DUP1 DUP4 SUB DUP2 DUP6 DUP9 GAS CALL ISZERO DUP1 ISZERO PUSH2 0x2789 JUMPI RETURNDATASIZE PUSH1 0x0 DUP1 RETURNDATACOPY RETURNDATASIZE PUSH1 0x0 REVERT JUMPDEST POP POP POP POP POP PUSH1 0x40 MLOAD RETURNDATASIZE PUSH1 0x1F NOT PUSH1 0x1F DUP3 ADD AND DUP3 ADD DUP1 PUSH1 0x40 MSTORE POP DUP2 ADD SWAP1 PUSH2 0x27AE SWAP2 SWAP1 PUSH2 0x3979 JUMP JUMPDEST PUSH2 0x27CB JUMPI PUSH1 0x40 MLOAD PUSH4 0xBD8BA84D PUSH1 0xE0 SHL DUP2 MSTORE PUSH1 0x4 ADD PUSH1 0x40 MLOAD DUP1 SWAP2 SUB SWAP1 REVERT JUMPDEST DUP3 ISZERO PUSH2 0x27DA JUMPI PUSH2 0x27DA DUP5 PUSH2 0x27E6 JUMP JUMPDEST POP SWAP4 SWAP7 SWAP6 POP POP POP POP POP POP JUMP JUMPDEST DUP1 ISZERO PUSH2 0x27F6 JUMPI PUSH2 0x27F6 CALLER DUP3 PUSH2 0x2A2F JUMP JUMPDEST POP JUMP JUMPDEST PUSH1 0x0 DUP1 PUSH32 0x7FFFFFFFFFFFFFFFFFFFFFFFFFFFFFFF5D576E7357A4501DDFE92F46681B20A0 DUP4 GT ISZERO PUSH2 0x2830 JUMPI POP PUSH1 0x0 SWAP1 POP PUSH1 0x3 PUSH2 0x28B4 JUMP JUMPDEST PUSH1 0x40 DUP1 MLOAD PUSH1 0x0 DUP1 DUP3 MSTORE PUSH1 0x20 DUP3 ADD DUP1 DUP5 MSTORE DUP10 SWAP1 MSTORE PUSH1 0xFF DUP9 AND SWAP3 DUP3 ADD SWAP3 SWAP1 SWAP3 MSTORE PUSH1 0x60 DUP2 ADD DUP7 SWAP1 MSTORE PUSH1 0x80 DUP2 ADD DUP6 SWAP1 MSTORE PUSH1 0x1 SWAP1 PUSH1 0xA0 ADD PUSH1 0x20 PUSH1 0x40 MLOAD PUSH1 0x20 DUP2 SUB SWAP1 DUP1 DUP5 SUB SWAP1 DUP6 GAS STATICCALL ISZERO DUP1 ISZERO PUSH2 0x2884 JUMPI RETURNDATASIZE PUSH1 0x0 DUP1 RETURNDATACOPY RETURNDATASIZE PUSH1 0x0 REVERT JUMPDEST POP POP PUSH1 0x40 MLOAD PUSH1 0x1F NOT ADD MLOAD SWAP2 POP POP PUSH1 0x1 PUSH1 0x1 PUSH1 0xA0 SHL SUB DUP2 AND PUSH2 0x28AD JUMPI PUSH1 0x0 PUSH1 0x1 SWAP3 POP SWAP3 POP POP PUSH2 0x28B4 JUMP JUMPDEST SWAP2 POP PUSH1 0x0 SWAP1 POP JUMPDEST SWAP5 POP SWAP5 SWAP3 POP POP POP JUMP JUMPDEST PUSH1 0x0 DUP2 PUSH1 0x4 DUP2 GT ISZERO PUSH2 0x28D1 JUMPI PUSH2 0x28D1 PUSH2 0x3A0C JUMP JUMPDEST SUB PUSH2 0x28D9 JUMPI POP JUMP JUMPDEST PUSH1 0x1 DUP2 PUSH1 0x4 DUP2 GT ISZERO PUSH2 0x28ED JUMPI PUSH2 0x28ED PUSH2 0x3A0C JUMP JUMPDEST SUB PUSH2 0x293A JUMPI PUSH1 0x40 MLOAD PUSH3 0x461BCD PUSH1 0xE5 SHL DUP2 MSTORE PUSH1 0x20 PUSH1 0x4 DUP3 ADD MSTORE PUSH1 0x18 PUSH1 0x24 DUP3 ADD MSTORE PUSH32 0x45434453413A20696E76616C6964207369676E61747572650000000000000000 PUSH1 0x44 DUP3 ADD MSTORE PUSH1 0x64 ADD PUSH2 0x20D5 JUMP JUMPDEST PUSH1 0x2 DUP2 PUSH1 0x4 DUP2 GT ISZERO PUSH2 0x294E JUMPI PUSH2 0x294E PUSH2 0x3A0C JUMP JUMPDEST SUB PUSH2 0x299B JUMPI PUSH1 0x40 MLOAD PUSH3 0x461BCD PUSH1 0xE5 SHL DUP2 MSTORE PUSH1 0x20 PUSH1 0x4 DUP3 ADD MSTORE PUSH1 0x1F PUSH1 0x24 DUP3 ADD MSTORE PUSH32 0x45434453413A20696E76616C6964207369676E6174757265206C656E67746800 PUSH1 0x44 DUP3 ADD MSTORE PUSH1 0x64 ADD PUSH2 0x20D5 JUMP JUMPDEST PUSH1 0x3 DUP2 PUSH1 0x4 DUP2 GT ISZERO PUSH2 0x29AF JUMPI PUSH2 0x29AF PUSH2 0x3A0C JUMP JUMPDEST SUB PUSH2 0x27F6 JUMPI PUSH1 0x40 MLOAD PUSH3 0x461BCD PUSH1 0xE5 SHL DUP2 MSTORE PUSH1 0x20 PUSH1 0x4 DUP3 ADD MSTORE PUSH1 0x22 PUSH1 0x24 DUP3 ADD MSTORE PUSH32 0x45434453413A20696E76616C6964207369676E6174757265202773272076616C PUSH1 0x44 DUP3 ADD MSTORE PUSH2 0x7565 PUSH1 0xF0 SHL PUSH1 0x64 DUP3 ADD MSTORE PUSH1 0x84 ADD PUSH2 0x20D5 JUMP JUMPDEST PUSH1 0x0 PUSH1 0xFF DUP3 AND PUSH1 0x1F DUP2 GT ISZERO PUSH2 0x51F JUMPI PUSH1 0x40 MLOAD PUSH4 0x2CD44AC3 PUSH1 0xE2 SHL DUP2 MSTORE PUSH1 0x4 ADD PUSH1 0x40 MLOAD DUP1 SWAP2 SUB SWAP1 REVERT JUMPDEST DUP1 SELFBALANCE LT ISZERO PUSH2 0x2A7F JUMPI PUSH1 0x40 MLOAD PUSH3 0x461BCD PUSH1 0xE5 SHL DUP2 MSTORE PUSH1 0x20 PUSH1 0x4 DUP3 ADD MSTORE PUSH1 0x1D PUSH1 0x24 DUP3 ADD MSTORE PUSH32 0x416464726573733A20696E73756666696369656E742062616C616E6365000000 PUSH1 0x44 DUP3 ADD MSTORE PUSH1 0x64 ADD PUSH2 0x20D5 JUMP JUMPDEST PUSH1 0x0 DUP3 PUSH1 0x1 PUSH1 0x1 PUSH1 0xA0 SHL SUB AND DUP3 PUSH1 0x40 MLOAD PUSH1 0x0 PUSH1 0x40 MLOAD DUP1 DUP4 SUB DUP2 DUP6 DUP8 GAS CALL SWAP3 POP POP POP RETURNDATASIZE DUP1 PUSH1 0x0 DUP2 EQ PUSH2 0x2ACC JUMPI PUSH1 0x40 MLOAD SWAP2 POP PUSH1 0x1F NOT PUSH1 0x3F RETURNDATASIZE ADD AND DUP3 ADD PUSH1 0x40 MSTORE RETURNDATASIZE DUP3 MSTORE RETURNDATASIZE PUSH1 0x0 PUSH1 0x20 DUP5 ADD RETURNDATACOPY PUSH2 0x2AD1 JUMP JUMPDEST PUSH1 0x60 SWAP2 POP JUMPDEST POP POP SWAP1 POP DUP1 PUSH2 0x74E JUMPI PUSH1 0x40 MLOAD PUSH3 0x461BCD PUSH1 0xE5 SHL DUP2 MSTORE PUSH1 0x20 PUSH1 0x4 DUP3 ADD MSTORE PUSH1 0x3A PUSH1 0x24 DUP3 ADD MSTORE PUSH32 0x416464726573733A20756E61626C6520746F2073656E642076616C75652C2072 PUSH1 0x44 DUP3 ADD MSTORE PUSH32 0x6563697069656E74206D61792068617665207265766572746564000000000000 PUSH1 0x64 DUP3 ADD MSTORE PUSH1 0x84 ADD PUSH2 0x20D5 JUMP JUMPDEST PUSH1 0x40 DUP1 MLOAD PUSH2 0x140 DUP2 ADD DUP3 MSTORE PUSH1 0x0 DUP1 DUP3 MSTORE PUSH1 0x20 DUP3 ADD DUP2 SWAP1 MSTORE SWAP2 DUP2 ADD DUP3 SWAP1 MSTORE PUSH1 0x60 DUP1 DUP3 ADD DUP4 SWAP1 MSTORE PUSH1 0x80 DUP3 ADD DUP4 SWAP1 MSTORE PUSH1 0xA0 DUP3 ADD DUP4 SWAP1 MSTORE PUSH1 0xC0 DUP3 ADD DUP4 SWAP1 MSTORE PUSH1 0xE0 DUP3 ADD DUP4 SWAP1 MSTORE PUSH2 0x100 DUP3 ADD SWAP3 SWAP1 SWAP3 MSTORE PUSH2 0x120 DUP2 ADD SWAP2 SWAP1 SWAP2 MSTORE SWAP1 JUMP JUMPDEST PUSH1 0x0 DUP1 DUP4 PUSH1 0x1F DUP5 ADD SLT PUSH2 0x2BB0 JUMPI PUSH1 0x0 DUP1 REVERT JUMPDEST POP DUP2 CALLDATALOAD PUSH1 0x1 PUSH1 0x1 PUSH1 0x40 SHL SUB DUP2 GT ISZERO PUSH2 0x2BC7 JUMPI PUSH1 0x0 DUP1 REVERT JUMPDEST PUSH1 0x20 DUP4 ADD SWAP2 POP DUP4 PUSH1 0x20 DUP3 PUSH1 0x5 SHL DUP6 ADD ADD GT ISZERO PUSH2 0x2BE2 JUMPI PUSH1 0x0 DUP1 REVERT JUMPDEST SWAP3 POP SWAP3 SWAP1 POP JUMP JUMPDEST PUSH1 0x0 DUP1 PUSH1 0x20 DUP4 DUP6 SUB SLT ISZERO PUSH2 0x2BFC JUMPI PUSH1 0x0 DUP1 REVERT JUMPDEST DUP3 CALLDATALOAD PUSH1 0x1 PUSH1 0x1 PUSH1 0x40 SHL SUB DUP2 GT ISZERO PUSH2 0x2C12 JUMPI PUSH1 0x0 DUP1 REVERT JUMPDEST PUSH2 0x2C1E DUP6 DUP3 DUP7 ADD PUSH2 0x2B9E JUMP JUMPDEST SWAP1 SWAP7 SWAP1 SWAP6 POP SWAP4 POP POP POP POP JUMP JUMPDEST PUSH1 0x0 JUMPDEST DUP4 DUP2 LT ISZERO PUSH2 0x2C45 JUMPI DUP2 DUP2 ADD MLOAD DUP4 DUP3 ADD MSTORE PUSH1 0x20 ADD PUSH2 0x2C2D JUMP JUMPDEST POP POP PUSH1 0x0 SWAP2 ADD MSTORE JUMP JUMPDEST PUSH1 0x0 DUP2 MLOAD DUP1 DUP5 MSTORE PUSH2 0x2C66 DUP2 PUSH1 0x20 DUP7 ADD PUSH1 0x20 DUP7 ADD PUSH2 0x2C2A JUMP JUMPDEST PUSH1 0x1F ADD PUSH1 0x1F NOT AND SWAP3 SWAP1 SWAP3 ADD PUSH1 0x20 ADD SWAP3 SWAP2 POP POP JUMP JUMPDEST PUSH1 0x20 DUP2 MSTORE PUSH1 0x0 PUSH2 0x2C8D PUSH1 0x20 DUP4 ADD DUP5 PUSH2 0x2C4E JUMP JUMPDEST SWAP4 SWAP3 POP POP POP JUMP JUMPDEST PUSH1 0x1 PUSH1 0x1 PUSH1 0xA0 SHL SUB DUP2 AND DUP2 EQ PUSH2 0x27F6 JUMPI PUSH1 0x0 DUP1 REVERT JUMPDEST DUP1 CALLDATALOAD PUSH2 0x2CB4 DUP2 PUSH2 0x2C94 JUMP JUMPDEST SWAP2 SWAP1 POP JUMP JUMPDEST PUSH1 0x0 PUSH1 0x20 DUP3 DUP5 SUB SLT ISZERO PUSH2 0x2CCB JUMPI PUSH1 0x0 DUP1 REVERT JUMPDEST DUP2 CALLDATALOAD PUSH2 0x2C8D DUP2 PUSH2 0x2C94 JUMP JUMPDEST PUSH1 0x20 DUP1 DUP3 MSTORE DUP3 MLOAD DUP3 DUP3 ADD DUP2 SWAP1 MSTORE PUSH1 0x0 SWAP2 SWAP1 DUP5 DUP3 ADD SWAP1 PUSH1 0x40 DUP6 ADD SWAP1 DUP5 JUMPDEST DUP2 DUP2 LT ISZERO PUSH2 0x2D0E JUMPI DUP4 MLOAD DUP4 MSTORE SWAP3 DUP5 ADD SWAP3 SWAP2 DUP5 ADD SWAP2 PUSH1 0x1 ADD PUSH2 0x2CF2 JUMP JUMPDEST POP SWAP1 SWAP7 SWAP6 POP POP POP POP POP POP JUMP JUMPDEST PUSH1 0x0 PUSH1 0x60 DUP3 DUP5 SUB SLT ISZERO PUSH2 0x2D2C JUMPI PUSH1 0x0 DUP1 REVERT JUMPDEST POP SWAP2 SWAP1 POP JUMP JUMPDEST PUSH1 0x0 PUSH1 0x20 DUP3 DUP5 SUB SLT ISZERO PUSH2 0x2D44 JUMPI PUSH1 0x0 DUP1 REVERT JUMPDEST POP CALLDATALOAD SWAP2 SWAP1 POP JUMP JUMPDEST PUSH1 0x0 DUP2 MLOAD DUP1 DUP5 MSTORE PUSH1 0x20 DUP1 DUP6 ADD SWAP5 POP DUP1 DUP5 ADD PUSH1 0x0 JUMPDEST DUP4 DUP2 LT ISZERO PUSH2 0x2D7B JUMPI DUP2 MLOAD DUP8 MSTORE SWAP6 DUP3 ADD SWAP6 SWAP1 DUP3 ADD SWAP1 PUSH1 0x1 ADD PUSH2 0x2D5F JUMP JUMPDEST POP SWAP5 SWAP6 SWAP5 POP POP POP POP POP JUMP JUMPDEST PUSH1 0xFF PUSH1 0xF8 SHL DUP9 AND DUP2 MSTORE PUSH1 0xE0 PUSH1 0x20 DUP3 ADD MSTORE PUSH1 0x0 PUSH2 0x2DA5 PUSH1 0xE0 DUP4 ADD DUP10 PUSH2 0x2C4E JUMP JUMPDEST DUP3 DUP2 SUB PUSH1 0x40 DUP5 ADD MSTORE PUSH2 0x2DB7 DUP2 DUP10 PUSH2 0x2C4E JUMP JUMPDEST PUSH1 0x60 DUP5 ADD DUP9 SWAP1 MSTORE PUSH1 0x1 PUSH1 0x1 PUSH1 0xA0 SHL SUB DUP8 AND PUSH1 0x80 DUP6 ADD MSTORE PUSH1 0xA0 DUP5 ADD DUP7 SWAP1 MSTORE DUP4 DUP2 SUB PUSH1 0xC0 DUP6 ADD MSTORE SWAP1 POP PUSH2 0x1BE7 DUP2 DUP6 PUSH2 0x2D4B JUMP JUMPDEST PUSH1 0x0 PUSH2 0x140 DUP3 MLOAD DUP5 MSTORE PUSH1 0x20 DUP4 ADD MLOAD PUSH1 0x20 DUP6 ADD MSTORE PUSH1 0x40 DUP4 ADD MLOAD PUSH2 0x2E15 PUSH1 0x40 DUP7 ADD DUP3 PUSH1 0x1 PUSH1 0x1 PUSH1 0x40 SHL SUB AND SWAP1 MSTORE JUMP JUMPDEST POP PUSH1 0x60 DUP4 ADD MLOAD PUSH2 0x2E30 PUSH1 0x60 DUP7 ADD DUP3 PUSH1 0x1 PUSH1 0x1 PUSH1 0x40 SHL SUB AND SWAP1 MSTORE JUMP JUMPDEST POP PUSH1 0x80 DUP4 ADD MLOAD PUSH2 0x2E4B PUSH1 0x80 DUP7 ADD DUP3 PUSH1 0x1 PUSH1 0x1 PUSH1 0x40 SHL SUB AND SWAP1 MSTORE JUMP JUMPDEST POP PUSH1 0xA0 DUP4 ADD MLOAD PUSH1 0xA0 DUP6 ADD MSTORE PUSH1 0xC0 DUP4 ADD MLOAD PUSH2 0x2E70 PUSH1 0xC0 DUP7 ADD DUP3 PUSH1 0x1 PUSH1 0x1 PUSH1 0xA0 SHL SUB AND SWAP1 MSTORE JUMP JUMPDEST POP PUSH1 0xE0 DUP4 ADD MLOAD PUSH2 0x2E8B PUSH1 0xE0 DUP7 ADD DUP3 PUSH1 0x1 PUSH1 0x1 PUSH1 0xA0 SHL SUB AND SWAP1 MSTORE JUMP JUMPDEST POP PUSH2 0x100 DUP4 DUP2 ADD MLOAD ISZERO ISZERO SWAP1 DUP6 ADD MSTORE PUSH2 0x120 DUP1 DUP5 ADD MLOAD DUP2 DUP7 ADD DUP4 SWAP1 MSTORE PUSH2 0x6C5 DUP4 DUP8 ADD DUP3 PUSH2 0x2C4E JUMP JUMPDEST PUSH1 0x20 DUP2 MSTORE PUSH1 0x0 PUSH2 0x2C8D PUSH1 0x20 DUP4 ADD DUP5 PUSH2 0x2DE8 JUMP JUMPDEST PUSH1 0x0 DUP1 PUSH1 0x40 DUP4 DUP6 SUB SLT ISZERO PUSH2 0x2ED8 JUMPI PUSH1 0x0 DUP1 REVERT JUMPDEST DUP3 CALLDATALOAD PUSH2 0x2EE3 DUP2 PUSH2 0x2C94 JUMP JUMPDEST SWAP5 PUSH1 0x20 SWAP4 SWAP1 SWAP4 ADD CALLDATALOAD SWAP4 POP POP POP JUMP JUMPDEST PUSH1 0x0 PUSH1 0x20 DUP3 DUP5 SUB SLT ISZERO PUSH2 0x2F03 JUMPI PUSH1 0x0 DUP1 REVERT JUMPDEST DUP2 CALLDATALOAD PUSH1 0x1 PUSH1 0x1 PUSH1 0x40 SHL SUB DUP2 GT ISZERO PUSH2 0x2F19 JUMPI PUSH1 0x0 DUP1 REVERT JUMPDEST DUP3 ADD PUSH1 0xC0 DUP2 DUP6 SUB SLT ISZERO PUSH2 0x2C8D JUMPI PUSH1 0x0 DUP1 REVERT JUMPDEST PUSH1 0x0 PUSH1 0xE0 DUP3 DUP5 SUB SLT ISZERO PUSH2 0x2D2C JUMPI PUSH1 0x0 DUP1 REVERT JUMPDEST PUSH1 0x0 PUSH1 0x20 DUP3 DUP5 SUB SLT ISZERO PUSH2 0x2F4F JUMPI PUSH1 0x0 DUP1 REVERT JUMPDEST DUP2 CALLDATALOAD PUSH1 0x1 PUSH1 0x1 PUSH1 0x40 SHL SUB DUP2 GT ISZERO PUSH2 0x2F65 JUMPI PUSH1 0x0 DUP1 REVERT JUMPDEST DUP3 ADD PUSH1 0x40 DUP2 DUP6 SUB SLT ISZERO PUSH2 0x2C8D JUMPI PUSH1 0x0 DUP1 REVERT JUMPDEST PUSH4 0x4E487B71 PUSH1 0xE0 SHL PUSH1 0x0 MSTORE PUSH1 0x32 PUSH1 0x4 MSTORE PUSH1 0x24 PUSH1 0x0 REVERT JUMPDEST PUSH1 0x1 DUP2 DUP2 SHR SWAP1 DUP3 AND DUP1 PUSH2 0x2FA1 JUMPI PUSH1 0x7F DUP3 AND SWAP2 POP JUMPDEST PUSH1 0x20 DUP3 LT DUP2 SUB PUSH2 0x2D2C JUMPI PUSH4 0x4E487B71 PUSH1 0xE0 SHL PUSH1 0x0 MSTORE PUSH1 0x22 PUSH1 0x4 MSTORE PUSH1 0x24 PUSH1 0x0 REVERT JUMPDEST PUSH4 0x4E487B71 PUSH1 0xE0 SHL PUSH1 0x0 MSTORE PUSH1 0x41 PUSH1 0x4 MSTORE PUSH1 0x24 PUSH1 0x0 REVERT JUMPDEST PUSH1 0x0 DUP3 CALLDATALOAD PUSH1 0x3E NOT DUP4 CALLDATASIZE SUB ADD DUP2 SLT PUSH2 0x2FED JUMPI PUSH1 0x0 DUP1 REVERT JUMPDEST SWAP2 SWAP1 SWAP2 ADD SWAP3 SWAP2 POP POP JUMP JUMPDEST PUSH1 0x0 DUP1 DUP4 CALLDATALOAD PUSH1 0x1E NOT DUP5 CALLDATASIZE SUB ADD DUP2 SLT PUSH2 0x300E JUMPI PUSH1 0x0 DUP1 REVERT JUMPDEST DUP4 ADD DUP1 CALLDATALOAD SWAP2 POP PUSH1 0x1 PUSH1 0x1 PUSH1 0x40 SHL SUB DUP3 GT ISZERO PUSH2 0x3028 JUMPI PUSH1 0x0 DUP1 REVERT JUMPDEST PUSH1 0x20 ADD SWAP2 POP PUSH1 0x5 DUP2 SWAP1 SHL CALLDATASIZE SUB DUP3 SGT ISZERO PUSH2 0x2BE2 JUMPI PUSH1 0x0 DUP1 REVERT JUMPDEST PUSH1 0x40 MLOAD PUSH1 0xC0 DUP2 ADD PUSH1 0x1 PUSH1 0x1 PUSH1 0x40 SHL SUB DUP2 GT DUP3 DUP3 LT OR ISZERO PUSH2 0x3062 JUMPI PUSH2 0x3062 PUSH2 0x2FC1 JUMP JUMPDEST PUSH1 0x40 MSTORE SWAP1 JUMP JUMPDEST PUSH1 0x40 MLOAD PUSH1 0x80 DUP2 ADD PUSH1 0x1 PUSH1 0x1 PUSH1 0x40 SHL SUB DUP2 GT DUP3 DUP3 LT OR ISZERO PUSH2 0x3062 JUMPI PUSH2 0x3062 PUSH2 0x2FC1 JUMP JUMPDEST PUSH1 0x40 MLOAD PUSH1 0x1F DUP3 ADD PUSH1 0x1F NOT AND DUP2 ADD PUSH1 0x1 PUSH1 0x1 PUSH1 0x40 SHL SUB DUP2 GT DUP3 DUP3 LT OR ISZERO PUSH2 0x30B2 JUMPI PUSH2 0x30B2 PUSH2 0x2FC1 JUMP JUMPDEST PUSH1 0x40 MSTORE SWAP2 SWAP1 POP JUMP JUMPDEST PUSH1 0x0 PUSH1 0x1 PUSH1 0x1 PUSH1 0x40 SHL SUB DUP3 GT ISZERO PUSH2 0x30D3 JUMPI PUSH2 0x30D3 PUSH2 0x2FC1 JUMP JUMPDEST POP PUSH1 0x5 SHL PUSH1 0x20 ADD SWAP1 JUMP JUMPDEST DUP1 ISZERO ISZERO DUP2 EQ PUSH2 0x27F6 JUMPI PUSH1 0x0 DUP1 REVERT JUMPDEST DUP1 CALLDATALOAD PUSH2 0x2CB4 DUP2 PUSH2 0x30DD JUMP JUMPDEST PUSH1 0x0 PUSH1 0x1 PUSH1 0x1 PUSH1 0x40 SHL SUB DUP3 GT ISZERO PUSH2 0x310F JUMPI PUSH2 0x310F PUSH2 0x2FC1 JUMP JUMPDEST POP PUSH1 0x1F ADD PUSH1 0x1F NOT AND PUSH1 0x20 ADD SWAP1 JUMP JUMPDEST PUSH1 0x0 DUP3 PUSH1 0x1F DUP4 ADD SLT PUSH2 0x312E JUMPI PUSH1 0x0 DUP1 REVERT JUMPDEST DUP2 CALLDATALOAD PUSH2 0x3141 PUSH2 0x313C DUP3 PUSH2 0x30F6 JUMP JUMPDEST PUSH2 0x308A JUMP JUMPDEST DUP2 DUP2 MSTORE DUP5 PUSH1 0x20 DUP4 DUP7 ADD ADD GT ISZERO PUSH2 0x3156 JUMPI PUSH1 0x0 DUP1 REVERT JUMPDEST DUP2 PUSH1 0x20 DUP6 ADD PUSH1 0x20 DUP4 ADD CALLDATACOPY PUSH1 0x0 SWAP2 DUP2 ADD PUSH1 0x20 ADD SWAP2 SWAP1 SWAP2 MSTORE SWAP4 SWAP3 POP POP POP JUMP JUMPDEST PUSH1 0x0 PUSH1 0xC0 DUP3 DUP5 SUB SLT ISZERO PUSH2 0x3185 JUMPI PUSH1 0x0 DUP1 REVERT JUMPDEST PUSH2 0x318D PUSH2 0x3040 JUMP JUMPDEST SWAP1 POP DUP2 CALLDATALOAD PUSH2 0x319A DUP2 PUSH2 0x2C94 JUMP JUMPDEST DUP2 MSTORE PUSH1 0x20 DUP3 ADD CALLDATALOAD PUSH1 0x1 PUSH1 0x1 PUSH1 0x40 SHL SUB DUP1 DUP3 AND DUP3 EQ PUSH2 0x31B7 JUMPI PUSH1 0x0 DUP1 REVERT JUMPDEST DUP2 PUSH1 0x20 DUP5 ADD MSTORE PUSH2 0x31C9 PUSH1 0x40 DUP6 ADD PUSH2 0x30EB JUMP JUMPDEST PUSH1 0x40 DUP5 ADD MSTORE PUSH1 0x60 DUP5 ADD CALLDATALOAD PUSH1 0x60 DUP5 ADD MSTORE PUSH1 0x80 DUP5 ADD CALLDATALOAD SWAP2 POP DUP1 DUP3 GT ISZERO PUSH2 0x31EC JUMPI PUSH1 0x0 DUP1 REVERT JUMPDEST POP PUSH2 0x31F9 DUP5 DUP3 DUP6 ADD PUSH2 0x311D JUMP JUMPDEST PUSH1 0x80 DUP4 ADD MSTORE POP PUSH1 0xA0 DUP3 ADD CALLDATALOAD PUSH1 0xA0 DUP3 ADD MSTORE SWAP3 SWAP2 POP POP JUMP JUMPDEST PUSH1 0x0 PUSH2 0x321D PUSH2 0x313C DUP5 PUSH2 0x30BA JUMP JUMPDEST DUP1 DUP5 DUP3 MSTORE PUSH1 0x20 DUP1 DUP4 ADD SWAP3 POP DUP6 PUSH1 0x5 SHL DUP6 ADD CALLDATASIZE DUP2 GT ISZERO PUSH2 0x323B JUMPI PUSH1 0x0 DUP1 REVERT JUMPDEST DUP6 JUMPDEST DUP2 DUP2 LT ISZERO PUSH2 0x3276 JUMPI DUP1 CALLDATALOAD PUSH1 0x1 PUSH1 0x1 PUSH1 0x40 SHL SUB DUP2 GT ISZERO PUSH2 0x325C JUMPI PUSH1 0x0 DUP1 DUP2 REVERT JUMPDEST PUSH2 0x3268 CALLDATASIZE DUP3 DUP11 ADD PUSH2 0x3173 JUMP JUMPDEST DUP7 MSTORE POP SWAP4 DUP3 ADD SWAP4 DUP3 ADD PUSH2 0x323D JUMP JUMPDEST POP SWAP2 SWAP7 SWAP6 POP POP POP POP POP POP JUMP JUMPDEST DUP2 DUP2 SUB DUP2 DUP2 GT ISZERO PUSH2 0x51F JUMPI PUSH4 0x4E487B71 PUSH1 0xE0 SHL PUSH1 0x0 MSTORE PUSH1 0x11 PUSH1 0x4 MSTORE PUSH1 0x24 PUSH1 0x0 REVERT JUMPDEST PUSH1 0x0 PUSH1 0x40 DUP3 DUP5 SUB SLT ISZERO PUSH2 0x32B5 JUMPI PUSH1 0x0 DUP1 REVERT JUMPDEST PUSH1 0x40 MLOAD PUSH1 0x40 DUP2 ADD DUP2 DUP2 LT PUSH1 0x1 PUSH1 0x1 PUSH1 0x40 SHL SUB DUP3 GT OR ISZERO PUSH2 0x32D7 JUMPI PUSH2 0x32D7 PUSH2 0x2FC1 JUMP JUMPDEST PUSH1 0x40 MSTORE DUP3 CALLDATALOAD DUP2 MSTORE PUSH1 0x20 SWAP3 DUP4 ADD CALLDATALOAD SWAP3 DUP2 ADD SWAP3 SWAP1 SWAP3 MSTORE POP SWAP2 SWAP1 POP JUMP JUMPDEST PUSH1 0x0 PUSH1 0x40 DUP3 DUP5 SUB SLT ISZERO PUSH2 0x3303 JUMPI PUSH1 0x0 DUP1 REVERT JUMPDEST PUSH2 0x2C8D DUP4 DUP4 PUSH2 0x32A3 JUMP JUMPDEST PUSH1 0x0 DUP1 DUP4 CALLDATALOAD PUSH1 0x1E NOT DUP5 CALLDATASIZE SUB ADD DUP2 SLT PUSH2 0x3324 JUMPI PUSH1 0x0 DUP1 REVERT JUMPDEST DUP4 ADD DUP1 CALLDATALOAD SWAP2 POP PUSH1 0x1 PUSH1 0x1 PUSH1 0x40 SHL SUB DUP3 GT ISZERO PUSH2 0x333E JUMPI PUSH1 0x0 DUP1 REVERT JUMPDEST PUSH1 0x20 ADD SWAP2 POP PUSH1 0x6 DUP2 SWAP1 SHL CALLDATASIZE SUB DUP3 SGT ISZERO PUSH2 0x2BE2 JUMPI PUSH1 0x0 DUP1 REVERT JUMPDEST PUSH1 0x0 DUP5 MLOAD PUSH2 0x3368 DUP2 DUP5 PUSH1 0x20 DUP10 ADD PUSH2 0x2C2A JUMP JUMPDEST DUP1 DUP4 ADD SWAP1 POP PUSH1 0x17 PUSH1 0xF9 SHL DUP1 DUP3 MSTORE DUP6 MLOAD PUSH2 0x3388 DUP2 PUSH1 0x1 DUP6 ADD PUSH1 0x20 DUP11 ADD PUSH2 0x2C2A JUMP JUMPDEST PUSH1 0x1 SWAP3 ADD SWAP2 DUP3 ADD MSTORE DUP4 MLOAD PUSH2 0x33A3 DUP2 PUSH1 0x2 DUP5 ADD PUSH1 0x20 DUP9 ADD PUSH2 0x2C2A JUMP JUMPDEST ADD PUSH1 0x2 ADD SWAP6 SWAP5 POP POP POP POP POP JUMP JUMPDEST PUSH1 0x0 DUP3 CALLDATALOAD PUSH1 0x7E NOT DUP4 CALLDATASIZE SUB ADD DUP2 SLT PUSH2 0x2FED JUMPI PUSH1 0x0 DUP1 REVERT JUMPDEST PUSH1 0x0 DUP1 DUP4 CALLDATALOAD PUSH1 0x1E NOT DUP5 CALLDATASIZE SUB ADD DUP2 SLT PUSH2 0x33DD JUMPI PUSH1 0x0 DUP1 REVERT JUMPDEST DUP4 ADD DUP1 CALLDATALOAD SWAP2 POP PUSH1 0x1 PUSH1 0x1 PUSH1 0x40 SHL SUB DUP3 GT ISZERO PUSH2 0x33F7 JUMPI PUSH1 0x0 DUP1 REVERT JUMPDEST PUSH1 0x20 ADD SWAP2 POP PUSH1 0x60 DUP2 MUL CALLDATASIZE SUB DUP3 SGT ISZERO PUSH2 0x2BE2 JUMPI PUSH1 0x0 DUP1 REVERT JUMPDEST PUSH1 0x0 DUP3 CALLDATALOAD PUSH1 0xBE NOT DUP4 CALLDATASIZE SUB ADD DUP2 SLT PUSH2 0x2FED JUMPI PUSH1 0x0 DUP1 REVERT JUMPDEST PUSH1 0x0 PUSH2 0x51F CALLDATASIZE DUP4 PUSH2 0x3173 JUMP JUMPDEST PUSH1 0x0 PUSH1 0x60 DUP3 DUP5 SUB SLT ISZERO PUSH2 0x3442 JUMPI PUSH1 0x0 DUP1 REVERT JUMPDEST PUSH1 0x40 MLOAD PUSH1 0x60 DUP2 ADD DUP2 DUP2 LT PUSH1 0x1 PUSH1 0x1 PUSH1 0x40 SHL SUB DUP3 GT OR ISZERO PUSH2 0x3464 JUMPI PUSH2 0x3464 PUSH2 0x2FC1 JUMP JUMPDEST PUSH1 0x40 MSTORE SWAP1 POP DUP1 DUP3 CALLDATALOAD PUSH1 0xFF DUP2 AND DUP2 EQ PUSH2 0x347B JUMPI PUSH1 0x0 DUP1 REVERT JUMPDEST DUP1 DUP3 MSTORE POP PUSH1 0x20 DUP4 ADD CALLDATALOAD PUSH1 0x20 DUP3 ADD MSTORE PUSH1 0x40 DUP4 ADD CALLDATALOAD PUSH1 0x40 DUP3 ADD MSTORE POP SWAP3 SWAP2 POP POP JUMP JUMPDEST PUSH1 0x0 PUSH1 0x60 DUP3 DUP5 SUB SLT ISZERO PUSH2 0x34AC JUMPI PUSH1 0x0 DUP1 REVERT JUMPDEST PUSH2 0x2C8D DUP4 DUP4 PUSH2 0x3430 JUMP JUMPDEST PUSH1 0x0 PUSH1 0xC0 DUP3 CALLDATASIZE SUB SLT ISZERO PUSH2 0x34C8 JUMPI PUSH1 0x0 DUP1 REVERT JUMPDEST PUSH2 0x34D0 PUSH2 0x3068 JUMP JUMPDEST DUP3 CALLDATALOAD DUP2 MSTORE PUSH1 0x20 DUP4 ADD CALLDATALOAD PUSH1 0x1 PUSH1 0x1 PUSH1 0x40 SHL SUB DUP2 GT ISZERO PUSH2 0x34ED JUMPI PUSH1 0x0 DUP1 REVERT JUMPDEST PUSH2 0x34F9 CALLDATASIZE DUP3 DUP7 ADD PUSH2 0x3173 JUMP JUMPDEST PUSH1 0x20 DUP4 ADD MSTORE POP PUSH2 0x350C CALLDATASIZE PUSH1 0x40 DUP6 ADD PUSH2 0x3430 JUMP JUMPDEST PUSH1 0x40 DUP3 ADD MSTORE PUSH1 0xA0 DUP4 ADD CALLDATALOAD PUSH2 0x351F DUP2 PUSH2 0x2C94 JUMP JUMPDEST PUSH1 0x60 DUP3 ADD MSTORE SWAP3 SWAP2 POP POP JUMP JUMPDEST PUSH1 0x0 DUP3 PUSH1 0x1F DUP4 ADD SLT PUSH2 0x353B JUMPI PUSH1 0x0 DUP1 REVERT JUMPDEST DUP2 CALLDATALOAD PUSH1 0x20 PUSH2 0x354B PUSH2 0x313C DUP4 PUSH2 0x30BA JUMP JUMPDEST DUP3 DUP2 MSTORE PUSH1 0x60 SWAP3 DUP4 MUL DUP6 ADD DUP3 ADD SWAP3 DUP3 DUP3 ADD SWAP2 SWAP1 DUP8 DUP6 GT ISZERO PUSH2 0x356A JUMPI PUSH1 0x0 DUP1 REVERT JUMPDEST DUP4 DUP8 ADD JUMPDEST DUP6 DUP2 LT ISZERO PUSH2 0x358D JUMPI PUSH2 0x3580 DUP10 DUP3 PUSH2 0x3430 JUMP JUMPDEST DUP5 MSTORE SWAP3 DUP5 ADD SWAP3 DUP2 ADD PUSH2 0x356E JUMP JUMPDEST POP SWAP1 SWAP8 SWAP7 POP POP POP POP POP POP POP JUMP JUMPDEST PUSH1 0x0 PUSH1 0x80 DUP3 CALLDATASIZE SUB SLT ISZERO PUSH2 0x35AC JUMPI PUSH1 0x0 DUP1 REVERT JUMPDEST PUSH2 0x35B4 PUSH2 0x3068 JUMP JUMPDEST DUP3 CALLDATALOAD DUP2 MSTORE PUSH1 0x20 DUP1 DUP5 ADD CALLDATALOAD PUSH1 0x1 PUSH1 0x1 PUSH1 0x40 SHL SUB DUP1 DUP3 GT ISZERO PUSH2 0x35D3 JUMPI PUSH1 0x0 DUP1 REVERT JUMPDEST SWAP1 DUP6 ADD SWAP1 CALLDATASIZE PUSH1 0x1F DUP4 ADD SLT PUSH2 0x35E6 JUMPI PUSH1 0x0 DUP1 REVERT JUMPDEST DUP2 CALLDATALOAD PUSH2 0x35F4 PUSH2 0x313C DUP3 PUSH2 0x30BA JUMP JUMPDEST DUP2 DUP2 MSTORE PUSH1 0x6 SWAP2 SWAP1 SWAP2 SHL DUP4 ADD DUP5 ADD SWAP1 DUP5 DUP2 ADD SWAP1 CALLDATASIZE DUP4 GT ISZERO PUSH2 0x3613 JUMPI PUSH1 0x0 DUP1 REVERT JUMPDEST SWAP4 DUP6 ADD SWAP4 JUMPDEST DUP3 DUP6 LT ISZERO PUSH2 0x363C JUMPI PUSH2 0x362A CALLDATASIZE DUP7 PUSH2 0x32A3 JUMP JUMPDEST DUP3 MSTORE DUP6 DUP3 ADD SWAP2 POP PUSH1 0x40 DUP6 ADD SWAP5 POP PUSH2 0x3618 JUMP JUMPDEST DUP1 DUP7 DUP9 ADD MSTORE POP POP POP PUSH1 0x40 DUP7 ADD CALLDATALOAD SWAP3 POP DUP1 DUP4 GT ISZERO PUSH2 0x3658 JUMPI PUSH1 0x0 DUP1 REVERT JUMPDEST POP POP PUSH2 0x3666 CALLDATASIZE DUP3 DUP7 ADD PUSH2 0x352A JUMP JUMPDEST PUSH1 0x40 DUP4 ADD MSTORE POP PUSH2 0x351F PUSH1 0x60 DUP5 ADD PUSH2 0x2CA9 JUMP JUMPDEST PUSH1 0x0 PUSH1 0xE0 DUP3 DUP5 SUB SLT ISZERO PUSH2 0x368A JUMPI PUSH1 0x0 DUP1 REVERT JUMPDEST PUSH2 0x3692 PUSH2 0x3068 JUMP JUMPDEST DUP3 CALLDATALOAD DUP2 MSTORE PUSH2 0x36A3 DUP5 PUSH1 0x20 DUP6 ADD PUSH2 0x32A3 JUMP JUMPDEST PUSH1 0x20 DUP3 ADD MSTORE PUSH2 0x36B5 DUP5 PUSH1 0x60 DUP6 ADD PUSH2 0x3430 JUMP JUMPDEST PUSH1 0x40 DUP3 ADD MSTORE PUSH1 0xC0 DUP4 ADD CALLDATALOAD PUSH2 0x36C8 DUP2 PUSH2 0x2C94 JUMP JUMPDEST PUSH1 0x60 DUP3 ADD MSTORE SWAP4 SWAP3 POP POP POP JUMP JUMPDEST PUSH1 0x1F DUP3 GT ISZERO PUSH2 0x74E JUMPI PUSH1 0x0 DUP2 DUP2 MSTORE PUSH1 0x20 DUP2 KECCAK256 PUSH1 0x1F DUP6 ADD PUSH1 0x5 SHR DUP2 ADD PUSH1 0x20 DUP7 LT ISZERO PUSH2 0x36FB JUMPI POP DUP1 JUMPDEST PUSH1 0x1F DUP6 ADD PUSH1 0x5 SHR DUP3 ADD SWAP2 POP JUMPDEST DUP2 DUP2 LT ISZERO PUSH2 0x371A JUMPI DUP3 DUP2 SSTORE PUSH1 0x1 ADD PUSH2 0x3707 JUMP JUMPDEST POP POP POP POP POP POP JUMP JUMPDEST DUP2 MLOAD PUSH1 0x1 PUSH1 0x1 PUSH1 0x40 SHL SUB DUP2 GT ISZERO PUSH2 0x373B JUMPI PUSH2 0x373B PUSH2 0x2FC1 JUMP JUMPDEST PUSH2 0x374F DUP2 PUSH2 0x3749 DUP5 SLOAD PUSH2 0x2F8D JUMP JUMPDEST DUP5 PUSH2 0x36D4 JUMP JUMPDEST PUSH1 0x20 DUP1 PUSH1 0x1F DUP4 GT PUSH1 0x1 DUP2 EQ PUSH2 0x3784 JUMPI PUSH1 0x0 DUP5 ISZERO PUSH2 0x376C JUMPI POP DUP6 DUP4 ADD MLOAD JUMPDEST PUSH1 0x0 NOT PUSH1 0x3 DUP7 SWAP1 SHL SHR NOT AND PUSH1 0x1 DUP6 SWAP1 SHL OR DUP6 SSTORE PUSH2 0x371A JUMP JUMPDEST PUSH1 0x0 DUP6 DUP2 MSTORE PUSH1 0x20 DUP2 KECCAK256 PUSH1 0x1F NOT DUP7 AND SWAP2 JUMPDEST DUP3 DUP2 LT ISZERO PUSH2 0x37B3 JUMPI DUP9 DUP7 ADD MLOAD DUP3 SSTORE SWAP5 DUP5 ADD SWAP5 PUSH1 0x1 SWAP1 SWAP2 ADD SWAP1 DUP5 ADD PUSH2 0x3794 JUMP JUMPDEST POP DUP6 DUP3 LT ISZERO PUSH2 0x37D1 JUMPI DUP8 DUP6 ADD MLOAD PUSH1 0x0 NOT PUSH1 0x3 DUP9 SWAP1 SHL PUSH1 0xF8 AND SHR NOT AND DUP2 SSTORE JUMPDEST POP POP POP POP POP PUSH1 0x1 SWAP1 DUP2 SHL ADD SWAP1 SSTORE POP JUMP JUMPDEST PUSH1 0x0 PUSH1 0x20 DUP1 DUP4 DUP6 SUB SLT ISZERO PUSH2 0x37F4 JUMPI PUSH1 0x0 DUP1 REVERT JUMPDEST DUP3 MLOAD PUSH1 0x1 PUSH1 0x1 PUSH1 0x40 SHL SUB DUP1 DUP3 GT ISZERO PUSH2 0x380B JUMPI PUSH1 0x0 DUP1 REVERT JUMPDEST SWAP1 DUP5 ADD SWAP1 PUSH1 0x80 DUP3 DUP8 SUB SLT ISZERO PUSH2 0x381F JUMPI PUSH1 0x0 DUP1 REVERT JUMPDEST PUSH2 0x3827 PUSH2 0x3068 JUMP JUMPDEST DUP3 MLOAD DUP2 MSTORE DUP4 DUP4 ADD MLOAD PUSH2 0x3838 DUP2 PUSH2 0x2C94 JUMP JUMPDEST DUP2 DUP6 ADD MSTORE PUSH1 0x40 DUP4 ADD MLOAD PUSH2 0x384A DUP2 PUSH2 0x30DD JUMP JUMPDEST PUSH1 0x40 DUP3 ADD MSTORE PUSH1 0x60 DUP4 ADD MLOAD DUP3 DUP2 GT ISZERO PUSH2 0x3861 JUMPI PUSH1 0x0 DUP1 REVERT JUMPDEST DUP1 DUP5 ADD SWAP4 POP POP DUP7 PUSH1 0x1F DUP5 ADD SLT PUSH2 0x3876 JUMPI PUSH1 0x0 DUP1 REVERT JUMPDEST DUP3 MLOAD SWAP2 POP PUSH2 0x3886 PUSH2 0x313C DUP4 PUSH2 0x30F6 JUMP JUMPDEST DUP3 DUP2 MSTORE DUP8 DUP6 DUP5 DUP7 ADD ADD GT ISZERO PUSH2 0x389A JUMPI PUSH1 0x0 DUP1 REVERT JUMPDEST PUSH2 0x38A9 DUP4 DUP7 DUP4 ADD DUP8 DUP8 ADD PUSH2 0x2C2A JUMP JUMPDEST PUSH1 0x60 DUP3 ADD MSTORE SWAP7 SWAP6 POP POP POP POP POP POP JUMP JUMPDEST DUP1 MLOAD PUSH1 0x20 DUP1 DUP4 ADD MLOAD SWAP2 SWAP1 DUP2 LT ISZERO PUSH2 0x2D2C JUMPI PUSH1 0x0 NOT PUSH1 0x20 SWAP2 SWAP1 SWAP2 SUB PUSH1 0x3 SHL SHL AND SWAP2 SWAP1 POP JUMP JUMPDEST DUP10 DUP2 MSTORE PUSH1 0x0 PUSH12 0xFFFFFFFFFFFFFFFFFFFFFFFF NOT DUP1 DUP12 PUSH1 0x60 SHL AND PUSH1 0x20 DUP5 ADD MSTORE DUP1 DUP11 PUSH1 0x60 SHL AND PUSH1 0x34 DUP5 ADD MSTORE POP PUSH1 0x1 PUSH1 0x1 PUSH1 0x40 SHL SUB PUSH1 0xC0 SHL DUP1 DUP10 PUSH1 0xC0 SHL AND PUSH1 0x48 DUP5 ADD MSTORE DUP1 DUP9 PUSH1 0xC0 SHL AND PUSH1 0x50 DUP5 ADD MSTORE POP DUP6 ISZERO ISZERO PUSH1 0xF8 SHL PUSH1 0x58 DUP4 ADD MSTORE DUP5 PUSH1 0x59 DUP4 ADD MSTORE DUP4 MLOAD PUSH2 0x394C DUP2 PUSH1 0x79 DUP6 ADD PUSH1 0x20 DUP9 ADD PUSH2 0x2C2A JUMP JUMPDEST PUSH1 0xE0 SWAP4 SWAP1 SWAP4 SHL PUSH1 0x1 PUSH1 0x1 PUSH1 0xE0 SHL SUB NOT AND PUSH1 0x79 SWAP3 SWAP1 SWAP4 ADD SWAP2 DUP3 ADD SWAP3 SWAP1 SWAP3 MSTORE PUSH1 0x7D ADD SWAP10 SWAP9 POP POP POP POP POP POP POP POP POP JUMP JUMPDEST PUSH1 0x0 PUSH1 0x20 DUP3 DUP5 SUB SLT ISZERO PUSH2 0x398B JUMPI PUSH1 0x0 DUP1 REVERT JUMPDEST DUP2 MLOAD PUSH2 0x2C8D DUP2 PUSH2 0x30DD JUMP JUMPDEST PUSH1 0x0 PUSH1 0x40 DUP3 ADD PUSH1 0x40 DUP4 MSTORE DUP1 DUP6 MLOAD DUP1 DUP4 MSTORE PUSH1 0x60 DUP6 ADD SWAP2 POP PUSH1 0x60 DUP2 PUSH1 0x5 SHL DUP7 ADD ADD SWAP3 POP PUSH1 0x20 DUP1 DUP9 ADD PUSH1 0x0 JUMPDEST DUP4 DUP2 LT ISZERO PUSH2 0x39ED JUMPI PUSH1 0x5F NOT DUP9 DUP8 SUB ADD DUP6 MSTORE PUSH2 0x39DB DUP7 DUP4 MLOAD PUSH2 0x2DE8 JUMP JUMPDEST SWAP6 POP SWAP4 DUP3 ADD SWAP4 SWAP1 DUP3 ADD SWAP1 PUSH1 0x1 ADD PUSH2 0x39BF JUMP JUMPDEST POP POP DUP6 DUP5 SUB DUP2 DUP8 ADD MSTORE POP POP POP PUSH2 0x3A03 DUP2 DUP6 PUSH2 0x2D4B JUMP JUMPDEST SWAP6 SWAP5 POP POP POP POP POP JUMP JUMPDEST PUSH4 0x4E487B71 PUSH1 0xE0 SHL PUSH1 0x0 MSTORE PUSH1 0x21 PUSH1 0x4 MSTORE PUSH1 0x24 PUSH1 0x0 REVERT INVALID LOG2 PUSH5 0x6970667358 0x22 SLT KECCAK256 LOG0 SSTORE SGT PUSH27 0xDA31825646038107C9A6A01109DD48D3EA1FED752214DADB52B2E9 0xDE PUSH5 0x736F6C6343 STOP ADDMOD SLT STOP CALLER "
		},
		"gasEstimates": {
			"creation": {
				"codeDepositCost": "2987200",
				"executionCost": "infinite",
				"totalCost": "infinite"
			},
			"external": {
				"attest((bytes32,(address,uint64,bool,bytes32,bytes,uint256)))": "infinite",
				"attestByDelegation((bytes32,(address,uint64,bool,bytes32,bytes,uint256),(uint8,bytes32,bytes32),address))": "infinite",
				"eip712Domain()": "infinite",
				"getAttestTypeHash()": "194",
				"getAttestation(bytes32)": "infinite",
				"getDomainSeparator()": "infinite",
				"getName()": "infinite",
				"getNonce(address)": "2610",
				"getRevokeOffchain(address,bytes32)": "2692",
				"getRevokeTypeHash()": "226",
				"getSchemaRegistry()": "infinite",
				"getTimestamp(bytes32)": "2566",
				"isAttestationValid(bytes32)": "2583",
				"multiAttest((bytes32,(address,uint64,bool,bytes32,bytes,uint256)[])[])": "infinite",
				"multiAttestByDelegation((bytes32,(address,uint64,bool,bytes32,bytes,uint256)[],(uint8,bytes32,bytes32)[],address)[])": "infinite",
				"multiRevoke((bytes32,(bytes32,uint256)[])[])": "infinite",
				"multiRevokeByDelegation((bytes32,(bytes32,uint256)[],(uint8,bytes32,bytes32)[],address)[])": "infinite",
				"multiRevokeOffchain(bytes32[])": "infinite",
				"multiTimestamp(bytes32[])": "infinite",
				"revoke((bytes32,(bytes32,uint256)))": "infinite",
				"revokeByDelegation((bytes32,(bytes32,uint256),(uint8,bytes32,bytes32),address))": "infinite",
				"revokeOffchain(bytes32)": "28970",
				"timestamp(bytes32)": "28444",
				"version()": "infinite"
			},
			"internal": {
				"_attest(bytes32,struct AttestationRequestData memory[] memory,address,uint256,bool)": "infinite",
				"_getUID(struct Attestation memory,uint32)": "infinite",
				"_mergeUIDs(bytes32[] memory[] memory,uint256)": "infinite",
				"_refund(uint256)": "infinite",
				"_resolveAttestation(struct SchemaRecord memory,struct Attestation memory,uint256,bool,uint256,bool)": "infinite",
				"_resolveAttestations(struct SchemaRecord memory,struct Attestation memory[] memory,uint256[] memory,bool,uint256,bool)": "infinite",
				"_revoke(bytes32,struct RevocationRequestData memory[] memory,address,uint256,bool)": "infinite",
				"_revokeOffchain(address,bytes32,uint64)": "infinite",
				"_time()": "infinite",
				"_timestamp(bytes32,uint64)": "infinite"
			}
		},
		"methodIdentifiers": {
			"attest((bytes32,(address,uint64,bool,bytes32,bytes,uint256)))": "f17325e7",
			"attestByDelegation((bytes32,(address,uint64,bool,bytes32,bytes,uint256),(uint8,bytes32,bytes32),address))": "e13458fc",
			"eip712Domain()": "84b0196e",
			"getAttestTypeHash()": "12b11a17",
			"getAttestation(bytes32)": "a3112a64",
			"getDomainSeparator()": "ed24911d",
			"getName()": "17d7de7c",
			"getNonce(address)": "2d0335ab",
			"getRevokeOffchain(address,bytes32)": "b469318d",
			"getRevokeTypeHash()": "b83010d3",
			"getSchemaRegistry()": "f10b5cc8",
			"getTimestamp(bytes32)": "d45c4435",
			"isAttestationValid(bytes32)": "e30bb563",
			"multiAttest((bytes32,(address,uint64,bool,bytes32,bytes,uint256)[])[])": "44adc90e",
			"multiAttestByDelegation((bytes32,(address,uint64,bool,bytes32,bytes,uint256)[],(uint8,bytes32,bytes32)[],address)[])": "831e05a1",
			"multiRevoke((bytes32,(bytes32,uint256)[])[])": "4cb7e9e5",
			"multiRevokeByDelegation((bytes32,(bytes32,uint256)[],(uint8,bytes32,bytes32)[],address)[])": "e45d03f9",
			"multiRevokeOffchain(bytes32[])": "13893f61",
			"multiTimestamp(bytes32[])": "e71ff365",
			"revoke((bytes32,(bytes32,uint256)))": "46926267",
			"revokeByDelegation((bytes32,(bytes32,uint256),(uint8,bytes32,bytes32),address))": "e57a6b1b",
			"revokeOffchain(bytes32)": "cf190f34",
			"timestamp(bytes32)": "4d003070",
			"version()": "54fd4d50"
		}
	},
	"abi": [
		{
			"inputs": [
				{
					"internalType": "contract ISchemaRegistry",
					"name": "registry",
					"type": "address"
				}
			],
			"stateMutability": "nonpayable",
			"type": "constructor"
		},
		{
			"inputs": [],
			"name": "AccessDenied",
			"type": "error"
		},
		{
			"inputs": [],
			"name": "AlreadyRevoked",
			"type": "error"
		},
		{
			"inputs": [],
			"name": "AlreadyRevokedOffchain",
			"type": "error"
		},
		{
			"inputs": [],
			"name": "AlreadyTimestamped",
			"type": "error"
		},
		{
			"inputs": [],
			"name": "InsufficientValue",
			"type": "error"
		},
		{
			"inputs": [],
			"name": "InvalidAttestation",
			"type": "error"
		},
		{
			"inputs": [],
			"name": "InvalidAttestations",
			"type": "error"
		},
		{
			"inputs": [],
			"name": "InvalidExpirationTime",
			"type": "error"
		},
		{
			"inputs": [],
			"name": "InvalidLength",
			"type": "error"
		},
		{
			"inputs": [],
			"name": "InvalidOffset",
			"type": "error"
		},
		{
			"inputs": [],
			"name": "InvalidRegistry",
			"type": "error"
		},
		{
			"inputs": [],
			"name": "InvalidRevocation",
			"type": "error"
		},
		{
			"inputs": [],
			"name": "InvalidRevocations",
			"type": "error"
		},
		{
			"inputs": [],
			"name": "InvalidSchema",
			"type": "error"
		},
		{
			"inputs": [],
			"name": "InvalidShortString",
			"type": "error"
		},
		{
			"inputs": [],
			"name": "InvalidSignature",
			"type": "error"
		},
		{
			"inputs": [],
			"name": "InvalidVerifier",
			"type": "error"
		},
		{
			"inputs": [],
			"name": "Irrevocable",
			"type": "error"
		},
		{
			"inputs": [],
			"name": "NotFound",
			"type": "error"
		},
		{
			"inputs": [],
			"name": "NotPayable",
			"type": "error"
		},
		{
			"inputs": [
				{
					"internalType": "string",
					"name": "str",
					"type": "string"
				}
			],
			"name": "StringTooLong",
			"type": "error"
		},
		{
			"inputs": [],
			"name": "WrongSchema",
			"type": "error"
		},
		{
			"anonymous": false,
			"inputs": [
				{
					"indexed": true,
					"internalType": "address",
					"name": "recipient",
					"type": "address"
				},
				{
					"indexed": true,
					"internalType": "address",
					"name": "attester",
					"type": "address"
				},
				{
					"indexed": false,
					"internalType": "bytes32",
					"name": "uid",
					"type": "bytes32"
				},
				{
					"indexed": true,
					"internalType": "bytes32",
					"name": "schema",
					"type": "bytes32"
				}
			],
			"name": "Attested",
			"type": "event"
		},
		{
			"anonymous": false,
			"inputs": [],
			"name": "EIP712DomainChanged",
			"type": "event"
		},
		{
			"anonymous": false,
			"inputs": [
				{
					"indexed": true,
					"internalType": "address",
					"name": "recipient",
					"type": "address"
				},
				{
					"indexed": true,
					"internalType": "address",
					"name": "attester",
					"type": "address"
				},
				{
					"indexed": false,
					"internalType": "bytes32",
					"name": "uid",
					"type": "bytes32"
				},
				{
					"indexed": true,
					"internalType": "bytes32",
					"name": "schema",
					"type": "bytes32"
				}
			],
			"name": "Revoked",
			"type": "event"
		},
		{
			"anonymous": false,
			"inputs": [
				{
					"indexed": true,
					"internalType": "address",
					"name": "revoker",
					"type": "address"
				},
				{
					"indexed": true,
					"internalType": "bytes32",
					"name": "data",
					"type": "bytes32"
				},
				{
					"indexed": true,
					"internalType": "uint64",
					"name": "timestamp",
					"type": "uint64"
				}
			],
			"name": "RevokedOffchain",
			"type": "event"
		},
		{
			"anonymous": false,
			"inputs": [
				{
					"indexed": true,
					"internalType": "bytes32",
					"name": "data",
					"type": "bytes32"
				},
				{
					"indexed": true,
					"internalType": "uint64",
					"name": "timestamp",
					"type": "uint64"
				}
			],
			"name": "Timestamped",
			"type": "event"
		},
		{
			"inputs": [
				{
					"components": [
						{
							"internalType": "bytes32",
							"name": "schema",
							"type": "bytes32"
						},
						{
							"components": [
								{
									"internalType": "address",
									"name": "recipient",
									"type": "address"
								},
								{
									"internalType": "uint64",
									"name": "expirationTime",
									"type": "uint64"
								},
								{
									"internalType": "bool",
									"name": "revocable",
									"type": "bool"
								},
								{
									"internalType": "bytes32",
									"name": "refUID",
									"type": "bytes32"
								},
								{
									"internalType": "bytes",
									"name": "data",
									"type": "bytes"
								},
								{
									"internalType": "uint256",
									"name": "value",
									"type": "uint256"
								}
							],
							"internalType": "struct AttestationRequestData",
							"name": "data",
							"type": "tuple"
						}
					],
					"internalType": "struct AttestationRequest",
					"name": "request",
					"type": "tuple"
				}
			],
			"name": "attest",
			"outputs": [
				{
					"internalType": "bytes32",
					"name": "",
					"type": "bytes32"
				}
			],
			"stateMutability": "payable",
			"type": "function"
		},
		{
			"inputs": [
				{
					"components": [
						{
							"internalType": "bytes32",
							"name": "schema",
							"type": "bytes32"
						},
						{
							"components": [
								{
									"internalType": "address",
									"name": "recipient",
									"type": "address"
								},
								{
									"internalType": "uint64",
									"name": "expirationTime",
									"type": "uint64"
								},
								{
									"internalType": "bool",
									"name": "revocable",
									"type": "bool"
								},
								{
									"internalType": "bytes32",
									"name": "refUID",
									"type": "bytes32"
								},
								{
									"internalType": "bytes",
									"name": "data",
									"type": "bytes"
								},
								{
									"internalType": "uint256",
									"name": "value",
									"type": "uint256"
								}
							],
							"internalType": "struct AttestationRequestData",
							"name": "data",
							"type": "tuple"
						},
						{
							"components": [
								{
									"internalType": "uint8",
									"name": "v",
									"type": "uint8"
								},
								{
									"internalType": "bytes32",
									"name": "r",
									"type": "bytes32"
								},
								{
									"internalType": "bytes32",
									"name": "s",
									"type": "bytes32"
								}
							],
							"internalType": "struct EIP712Signature",
							"name": "signature",
							"type": "tuple"
						},
						{
							"internalType": "address",
							"name": "attester",
							"type": "address"
						}
					],
					"internalType": "struct DelegatedAttestationRequest",
					"name": "delegatedRequest",
					"type": "tuple"
				}
			],
			"name": "attestByDelegation",
			"outputs": [
				{
					"internalType": "bytes32",
					"name": "",
					"type": "bytes32"
				}
			],
			"stateMutability": "payable",
			"type": "function"
		},
		{
			"inputs": [],
			"name": "eip712Domain",
			"outputs": [
				{
					"internalType": "bytes1",
					"name": "fields",
					"type": "bytes1"
				},
				{
					"internalType": "string",
					"name": "name",
					"type": "string"
				},
				{
					"internalType": "string",
					"name": "version",
					"type": "string"
				},
				{
					"internalType": "uint256",
					"name": "chainId",
					"type": "uint256"
				},
				{
					"internalType": "address",
					"name": "verifyingContract",
					"type": "address"
				},
				{
					"internalType": "bytes32",
					"name": "salt",
					"type": "bytes32"
				},
				{
					"internalType": "uint256[]",
					"name": "extensions",
					"type": "uint256[]"
				}
			],
			"stateMutability": "view",
			"type": "function"
		},
		{
			"inputs": [],
			"name": "getAttestTypeHash",
			"outputs": [
				{
					"internalType": "bytes32",
					"name": "",
					"type": "bytes32"
				}
			],
			"stateMutability": "pure",
			"type": "function"
		},
		{
			"inputs": [
				{
					"internalType": "bytes32",
					"name": "uid",
					"type": "bytes32"
				}
			],
			"name": "getAttestation",
			"outputs": [
				{
					"components": [
						{
							"internalType": "bytes32",
							"name": "uid",
							"type": "bytes32"
						},
						{
							"internalType": "bytes32",
							"name": "schema",
							"type": "bytes32"
						},
						{
							"internalType": "uint64",
							"name": "time",
							"type": "uint64"
						},
						{
							"internalType": "uint64",
							"name": "expirationTime",
							"type": "uint64"
						},
						{
							"internalType": "uint64",
							"name": "revocationTime",
							"type": "uint64"
						},
						{
							"internalType": "bytes32",
							"name": "refUID",
							"type": "bytes32"
						},
						{
							"internalType": "address",
							"name": "recipient",
							"type": "address"
						},
						{
							"internalType": "address",
							"name": "attester",
							"type": "address"
						},
						{
							"internalType": "bool",
							"name": "revocable",
							"type": "bool"
						},
						{
							"internalType": "bytes",
							"name": "data",
							"type": "bytes"
						}
					],
					"internalType": "struct Attestation",
					"name": "",
					"type": "tuple"
				}
			],
			"stateMutability": "view",
			"type": "function"
		},
		{
			"inputs": [],
			"name": "getDomainSeparator",
			"outputs": [
				{
					"internalType": "bytes32",
					"name": "",
					"type": "bytes32"
				}
			],
			"stateMutability": "view",
			"type": "function"
		},
		{
			"inputs": [],
			"name": "getName",
			"outputs": [
				{
					"internalType": "string",
					"name": "",
					"type": "string"
				}
			],
			"stateMutability": "view",
			"type": "function"
		},
		{
			"inputs": [
				{
					"internalType": "address",
					"name": "account",
					"type": "address"
				}
			],
			"name": "getNonce",
			"outputs": [
				{
					"internalType": "uint256",
					"name": "",
					"type": "uint256"
				}
			],
			"stateMutability": "view",
			"type": "function"
		},
		{
			"inputs": [
				{
					"internalType": "address",
					"name": "revoker",
					"type": "address"
				},
				{
					"internalType": "bytes32",
					"name": "data",
					"type": "bytes32"
				}
			],
			"name": "getRevokeOffchain",
			"outputs": [
				{
					"internalType": "uint64",
					"name": "",
					"type": "uint64"
				}
			],
			"stateMutability": "view",
			"type": "function"
		},
		{
			"inputs": [],
			"name": "getRevokeTypeHash",
			"outputs": [
				{
					"internalType": "bytes32",
					"name": "",
					"type": "bytes32"
				}
			],
			"stateMutability": "pure",
			"type": "function"
		},
		{
			"inputs": [],
			"name": "getSchemaRegistry",
			"outputs": [
				{
					"internalType": "contract ISchemaRegistry",
					"name": "",
					"type": "address"
				}
			],
			"stateMutability": "view",
			"type": "function"
		},
		{
			"inputs": [
				{
					"internalType": "bytes32",
					"name": "data",
					"type": "bytes32"
				}
			],
			"name": "getTimestamp",
			"outputs": [
				{
					"internalType": "uint64",
					"name": "",
					"type": "uint64"
				}
			],
			"stateMutability": "view",
			"type": "function"
		},
		{
			"inputs": [
				{
					"internalType": "bytes32",
					"name": "uid",
					"type": "bytes32"
				}
			],
			"name": "isAttestationValid",
			"outputs": [
				{
					"internalType": "bool",
					"name": "",
					"type": "bool"
				}
			],
			"stateMutability": "view",
			"type": "function"
		},
		{
			"inputs": [
				{
					"components": [
						{
							"internalType": "bytes32",
							"name": "schema",
							"type": "bytes32"
						},
						{
							"components": [
								{
									"internalType": "address",
									"name": "recipient",
									"type": "address"
								},
								{
									"internalType": "uint64",
									"name": "expirationTime",
									"type": "uint64"
								},
								{
									"internalType": "bool",
									"name": "revocable",
									"type": "bool"
								},
								{
									"internalType": "bytes32",
									"name": "refUID",
									"type": "bytes32"
								},
								{
									"internalType": "bytes",
									"name": "data",
									"type": "bytes"
								},
								{
									"internalType": "uint256",
									"name": "value",
									"type": "uint256"
								}
							],
							"internalType": "struct AttestationRequestData[]",
							"name": "data",
							"type": "tuple[]"
						}
					],
					"internalType": "struct MultiAttestationRequest[]",
					"name": "multiRequests",
					"type": "tuple[]"
				}
			],
			"name": "multiAttest",
			"outputs": [
				{
					"internalType": "bytes32[]",
					"name": "",
					"type": "bytes32[]"
				}
			],
			"stateMutability": "payable",
			"type": "function"
		},
		{
			"inputs": [
				{
					"components": [
						{
							"internalType": "bytes32",
							"name": "schema",
							"type": "bytes32"
						},
						{
							"components": [
								{
									"internalType": "address",
									"name": "recipient",
									"type": "address"
								},
								{
									"internalType": "uint64",
									"name": "expirationTime",
									"type": "uint64"
								},
								{
									"internalType": "bool",
									"name": "revocable",
									"type": "bool"
								},
								{
									"internalType": "bytes32",
									"name": "refUID",
									"type": "bytes32"
								},
								{
									"internalType": "bytes",
									"name": "data",
									"type": "bytes"
								},
								{
									"internalType": "uint256",
									"name": "value",
									"type": "uint256"
								}
							],
							"internalType": "struct AttestationRequestData[]",
							"name": "data",
							"type": "tuple[]"
						},
						{
							"components": [
								{
									"internalType": "uint8",
									"name": "v",
									"type": "uint8"
								},
								{
									"internalType": "bytes32",
									"name": "r",
									"type": "bytes32"
								},
								{
									"internalType": "bytes32",
									"name": "s",
									"type": "bytes32"
								}
							],
							"internalType": "struct EIP712Signature[]",
							"name": "signatures",
							"type": "tuple[]"
						},
						{
							"internalType": "address",
							"name": "attester",
							"type": "address"
						}
					],
					"internalType": "struct MultiDelegatedAttestationRequest[]",
					"name": "multiDelegatedRequests",
					"type": "tuple[]"
				}
			],
			"name": "multiAttestByDelegation",
			"outputs": [
				{
					"internalType": "bytes32[]",
					"name": "",
					"type": "bytes32[]"
				}
			],
			"stateMutability": "payable",
			"type": "function"
		},
		{
			"inputs": [
				{
					"components": [
						{
							"internalType": "bytes32",
							"name": "schema",
							"type": "bytes32"
						},
						{
							"components": [
								{
									"internalType": "bytes32",
									"name": "uid",
									"type": "bytes32"
								},
								{
									"internalType": "uint256",
									"name": "value",
									"type": "uint256"
								}
							],
							"internalType": "struct RevocationRequestData[]",
							"name": "data",
							"type": "tuple[]"
						}
					],
					"internalType": "struct MultiRevocationRequest[]",
					"name": "multiRequests",
					"type": "tuple[]"
				}
			],
			"name": "multiRevoke",
			"outputs": [],
			"stateMutability": "payable",
			"type": "function"
		},
		{
			"inputs": [
				{
					"components": [
						{
							"internalType": "bytes32",
							"name": "schema",
							"type": "bytes32"
						},
						{
							"components": [
								{
									"internalType": "bytes32",
									"name": "uid",
									"type": "bytes32"
								},
								{
									"internalType": "uint256",
									"name": "value",
									"type": "uint256"
								}
							],
							"internalType": "struct RevocationRequestData[]",
							"name": "data",
							"type": "tuple[]"
						},
						{
							"components": [
								{
									"internalType": "uint8",
									"name": "v",
									"type": "uint8"
								},
								{
									"internalType": "bytes32",
									"name": "r",
									"type": "bytes32"
								},
								{
									"internalType": "bytes32",
									"name": "s",
									"type": "bytes32"
								}
							],
							"internalType": "struct EIP712Signature[]",
							"name": "signatures",
							"type": "tuple[]"
						},
						{
							"internalType": "address",
							"name": "revoker",
							"type": "address"
						}
					],
					"internalType": "struct MultiDelegatedRevocationRequest[]",
					"name": "multiDelegatedRequests",
					"type": "tuple[]"
				}
			],
			"name": "multiRevokeByDelegation",
			"outputs": [],
			"stateMutability": "payable",
			"type": "function"
		},
		{
			"inputs": [
				{
					"internalType": "bytes32[]",
					"name": "data",
					"type": "bytes32[]"
				}
			],
			"name": "multiRevokeOffchain",
			"outputs": [
				{
					"internalType": "uint64",
					"name": "",
					"type": "uint64"
				}
			],
			"stateMutability": "nonpayable",
			"type": "function"
		},
		{
			"inputs": [
				{
					"internalType": "bytes32[]",
					"name": "data",
					"type": "bytes32[]"
				}
			],
			"name": "multiTimestamp",
			"outputs": [
				{
					"internalType": "uint64",
					"name": "",
					"type": "uint64"
				}
			],
			"stateMutability": "nonpayable",
			"type": "function"
		},
		{
			"inputs": [
				{
					"components": [
						{
							"internalType": "bytes32",
							"name": "schema",
							"type": "bytes32"
						},
						{
							"components": [
								{
									"internalType": "bytes32",
									"name": "uid",
									"type": "bytes32"
								},
								{
									"internalType": "uint256",
									"name": "value",
									"type": "uint256"
								}
							],
							"internalType": "struct RevocationRequestData",
							"name": "data",
							"type": "tuple"
						}
					],
					"internalType": "struct RevocationRequest",
					"name": "request",
					"type": "tuple"
				}
			],
			"name": "revoke",
			"outputs": [],
			"stateMutability": "payable",
			"type": "function"
		},
		{
			"inputs": [
				{
					"components": [
						{
							"internalType": "bytes32",
							"name": "schema",
							"type": "bytes32"
						},
						{
							"components": [
								{
									"internalType": "bytes32",
									"name": "uid",
									"type": "bytes32"
								},
								{
									"internalType": "uint256",
									"name": "value",
									"type": "uint256"
								}
							],
							"internalType": "struct RevocationRequestData",
							"name": "data",
							"type": "tuple"
						},
						{
							"components": [
								{
									"internalType": "uint8",
									"name": "v",
									"type": "uint8"
								},
								{
									"internalType": "bytes32",
									"name": "r",
									"type": "bytes32"
								},
								{
									"internalType": "bytes32",
									"name": "s",
									"type": "bytes32"
								}
							],
							"internalType": "struct EIP712Signature",
							"name": "signature",
							"type": "tuple"
						},
						{
							"internalType": "address",
							"name": "revoker",
							"type": "address"
						}
					],
					"internalType": "struct DelegatedRevocationRequest",
					"name": "delegatedRequest",
					"type": "tuple"
				}
			],
			"name": "revokeByDelegation",
			"outputs": [],
			"stateMutability": "payable",
			"type": "function"
		},
		{
			"inputs": [
				{
					"internalType": "bytes32",
					"name": "data",
					"type": "bytes32"
				}
			],
			"name": "revokeOffchain",
			"outputs": [
				{
					"internalType": "uint64",
					"name": "",
					"type": "uint64"
				}
			],
			"stateMutability": "nonpayable",
			"type": "function"
		},
		{
			"inputs": [
				{
					"internalType": "bytes32",
					"name": "data",
					"type": "bytes32"
				}
			],
			"name": "timestamp",
			"outputs": [
				{
					"internalType": "uint64",
					"name": "",
					"type": "uint64"
				}
			],
			"stateMutability": "nonpayable",
			"type": "function"
		},
		{
			"inputs": [],
			"name": "version",
			"outputs": [
				{
					"internalType": "string",
					"name": "",
					"type": "string"
				}
			],
			"stateMutability": "view",
			"type": "function"
		}
	]
}